:020000040000fa
:080000000001040000000000f3
:020000040000fa
:100008009a0100009a0100009a0100009a0100007c
:100018009a0100009a0100009a0100009a0100006c
:100028009a0100009a0100009a0100009a0100005c
:100038009a0100009a0100009a0100009a0100004c
:100048009a0100009a0100009a010000720e000057
:100058009a0100009a0100009a0100009a0100002c
:100068009a0100009a0100009a0100009a0100001c
:100078009a0100009a0100009a0100009a0100000c
:100088009a0100009a0100009a0100009a010000fc
:100098009a0100009a0100009a0100009a010000ec
:1000a8009a0100009a0100009a0100009a010000dc
:1000b8009a0100009a010000840900009a010000da
:1000c8009a0100009a0100009a0100009a010000bc
:1000d8009a0100009a0100009a0100009a010000ac
:1000e8009a0100009a0100009a0100009a0100009c
:0800f8009a0100009a010000ca
:020000040000fa
:100108009a0100009a0100009a0100009a0100007b
:100118009a0100009a0100009a0100009a0100006b
:100128009a0100009a0100009a0100009a0100005b
:100138009a0100009a0100009a0100009a0100004b
:100148009a0100009a0100009a010000720e000056
:100158009a0100009a0100009a0100009a0100002b
:100168009a0100009a0100009a0100009a0100001b
:100178009a0100009a0100009a0100009a0100000b
:100188009a0100009a0100009a0100009a010000fb
:100198009a0100009a0100009a0100009a010000eb
:1001a8009a0100009a0100009a0100009a010000db
:1001b8009a0100009a010000840900009a010000d9
:1001c8009a0100009a0100009a0100009a010000bb
:1001d8009a0100009a0100009a0100009a010000ab
:1001e8009a0100009a0100009a0100009a0100009b
:0801f8009a0100009a010000c9
:020000040000fa
:100200008fd820000e7f22000e0188000000000021
:10021000000020000000e000020032000001200089
:10022000200288000c000700e00c220001002000e2
:1002300011000700000020000000e0000200320072
:1002400000000200000000007a0a02000000000026
:100250000040da000000fe004440a9000024200015
:100260000000e0000300320000002000a001880030
:100270004440a8000000060091018800800078003a
:100280000000eb0015003700e280400032a0b4000f
:100290009101ba00e280400032a0b4009102ba009d
:1002a000e280400032a0b4000002eb00472bde00e9
:1002b000f507b200602ce10004003a000059eb00a1
:1002c0008301e900fdff3e00040037006128e100e2
:1002d000010032000082eb00040007001101ba00a7
:1002e0000200e000e8ff3a00000006003159ba00c1
:1002f0008301e9000c0032002159ba008301e900b2
:10030000080032000400e00003003a00e2804000f0
:1003100032a0b400f5ff370011d9ba008301e9001b
:10032000faff3a008100e800e180400032a0b4000a
:10033000000006000040da000000fe003200f80075
:10034000910188000008bb00410424006210e10014
:1003500004003200000220000010e1000a003a0010
:1003600051042400013b88000500fc0051052000d9
:10037000313b8800a10a2000313b880061e7a800da
:1003800000000000000000003200f900000006003c
:100390003200f80060042400003b8800f2ff3700c0
:1003a0003200f8009101880041002400013b8800e0
:1003b0000208bb00ecff37003200f8009101880012
:1003c00051002400013b8800030120003218bb00cb
:1003d0008301e900fdff3a00e3ff37006022b80027
:1003e000060220000000d0008180d2000482d200ea
:1003f0008582d2000000a0000202520083825a00cf
:10040000030031000202420083824a000000a10082
:0c0410000603e900f3ff3a0000000600bc
:020000040000fa
:10041c00045b0000045b0000045b0000045b000054
:10042c00045b0000045b0000da5b0000ad5c0000c4
:10043c00735d0000245e0000c45e0000585f000085
:10044c00e25f000066600000e060000052610000a6
:10045c00c36100002d62000096620000f86200008b
:10046c0054630000ad630000056400005964000093
:10047c00ae640000fd640000496500009565000055
:10048c00dd650000266600006e660000b0660000a8
:10049c00f26600003567000078670000b76700005f
:1004ac00f3670000316800006e680000a968000066
:1004bc00e26800001b690000546900008d690000af
:1004cc00c4690000fa690000306a0000646a000028
:1004dc00976a0000cb6a0000fe6a0000316b0000d6
:1004ec00636b0000956b0000c76b0000f86b00009d
:1004fc00286c0000586c0000896c0000b96c00007e
:10050c00e76c0000166d0000466d0000746d000075
:10051c00a26d0000cf6d0000fb6d0000286e000086
:10052c00566e0000836e0000b16e0000dd6e0000a0
:10053c00086f0000336f00005f6f00008c6f0000cd
:10054c00b86f0000e46f00000f7000003a700000fc
:10055c006570000090700000bc700000e770000037
:10056c00117100003b710000657100009171000079
:10057c00bc710000e8710000137200003d720000b5
:10058c006772000092720000bd720000e8720000f9
:10059c00127300003c73000067730000927300003c
:1005ac00be730000e9730000147400003f74000077
:1005bc006b74000097740000c4740000ef740000aa
:1005cc001a75000046750000737500009f750000d9
:1005dc00cb750000f87500002576000053760000fe
:1005ec0081760000af760000dc7600000a77000010
:1005fc00387700006777000097770000c677000017
:10060c00f577000024780000537800008378000010
:10061c00b4780000e6780000187900004a790000f0
:10062c007c790000ad790000e0790000157a0000bb
:10063c004b7a00007e7a0000b27a0000ea7a000061
:10064c00207b0000557b00008c7b0000c67b0000eb
:10065c00ff7b0000387c0000717c0000ab7c00004c
:10066c00e67c0000227d0000607d00009e7d000085
:10067c00dc7d00001c7e00005e7e0000a17e000080
:10068c00e37e0000267f0000697f0000af7f000042
:10069c00f77f0000ff7f0000ff7f0000ff7f00005e
:1006ac00ff7f0000ff7f0000ff7f0000ff7f000046
:1006bc00ff7f0000ff7f0000ff7f0000ff7f000036
:1006cc00ff7f0000ff7f0000ff7f0000ff7f000026
:1006dc00ff7f0000ff7f0000ff7f0000ff7f000016
:1006ec00ff7f0000ff7f0000ff7f0000ff7f000006
:1006fc00ff7f0000ff7f0000ff7f0000ff7f0000f6
:10070c00ff7f0000ff7f0000ff7f0000ff7f0000e5
:10071c00ff7f0000ff7f0000ff7f0000ff7f0000d5
:10072c00ff7f0000ff7f0000ff7f0000ff7f0000c5
:10073c00ff7f0000ff7f0000ff7f0000ff7f0000b5
:10074c00ff7f0000ff7f0000ff7f0000ff7f0000a5
:10075c00ff7f0000ff7f0000ff7f0000ff7f000095
:10076c00ff7f0000ff7f0000ff7f0000ff7f000085
:10077c00ff7f0000ff7f0000ff7f0000ff7f000075
:10078c00ff7f0000ff7f0000ff7f0000ff7f000065
:10079c00ff7f0000ff7f0000ff7f0000ff7f000055
:1007ac00ff7f0000ff7f0000ff7f0000ff7f000045
:1007bc00ff7f0000ff7f0000ff7f0000ff7f000035
:1007cc00ff7f0000ff7f0000ff7f0000ff7f000025
:1007dc00ff7f0000ff7f0000ff7f0000ff7f000015
:1007ec00ff7f0000ff7f0000ff7f0000ff7f000005
:1007fc00ff7f0000ff7f0000ff7f0000ff7f0000f5
:10080c00ff7f0000ff7f0000ff7f0000ff7f0000e4
:10081c0000000000008000000000000000800000cc
:10082c0000000000008000000000000000800000bc
:10083c0000000000008000000000000000800000ac
:10084c00000000000080000000000000008000009c
:10085c00000000000000000000000000000000008c
:10086c00000000000000000000000000000000007c
:10087c00000000000000000000000000000000006c
:10088c00000000000000000000000000000000005c
:020000040000fa
:10089c000000fa001f000700e3000700d701070063
:1008ac00e5010700144e8000e44a8800e54a800008
:1008bc00e44d800004824200e44a8800e54a80004e
:1008cc00f44d800004824200e44a8800e54a80002e
:1008dc00044e800004824200e44a8800e54a80000d
:1008ec00c44d800004824200e44a8800e54a80003e
:1008fc00b44d800004824200e44a8800e54a80003e
:10090c00a44d800004824200e44a88000080fa0072
:10091c00000006000a00fa001e0037008e00780066
:10092c00408020009d0c07009e0278008407200068
:10093c008482620004032000848f52000400320081
:10094c00c44d80000402e800c44d8800110037003b
:10095c009e027800044b2100848f520003003a0061
:10096c000e007800160007000a0037009e0278007f
:10097c0004632100848f520003003a000e007800bb
:10098c006800070003003700a44d80000402e80053
:10099c00a44d880040802000320c07000002780033
:1009ac00e00f5200ddff3a0094458000e44d8800d2
:1009bc0054408000f44d88000080fa0000000600ce
:1009cc000400fa00100798001e029000c402900068
:1009dc00050f780004002f009e0262000400260020
:1009ec00848f520004003200b44d80000402e800f1
:1009fc00b44d88001a003700f4ff20001e0f62006f
:100a0c00f40f20009e027800848f520003003e00f9
:100a1c001e0090001400070011003700f41f200086
:100a2c009e027800848f520003003e001e0090004e
:100a3c00240007000a003700f43f20009e027800d3
:100a4c00848f520003003e001e0090003f0d0700f3
:100a5c0003003700b44d80000402e800b44d880058
:100a6c000080fa00000006000400fa00100798004d
:100a7c001e029000c4029000050f7800f4ff2000c5
:100a8c001e0f62001e027800e10f520003003200bc
:100a9c00e30f520003003200040037000000fe0098
:100aac00060037003707070004003700b44d8000fc
:100abc000402e800b44d8800000000000080fa0039
:100acc00000006000400fa00100798001e029000b7
:100adc00c4029000050f7800f4ff20001e0f620086
:100aec001e02900014029000840078001e00780012
:100afc00430a07001e029000a40290001e02e800a8
:100b0c0085007800040078003d0a07000000000012
:100b1c000000000000000000000000000080fa004f
:100b2c00000006000e00fa00600798006e029000ac
:100b3c00c4029000050f780004002f009e02620092
:100b4c0004002600848f520004003200b44d800053
:100b5c000402e800b44d88002e003700f4ff20009a
:100b6c001e0f6200f48f20009e027800848f5200ca
:100b7c0004003600f49f20009e027800848f5200ff
:100b8c0004003600b44d80000402e800b44d880027
:100b9c002000370004802f001e0f420044032a005f
:100bac00140798006e029000c402900004802f007d
:100bbc0004824200540798000002eb00440798009e
:100bcc001e02e80004007800360a070000027800d4
:100bdc00340798001e007800320a070000027800e3
:100bec002407980000000000000000000000000036
:100bfc000e82e80084007800c08a2000cf0b07002a
:100c0c007421800068026200e00f520001003a007b
:100c1c0088c0a8000080fa00000006000000fa005e
:100c2c000080fa00000006000000fa002504800095
:100c3c000404200004826200e00f5200a000320085
:100c4c0084c0a900044080000402e800044088002d
:100c5c00044080006f026200044088009a00070084
:100c6c000440800005002000f60020000700200052
:100c7c00860f5200878f5a0091003e0004600100dd
:100c8c000f00370018003700210037002a0037000a
:100c9c00330037003c003700450037004e0037006a
:100cac0057003700600037006900370072003700ca
:100cbc007b0037007c0037007d0037007e0037005a
:100ccc00f44a8000e74a8000d64a8000c54a80007a
:100cdc008701780006017800850078000000eb00a1
:100cec008e0007007600370024962000140378004d
:100cfc00054b80000002eb008001eb000601780040
:100d0c008500780010002000840007006c0037007c
:100d1c00744b8000674b8000564b8000454b800025
:100d2c0087017800060178008500780020002000fb
:100d3c007a00070062003700b44b8000a74b80009c
:100d4c00964b8000854b8000870178000601780067
:100d5c008500780030002000700007005800370034
:100d6c00f44b8000e74b8000d64b8000c54b8000d5
:100d7c00870178000601780085007800400020008b
:100d8c00660007004e003700344c8000274c800072
:100d9c00164c8000054c8000870178000601780015
:100dac0085007800500020005c00070044003700ec
:100dbc00544d8000474d8000364d8000254d8000fd
:100dcc0087017800060178008500780080002000fb
:100ddc00520007003a003700944d8000874d800088
:100dec00764d8000654d8000870178000601780003
:100dfc008500780090002000480007003000370084
:100e0c00d44d8000c74d8000b64d8000a54d8000ac
:100e1c00870178000601780085007800a00020008a
:100e2c003e00070026003700144e8000074e80005d
:100e3c00f64d8000e54d80008701780006017800b2
:100e4c0085007800b0002000340007001c0037003b
:100e5c00d44c8000c74c8000b64c8000a54c800060
:100e6c00870178000601780085007800600020007a
:100e7c002a00070012003700144d8000074d800037
:100e8c00f64c8000e54c8000870178000601780064
:100e9c008500780070002000200007000800370053
:100eac00460c0700060037004f0c07000400370003
:100ebc00560c070002003700600c07000000000011
:100ecc000080fa00000006000a00fa0044832a00a1
:100edc00040f7800849820001402780014079800fe
:100eec00a49820001402780024079800644c800019
:100efc0034079800744c800044079800e1412000ae
:100f0c000e007800540b0700444d80000402e800ea
:100f1c00444d88000080fa00000006001400fa001e
:100f2c00500798006107980072079800030f98000b
:100f3c00140f98005e0290006f0262005407980034
:100f4c00de0290000406200005027200540798008f
:100f5c005e0290000402420054079800de029000ea
:100f6c000460200005027200540798005e02900095
:100f7c004222dd00540798005e029000040f7800b6
:100f8c009e02780004f02f0004826200040f7800a7
:100f9c001e0278004322dd00040f78009e027800c8
:100fac005e039000f40f200004026300050272003f
:100fbc00040f78001e0a9000140798000e0a900087
:100fcc00240798007e029000340798006e0290006f
:100fdc00440798008e007800c08a2000d70a0700ca
:100fec007421800068026200e00f520001003a0098
:100ffc0088c0a8000080fa00000006000000fa007b
:10100c00250480000408200004826200e00f5200d6
:10101c000700320084e0a900144e80000402e800ae
:10102c00144e8800144e8000145c88008829a80097
:10103c000080fa00000006000000fa001440800056
:10104c00e00f520005003a00444c8000610262003f
:10105c00e00f5200010032009bff0700444c80005f
:10106c00614262000482fb00144088000080fa0098
:10107c00000006000200fa00000f7800449c2000db
:10108c009e02780095029000050a78001e027800f6
:10109c00a4029000449c2000150298001e027800c7
:1010ac00b4029000449c200025029800449c20002f
:1010bc008082eb00350298000060fe008829a900b0
:1010cc000002eb00540888000080fa0000000600c3
:1010dc000000fa00043a800061026200e00f520046
:1010ec0004003a00043a800062026200e00f5200f1
:1010fc00050032000002eb00045c88000002eb00eb
:10110c00145c880003003700045c80000402e800d3
:10111c00045c8800449c20008002eb00050a7800e7
:10112c00449c20001500200015029800449c2000cf
:10113c002500200025029800449c2000350020004a
:10114c00350298004007a9004027a90040c7a90014
:10115c0040e7a90041e7a9004087a90041c7a900c1
:10116c00045c8000044b8800145c8000144e8800e2
:10117c0090c0a90088c0a900340580000480a1009b
:10118c000490a10004a0a000340588000002eb002c
:10119c00b42288005804a8005824a8005844a80079
:1011ac0058a4a80040802000b50a0700c08a20007f
:1011bc00b30a0700044020008422880000000000cd
:1011cc0085228000040e2000848262000408200026
:1011dc00848f5200faff3a001400200094228800f9
:1011ec00a4392000a422880014802100841f8800c8
:1011fc00d4872100c41f88000002eb00041e880065
:10120c0004802000441e880004032100841e8800f2
:10121c00c47f2100c41e8800c47f2100041f8800e5
:10122c00c47f2100441f8800140020007421880012
:10123c0024002000f4208800340020007420880052
:10124c00040c200024218800040c2000a420880019
:10125c00040c2000242088000002eb00742288007b
:10126c000002eb00f42188000002eb0084228800cd
:10127c000000000085228000040e20000482620021
:10128c00e00f5200fbff3a0090c0a80054fb250071
:10129c008408880024f42000640888000002eb0015
:1012ac003408880084c0a9008cc0a90011e1a800f2
:1012bc00d4fb25009408880054622200740888002e
:1012cc0084e0a9008ce0a90013e1a8000002eb0067
:1012dc00a44c880004d82800b44c88000002eb0011
:1012ec00c44c880034042000d44c880044062000f0
:1012fc00e44c88000080fa00000006003600f8007c
:10130c00809fbe00829fbe00849fbe00869fbe0051
:10131c00889fbe004400f8004200f8000a00fa0062
:10132c0088c0a900944d80000402e800944d880008
:10133c00752280000408200004826200e00f520035
:10134c00240032007422800061026200e00f52001f
:10135c000f003a00644d80000402e800644d8800e0
:10136c00e14420000e007800280280001902800061
:10137c00de09070019028800280288003e0290004e
:10138c00a44a88004e029000b44a8800100037002e
:10139c00744d80000402e800744d8800e144200084
:1013ac000e0078002802800019028000cf09070087
:1013bc0019028800280288000e007800280280009c
:1013cc00190280002bff07001902880028028800f0
:1013dc005604a900f5218000040820000482620054
:1013ec00e00f52000b003200844d80000402e80034
:1013fc00844d8800e14320004080200028028000ba
:10140c00190280009c090700190288002802880034
:10141c005624a9007421800068026200e00f52007b
:10142c0014003a00c08a20002802800019028000b3
:10143c008c09070019028800280288000002780035
:10144c00e00f52000b003200e1422000c08a200065
:10145c002802800019028000e9090700190288009f
:10146c00280288005644a900d44d80000402e800ec
:10147c00d44d8800b5228000040220000482620052
:10148c00e00f520005003200344d80000402e800e9
:10149c00344d880056a4a90007003700841680003c
:1014ac0070026200e00f520002003200d082a900ec
:1014bc0001003700d082a800d4228000244d88007f
:1014cc000080fa004200f9004400f9004f04be000d
:1014dc004f03be004f02be004f01be004f00be00c6
:1014ec003600f900004006000000fa00040120005c
:1014fc00545b880001000700feff37000000fa0073
:10150c00545b8000f00f52000400320005032000f1
:10151c00850f52000500320007003700ad000700b0
:10152c0004032000545b8800060037000700070006
:10153c00d7fc07000300370004012000545b88002f
:10154c00000000000080fa00000006000200fa0013
:10155c00350480000404200004826200e00f520075
:10156c009a00320086c0a900c09f20009603070095
:10157c0000a220009403070040a42000920307005f
:10158c00c456800004007800d90a070000027800d5
:10159c00d4568800a455800004007800d40a0700b3
:1015ac0000027800b4558800b41680007002620006
:1015bc00e00f520002003200d682a9000100370071
:1015cc00d682a80080af20007f030700449c200037
:1015dc001402780061026200e00f52000300320036
:1015ec00a49820008002eb00050a7800444c80008f
:1015fc0061026200e00f520002003200d062a900ca
:10160c0001003700d062a800441680004d22de0095
:10161c00614262000482fb00040f78001e02780015
:10162c00e10f520002003a008ac9a80001003700fd
:10163c008ac9a900b555800034272700848f520031
:10164c000600360080af2000ac03070000027800d3
:10165c00e00f5200010032008b89a800554c80002d
:10166c000400210004826200e00f520005003200e9
:10167c00f557800004fa2000848f520001003600d8
:10168c008b89a900c09f20009c03070000027800f2
:10169c00e00f5200020032008a29a8000100370036
:1016ac008a29a90000a220009403070000027800f8
:1016bc00e00f5200020032008a89a80001003700b6
:1016cc008a89a90040a420008c030700000278003e
:1016dc00e00f5200020032008a69a80001003700b6
:1016ec008a69a90040ad200076030700000278004b
:1016fc00e00f5200020032008ae9a8000100370016
:10170c008ae9a90000ab20006e03070000027800f4
:10171c00e00f5200020032008b09a80001003700d4
:10172c008b09a90000ab20007403070000027800ad
:10173c00e00f5200020032008b29a8000100370094
:10174c008b29a90045168000040022000482620047
:10175c00e00f5200020032008ac9a80001003700d5
:10176c008ac9a900544c800062026200e00f52004a
:10177c00020032008809a800010037008809a9007e
:10178c000a080700445b80008400780000212000d8
:10179c001b07070014508000c44b88003451800094
:1017ac00d44b880054528000e44b8800b455800020
:1017bc00f44b8800f4578000044c8800345b8000a4
:1017cc00144c8800445b8000344c88000080fa0084
:1017dc00000006000000fa000002eb00044d880037
:1017ec000002eb00f44c880054002000144d8800db
:1017fc00a48a2000245088000002eb00345088009a
:10180c0004002800445088000002eb00545088006b
:10181c0004002800645088000002eb00745088001b
:10182c00a48a2000445188000002eb005451880027
:10183c0004002800645188000002eb0074518800f9
:10184c0004002800845188000002eb0094518800a9
:10185c00a48a2000645288000002eb0074528800b5
:10186c0004002800845288000002eb009452880087
:10187c0004002800a45288000002eb00b452880037
:10188c00a48a2000845388000002eb009453880043
:10189c0004002800a45388000002eb00b453880015
:1018ac0004002800c45388000002eb00d4538800c5
:1018bc0004002100c45588000002eb00d4558800b8
:1018cc0004002800e45588000002eb00f455880061
:1018dc0004002800045688000002eb00145688000f
:1018ec0004002100e45688000002eb00f456880046
:1018fc0004002800045788000002eb0014578800ed
:10190c0004002800245788000002eb00345788009c
:10191c00043d200004588800a4702d001458880041
:10192c0004002800245888000002eb00345888007a
:10193c0004002800445888000002eb00545888002a
:10194c0004802000045a88000002eb00145a88001e
:10195c0004002800245a88000002eb00345a880046
:10196c0004002800445a88000002eb00545a8800f6
:10197c0004002100a459880014002000c4598800d8
:10198c0004802000445988000002eb005459880060
:10199c0004002800645988000002eb007459880088
:1019ac0004002800845988000002eb009459880038
:1019bc0004f42100e4588800140020000459880025
:1019cc0004802000c45a88000002eb00d45a88001e
:1019dc0004002800e45a88000002eb00f45a880046
:1019ec0004002800045b88000002eb00145b8800f4
:1019fc0004002100645a880014002000845a8800d6
:101a0c0000212000a706070000027800445b880034
:101a1c00a49820008002eb00050a78000002eb007d
:101a2c00644c88000002eb00744c880084c32700cf
:101a3c00445788000485270024568800047d200024
:101a4c009450880054582200b451880054582200f5
:101a5c00d452880084ed20007458880004002400bf
:101a6c0065002000644e8800754e8800040220003a
:101a7c00a5002000844e8800954e880024c0b30039
:101a8c0004007800d4e9b700f4532000b44e880069
:101a9c000002eb00c44e880004002a00d44e8800db
:101aac0004242400f5002000e44e8800f54e880044
:101abc000468290085092000044f8800154f880010
:101acc000400280065002000244f8800354f880052
:101adc0004022000a5002000444f8800554f8800c8
:101aec00449d20001442780004007800ece9b70013
:101afc00b44e8000744f8800c44e8000844f880020
:101b0c00d44e8000944f8800e44e8000f54e800047
:101b1c00a44f8800b54f8800044f8000154f8000fb
:101b2c00c44f8800d54f8800c09c2000590807007e
:101b3c00409e200057080700c0b12000f4010700a8
:101b4c00f45880000401780001002100c09c2000a2
:101b5c0075080700c0b42000ed010700745a80001e
:101b6c000401780001002900c09c20006e080700c9
:101b7c0040b32000e6010700b4598000040178004e
:101b8c0001002100409e20006708070034058000fa
:101b9c000400a0000410a0000420a000340588005c
:101bac008220a900c404800004c0a10004d0a000bd
:101bbc0004e0a000c404880004002f000416880070
:101bcc000082eb00341688000002eb0064168800db
:101bdc0004002c009416880004022000f4168800df
:101bec003416200024178800d4f92d00040988002d
:101bfc000002eb00c408880086c0a900440d230035
:101c0c00e4088800f4cf270004158800e4fd2000c8
:101c1c001415880084442e0024158800242e2e00d0
:101c2c003415880034002f0044158800c477200038
:101c3c00541588008560a9008d60a800a1e2a80059
:101c4c0023fd070000242400f10020006d0907008b
:101c5c000060fe00d082a80000242400f1002000c7
:101c6c00680907000060fe00d062a8000024240070
:101c7c00f1002000630907000060fe00d042a800bc
:101c8c0000242400f10020005e0907000060fe0023
:101c9c00d022a80000242400f100200059090700dc
:101cac000060fe00e9e2a80000242400f1002000fe
:101cbc00540907000060fe00e9a2a80000242400db
:101ccc00f10020004f0907000060fe00e982a80027
:101cdc000080fa0000000600801f7800849fbe0080
:101cec00869fbe000000fa008560a90015158000d3
:101cfc000408200004826200e00f52003100320020
:101d0c00e64f8000f74f800004148000050020008f
:101d1c000602420087824a00e44f8800f54f880093
:101d2c00065180001751800014148000050020001b
:101d3c000602420087824a0004518800155188002f
:101d4c0026528000375280002414800005002000a9
:101d5c000602420087824a002452880035528800cd
:101d6c008655800097558000541480000500200093
:101d7c000602420087824a008455880095558800e7
:101d8c00a6568000b7568000641480000500200021
:101d9c000602420087824a00a4568800b556880085
:101dac00c6578000d75780007414800005002000af
:101dbc000602420087824a00c4578800d557880023
:101dcc0030003700e64f8000f74f8000841480000d
:101ddc00050020000602420087824a00e44f88007a
:101dec00f54f880006518000175180009414800034
:101dfc00050020000602420087824a000451880038
:101e0c00155188002652800037528000a41480009f
:101e1c00050020000602420087824a0024528800f6
:101e2c00355288008655800097558000d414800068
:101e3c00050020000602420087824a008455880073
:101e4c0095558800a6568000b7568000e414800093
:101e5c00050020000602420087824a00a456880032
:101e6c00b5568800c6578000d7578000f414800000
:101e7c00050020000602420087824a00c4578800f1
:101e8c00d557880014148000544b8800241480000b
:101e9c00644b880034148000744b88004414800018
:101eac00844b880054148000944b88006414800088
:101ebc00a44b880074148000b44b8800245b800011
:101ecc000402e800245b8800255b8000f4072000f6
:101edc00848f52005c003600e44f8000f54f800088
:101eec004d2bdd004322de0004027300c32ade000a
:101efc00e44f8800f54f8800e44f8000f54f8000d8
:101f0c0004027800045088006022b800e44f880076
:101f1c00f54f880004518000155180004d2bdd00d9
:101f2c004322de0004027300c32ade000451880041
:101f3c00155188000451800015518000040278006e
:101f4c00245188006022b800045188001551880083
:101f5c0024528000355280004d2bdd004322de00e0
:101f6c0004027300c32ade00245288003552880014
:101f7c0024528000355280000402780044528800bc
:101f8c006022b800245288003552880084558000a5
:101f9c00955580004d2bdd004322de0004027300ba
:101fac00c32ade008455880095558800845580002e
:101fbc009555800004027800a45588006022b80072
:101fcc008455880095558800a4568000b55680002d
:101fdc004d2bdd004322de0004027300c32ade0019
:101fec00a4568800b5568800a4568000b5568000cb
:101ffc0004027800c45688006022b800a4568800f9
:10200c00b5568800c4578000d55780004d2bdd0095
:10201c004322de0004027300c32ade00c45788008a
:10202c00d5578800c4578000d5578000040278002b
:10203c00e45788006022b800c4578800d557880040
:10204c000002eb00245b88000080fa004f03be0006
:10205c004f02be004f007800004006001200fa004c
:10206c00100798002107980032079800034f98003a
:10207c00540798006507980076079800070f98009a
:10208c000002eb00040f78001e0390006022b800e1
:10209c00048bbe001e0290008002eb00250298000b
:1020ac001e0290008002eb00350298001e02900088
:1020bc00ae029000450298001e029000be029000f5
:1020cc00550298000e4a9000ef4f52000d0036005a
:1020dc001e02900005002800650298001e02900068
:1020ec008002eb00750298001e029000050028008b
:1020fc00050a98001e0290008002eb00150a980059
:10210c001f0037000e4a90000482fb000404b0004c
:10211c004222dd00040f78001e007800e104070065
:10212c0000027800840278001e029000750298006c
:10213c001e02e80004007800da04070000027800b0
:10214c009e029000e40298001e82e80004007800d1
:10215c00d404070000027800840278001e0290006c
:10216c00150a98009e0278006382420004007800f1
:10217c00cc040700000278009e029000840a9800ac
:10218c001e029000de029000250a98001e029000ac
:10219c00ee029000350a98001e029000fe0290009c
:1021ac00550a98001e0290008e0a9000650a98004d
:1021bc001e0290008002eb00750a98001e0290002f
:1021cc008002eb00051298001e029000ceba970018
:1021dc00151298000080fa00000006001000fa00aa
:1021ec00100798002107980032079800034f9800b9
:1021fc005407980065079800760798000002eb00da
:10220c00040f78001e0290008002eb00250298005b
:10221c001e029000de029000350298001e02900013
:10222c00ee029000450298001e029000fe02900003
:10223c00550298001e029000ae02900065029800b4
:10224c001e029000be029000750298000e4a90008b
:10225c00e74f52000d0036001e02900005002800ca
:10226c00050a98001e0290008002eb00150a9800e7
:10227c001e02900005002800250a98001e029000fe
:10228c008002eb00350a98001f0037000e4a9000c0
:10229c000482fb000405b0004222dd00040f78002c
:1022ac001e0078007f04070000027800840278008a
:1022bc001e029000150a98001e02e8000400780027
:1022cc0078040700000278009e029000840a9800af
:1022dc001e82e800040078007204070000027800f7
:1022ec00840278001e029000350a98009e02780045
:1022fc0063824200040078006a0407000002780040
:10230c009e029000a40a98000080fa0000000600cb
:10231c000400fa00100798001e029000740390004d
:10232c001e029000e40290001e029000140278003d
:10233c000601780085007800040078005707070034
:10234c0000027800040f78001e029000940a90009e
:10235c001e029000040a90000501780084007800a9
:10236c001e0078003807070000027800040f780080
:10237c001e029000b40a90001e029000240a9000e5
:10238c0005017800840078001e0078002e070700f5
:10239c0000027800040f78001e02900024029000c6
:1023ac00e00f520003003a001e029000d40290008d
:1023bc00050f78001e0290009e027800150298000e
:1023cc000080fa00000006000400fa0010079800d4
:1023dc001e029000140b90001e029000840a9000c4
:1023ec001e029000240290000601780085007800ff
:1023fc00040078001407070000027800040f78002e
:10240c001e029000f40290001e02900064029000e4
:10241c0005017800840078001e0078000a07070088
:10242c0000027800040f78001e029000d402900085
:10243c001e02900044029000050178008400780090
:10244c001e0078001507070000027800040f7800c2
:10245c001e0290009e027800350298000080fa005f
:10246c00000006000400fa00000f78001107980025
:10247c001e027800b40290001e029000848f52005d
:10248c00030031001e027800b4029000150798007a
:10249c001e027800c40290001e029000848f52002d
:1024ac00030036001e027800c40290001507980045
:1024bc001e0278009e029000050a78000080fa0047
:1024cc00000006000200fa00000f78001e027800df
:1024dc00b40290001e027800240a9000848f5200ef
:1024ec000200360014002000010037000002eb004f
:1024fc00040078000080fa00000006000200fa00d8
:10250c00000f78001e027800b40290001e027800c2
:10251c00340a9000848f5200020031001400200015
:10252c00010037000002eb00040078000080fa0084
:10253c00000006000400fa00100798001e0290002c
:10254c00d40a90001e029000440a90000001eb0097
:10255c008500780004007800bb06070000027800b4
:10256c00040f78001e029000640a90009e0f520027
:10257c00030036001e029000e40a9000050f78005c
:10258c0004f02f009e0252001e029000440a90009c
:10259c00848f5200040036001e029000440a900002
:1025ac001e0f42000200370004f02f00040f7800c9
:1025bc001e029000340290009e0f5200060036005e
:1025cc001e029000740a90008402e8001e02900023
:1025dc00750a9800090037001e029000740a9000da
:1025ec00e00f5200050032001e029000740a9000a9
:1025fc008402e9001e029000750a98001e029000e9
:10260c00f40a90001e02900014129000848f520065
:10261c000f0039001e029000f40a90001e02900078
:10262c001412900004024200848f520006003900fc
:10263c001e029000141290000402420084027800e2
:10264c001e029000750a980014002000010037004b
:10265c000002eb00040078000080fa000000060085
:10266c000400fa00100798001e029000d40a900093
:10267c001e029000440a90000001eb0085007800d7
:10268c00040078007006070000027800040f780040
:10269c001e029000640a90009e0f52000300360048
:1026ac001e029000e40a9000050f78001e029000b4
:1026bc00440a90009e0f5200040036001e02900047
:1026cc00440a90001e0f5200020037000002eb007b
:1026dc00040f78001e029000340290009e0f5200ee
:1026ec00060031001e029000041290008402e800e3
:1026fc001e02900005129800090037001e0290007f
:10270c0004129000e00f5200050032001e029000ef
:10271c00041290008402e9001e0290000512980039
:10272c001e029000841290001e0290001412900061
:10273c00848f52000f0039001e029000841290000a
:10274c001e0290001412900004024200848f52006a
:10275c00060039001e029000141290000402420080
:10276c00840278001e0290000512980014002000cc
:10277c00010037000002eb00040078000080fa0032
:10278c00000006000000fa00e240280001012000d1
:10279c000001200067030700e2402800010120002f
:1027ac001001200063030700e24028000101200013
:1027bc00200120005f030700e240280001012000f7
:1027cc00300120005b030700e240280001012000db
:1027dc004001200057030700e240280001012000bf
:1027ec005001200053030700e242280001012000a1
:1027fc00600120004f030700e24228000101200085
:10280c00700120004b0307000080fa000000060056
:10281c001400fa00404798003107980042079800ce
:10282c00530798006407980075079800060f9800e6
:10283c00170f98003e029000f401b3003407980083
:10284c000e0b90009e0b9000463add00ca32de0063
:10285c00850272004632dd006e019000fe01900090
:10286c000400be00daf607000002be00048fbe00b2
:10287c0004202000050020001e03be00840f53001e
:10288c00858f5b0003003e0014002000645b880011
:10289c003200370034802000050020001e03be00eb
:1028ac00840f5300858f5b000d003e004400200018
:1028bc00645b88001e02be004e2bdd004222de004f
:1028cc0004027300c22ade00048fbe00be02900018
:1028dc00e4ff2f0004826200340798001f003700c9
:1028ec00f4002200050020001e03be00840f5300dc
:1028fc00858f5b000d003e0004012000645b8800a6
:10290c001e02be004c2bdd004422de0004027300cc
:10291c00c42ade00048fbe00be029000d4ff2f003c
:10292c0004826200340798000c0037000404200075
:10293c00645b88001e02be004a2bdd004622de00ce
:10294c0004027300c62ade00048fbe00be02900093
:10295c00c4ff2f000482620034079800041c20007e
:10296c00050020001e03be00840f5300858f5b0002
:10297c0008003600645b80004322dd00645b880045
:10298c00be02900034fe2f000482620034079800cf
:10299c005700370004182000050020001e03be005d
:1029ac00840f5300858f5b0009003600645b800048
:1029bc006722b90004027800645b8800be029000b4
:1029cc0074fe2f0004826200340798004800370020
:1029dc0004142000050020001e03be00840f5300c9
:1029ec00858f5b0009003600645b80006622b900ad
:1029fc0004027800645b8800be029000b4fe2f00d5
:102a0c00048262003407980039003700041020005b
:102a1c00050020001e03be00840f5300858f5b0051
:102a2c0009003600645b80006522b900040278005e
:102a3c00645b8800be029000f4fe2f0004826200ea
:102a4c00340798002a003700040c200005002000f1
:102a5c001e03be00840f5300858f5b0008003600f8
:102a6c00645b80004222dd00645b8800be02900043
:102a7c0034ff2f0004826200340798001c003700da
:102a8c0004082000050020001e03be00840f530024
:102a9c00858f5b0009003600645b80006322b900ff
:102aac0004027800645b8800be02900074ff2f0063
:102abc0004826200340798000d00370004042000e3
:102acc00050020001e03be00840f5300858f5b00a1
:102adc0007003600645b800004024200645b8800df
:102aec00be029000b4ff2f000482620034079800ed
:102afc00645b80004222dd00645b88004e429000e3
:102b0c00e14f520004003a003e029000141188007c
:102b1c005e039000061188004e429000e24f520076
:102b2c0004003a003e029000441188005e039000bd
:102b3c00361188000080fa00000006000c00fa0034
:102b4c0040079800214f98000042eb00044f78009a
:102b5c002e4a9000e14f520054003a008500a90023
:102b6c004e029000241188000002eb0034079800fc
:102b7c00180037003e0290000402e8003407980069
:102b8c00645b8000be029000848f5200030036000c
:102b9c0034c0b300044f78000e00370005118000dc
:102bac000404200004826200e00f52000300320093
:102bbc0044c0b300044f78000600370004118000b5
:102bcc0062026200e00f520002003a0014c0b3002f
:102bdc00044f78001e427800e04f5200e5ff3200af
:102bec00200037003e0290000402e80034079800f1
:102bfc00645b8000be029000848f5200030036009c
:102c0c0034c0b300044f7800160037000511800063
:102c1c000404200004826200e00f52000300320022
:102c2c0044c0b300044f78000e0037002504800028
:102c3c000410200004826200e00f520003003200f6
:102c4c0024c0b300044f7800060037000411800044
:102c5c0061026200e00f52000200320024c0b30097
:102c6c00044f78001e427800e14f5200ddff320025
:102c7c001e427800e24f520005003a0024118000f9
:102c8c00050020001407980025079800070037005e
:102c9c000400200015112100140798002507980046
:102cac00745b80000402e800745b88002e4a90007c
:102cbc00e24f52004d003a008740a9004e029000ae
:102ccc00541188000002eb003407980018003700fc
:102cdc003e0290000402e80034079800645b800018
:102cec00be029000848f52000300360034c0b30043
:102cfc00044f78000e0037003511800004042000ca
:102d0c0004826200e00f52000300320044c0b300a2
:102d1c00044f780006003700341180006202620014
:102d2c00e00f520002003a0014c0b300044f7800c8
:102d3c001e427800e04f5200e5ff320019003700c8
:102d4c003e0290000402e80034079800645b8000a7
:102d5c00be029000848f52000300360034c0b300d2
:102d6c00044f78000f003700351180000404200058
:102d7c0004826200e00f52000300320044c0b30032
:102d8c00044f780007003700350480000440200011
:102d9c0004826200e00f52000200320024c0b30033
:102dac00044f78001e427800e14f5200e4ff3200dd
:102dbc001e427800e24f520005003a005411800088
:102dcc00050020001407980025079800070037001d
:102ddc000400200015112100140798002507980005
:102dec00845b80000402e800845b88001e02900073
:102dfc00ae0290000400be000080fa000000060045
:102e0c001400fa00404798003107980042079800d8
:102e1c00530798006407980075079800060f9800f0
:102e2c00170f98004e019000de0190006e0090008c
:102e3c00fe00900066f507000002be00048fbe0085
:102e4c001e0278004422dd00d45b88006e029000e4
:102e5c00fe02900052cd2d00230320000400be0082
:102e6c005bf507000002be001e1f12001e971a0021
:102e7c000082eb008082eb001e0f42005e974a003e
:102e8c001e03be001400200005002000840f530018
:102e9c00858f5b0003003e0024002000050020000d
:102eac00048fbe00f4ff2f00050020001e03be009f
:102ebc00840f5300858f5b00030036002400200034
:102ecc0005002000048fbe004e429000e04f5200df
:102edc00030032004e429000e14f520004003a00d1
:102eec00be029000351088001e0278002410880065
:102efc000080fa00000006000600fa004047980027
:102f0c000002eb00140798004e429000e04f520074
:102f1c00030032004e429000e14f520013003a0081
:102f2c000002eb00040f78000b0037001e0fe800c6
:102f3c00d45b80009e027800848f5200060036001d
:102f4c000410200014079800c45b80000402e80001
:102f5c00c45b880005003700451080000400240085
:102f6c0004826200e00f5200f0ff3a001e02900053
:102f7c00040078000080fa00000006000600fa0049
:102f8c00404798000002eb00140798004e42900056
:102f9c00e04f5200030032004e429000e14f5200cd
:102fac0013003a000602a8000002eb00040f7800a0
:102fbc000b0037001e0fe800d45b80009e027800e7
:102fcc00848f52000600360004202000140798005d
:102fdc00c45b80000402e800c45b88000400370076
:102fec003410800061026200e00f5200f1ff3a00e1
:102ffc001e029000040078000080fa000000060019
:10300c000600fa00404798000002eb0014079800f5
:10301c004e429000e04f5200030032004e429000ae
:10302c00e14f520013003a000622a8000002eb0008
:10303c00040f78000b0037001e0fe800d45b8000f3
:10304c009e027800848f5200060036000440200057
:10305c0014079800c45b80000402e800c45b88007d
:10306c00040037003410800062026200e00f52004e
:10307c00f1ff3a001e029000040078000080fa0074
:10308c00000006000600fa004047980051479800df
:10309c000002eb00140798005e429000e04f5200d3
:1030ac00030032005e429000e14f520028003a00cb
:1030bc004e4290000482fb00141088000002eb00ca
:1030cc00040f78000c0037001e0fe800d45b800062
:1030dc009e027800848f5200070036000480200086
:1030ec0014079800c45b80000402e800c45b8800ed
:1030fc00000000001100370045108000040024007f
:10310c0004826200e00f5200efff32000b00370028
:10311c001e0fe800d45b80009e027800848f520062
:10312c00060036000480200014079800c45b800061
:10313c000402e800c45b88000500370045108000dd
:10314c000400240004826200e00f5200f0ff3a00f9
:10315c001e029000040078000080fa0000000600b7
:10316c000600fa00404798000002eb001407980094
:10317c004e429000e04f5200030032004e4290004d
:10318c00e14f52002b003a000662a8000002eb004f
:10319c00040f78000c0037001e0fe800d45b800091
:1031ac009e027800848f5200070036000400210034
:1031bc0014079800c45b80000402e800c45b88001c
:1031cc00000000001000370034108000680262001c
:1031dc00e00f5200f0ff3a000b0037001e0fe80022
:1031ec00d45b80009e027800848f5200060036006b
:1031fc000400210014079800c45b80000402e8005e
:10320c00c45b880004003700441080006202620036
:10321c00e00f5200f1ff32001e029000e00f52004e
:10322c0004003a0005108000f40f200004826200b4
:10323c00140798001e029000040078000080fa0029
:10324c00000006000600fa00404798000002eb0060
:10325c00140798004e429000e04f520003003200d9
:10326c004e429000e14f520013003a000642a80073
:10327c000002eb00040f78000b0037001e0fe80073
:10328c00d45b80009e027800848f520006003600ca
:10329c000400220014079800c45b80000402e800bc
:1032ac00c45b8800040037003410800064026200a4
:1032bc00e00f5200f1ff3a001e029000040078006b
:1032cc000080fa00000006000600fa004047980053
:1032dc000002eb00040f78000002eb0014079800ca
:1032ec004e429000e04f5200030032004e429000dc
:1032fc00e14f520012003a0006a2a9000682a80073
:10330c000b0037001e0fe800d45b80009e02780093
:10331c00848f520006003600040024001407980025
:10332c00c45b80000402e800c45b88000400370022
:10333c003410800070026200e00f5200f1ff3a007e
:10334c001e029000040078000080fa0000000600c5
:10335c000600fa00404798000002eb00040f7800ca
:10336c000002eb00140798004e429000e04f520010
:10337c00030032004e429000e14f520012003a001e
:10338c0006a2a8000682a8000b0037001e0fe8005a
:10339c00d45b80009e027800848f520006003600b9
:1033ac000400280014079800c45b80000402e800a5
:1033bc00c45b880004003700341080007002620087
:1033cc00e00f5200f1ff3a001e029000040078005a
:1033dc000080fa00000006000c00fa00000f7800d4
:1033ec0012079800230798003407980045079800a7
:1033fc00214f9800364f98000080fa00000006001c
:10340c000800fa002007980031079800ae029000df
:10341c00f47f2000848f520020003e0004002f0017
:10342c00f5072000048fbe00053b80000400280037
:10343c0004826200e00f5200fbff3a002e02900063
:10344c0004024200050020003e014200ae814a0009
:10345c000202be00220020000400be00b4f30700ec
:10346c00053b80000400280004826200e00f52003b
:10347c00fbff3a003e0390002e0290000402420033
:10348c00050020003e014200ae814a000202be004f
:10349c00060178000400be00bef307000080fa00ad
:1034ac00000006000200fa00000f7800f67f2000f2
:1034bc009e037800868f53001a003e00073b800065
:1034cc000600280006836300e00f5300fbff3a0060
:1034dc001e037800060343006133b90004002f007b
:1034ec00f50f20008600d0000401d00002824000bd
:1034fc004220a80085824b004200a9004220ae0069
:10350c004200a8000482d300a60180008503780045
:10351c00a70188000402780014027800a601880034
:10352c00010037000082eb00040078000080fa00f4
:10353c00000006002a00fa002017980031179800a6
:10354c00421798004e12900014027800240798003d
:10355c004e1290000482e8001402780034079800a0
:10356c004e12900064024200140278004407980046
:10357c004e12900066024200140278005407980024
:10358c004e12900068024200140278006407980002
:10359c004e1290006a0242001402780074079800e0
:1035ac004e1290006c02420014027800040f980036
:1035bc004e1290006e02420014027800140f980014
:1035cc004e1290007002420014027800240f9800f2
:1035dc004e1290007202420014027800340f9800d0
:1035ec004e1290007402420014027800440f9800ae
:1035fc004e1290007602420014027800540f98008c
:10360c004e1290007802420014027800640f980069
:10361c004e1290007a02420014027800740f980047
:10362c004e1290007c02420014027800041798009d
:10363c004e1290007e02420014027800141798007b
:10364c00ae129000f4072000848f520019003e0047
:10365c0004002f00f5072000048fbe002e129000ee
:10366c004522dd00050020001e0f42005e974a0037
:10367c00053b80000400280004826200e00f520029
:10368c00fbff3a00020220001e00be0028f30700d8
:10369c00053b80000400280004826200e00f520009
:1036ac00fbff3a0064024700040178001e00be00d4
:1036bc003ef307000080fa00000006000a00fa0042
:1036cc002007980031079800420798002e039000bd
:1036dc004433dd0016079800073b800006002800e5
:1036ec0006836300e00f5300fbff3a003e0390009b
:1036fc00e00f53002b0032003e039000f00f5300fc
:10370c00020036000601200036079800ae03900038
:10371c00f6072000868f530022003e000003eb00ca
:10372c00060f78001b0037001e03780006034300c9
:10373c00ce039000068043001e0390001e0343003e
:10374c00060343006133b90004002f00f50f20007d
:10375c008600d0000401d000028340004220a80063
:10376c0085834b004200a9004220ae004200a80015
:10377c000683d300a101800007017800a201880014
:10378c000603780016037800a1018800060878006b
:10379c001e0fe8003e0390009e037800868f5300b6
:1037ac00e1ff39000080fa00000006000000fa007a
:1037bc00a45b8000244c8800b5558000342727007a
:1037cc00848f52000c0036008b29a900f55780001d
:1037dc0034e72000848f520002003e008b89a80041
:1037ec0005003700f5578000f4f92000848f520053
:1037fc00010036008b89a900345c80006123b8007d
:10380c000082eb008082eb000602420087824a00b5
:10381c003600200007002000860f5200878f5a00c8
:10382c0071003e00046001000300370018003700ef
:10383c003a00370061003700d602a900b555800068
:10384c0034272700848f520069003600f55780001a
:10385c00f4f92000848f52000a003e00f5578000d6
:10386c0084bb2000848f520003003e00a45b8000c8
:10387c00e00f52000300320024002000345c88006a
:10388c00640037000002eb00945b88006100370095
:10389c00d602a800945b80000402e800945b8800c8
:1038ac00955b8000341f2000848f5200520036003c
:1038bc0034002000345c88000002eb00945b88002c
:1038cc00345b80000402e800345b8800445b8000b9
:1038dc00e00f520008003200455b8000b42b200042
:1038ec00848f520004003e00445b80000402e90017
:1038fc00445b8800020037000002eb00445b880048
:10390c00a45b8000e00f52003d003200a45b8000fd
:10391c000402e900a45b88003e003700d602a9002f
:10392c00945b80000402e800945b8800345b8000a8
:10393c00f80f52000a003600f5578000f4f9200009
:10394c00848f52000300360014002000345c880081
:10395c003000370044002000345c88002d00370014
:10396c00f557800074062100848f52000300360046
:10397c0014002000345c880026003700955b800022
:10398c00441f2000848f52001f0036000002eb0001
:10399c00945b8800f557800074bb2000848f520024
:1039ac0003003e0014002000345c8800190037002e
:1039bc0024002000345c880016003700d602a900d1
:1039cc00b45b8000e00f52001100320014002000a4
:1039dc00345c88000002eb00345b88000002eb00d2
:1039ec00b45b88000b0037000000000009003700b2
:1039fc000000000007003700000000000500370041
:103a0c000000000003003700000000000100370038
:103a1c00000000000080fa00000006000000fa0020
:103a2c0094012000a45b88000002eb00345b88004a
:103a3c000080fa00000006000000fa0014002000cc
:103a4c00b45b88000080fa000000060010019000b2
:103a5c0090007800010051000000e900f000b20075
:103a6c0000000600100190009000780002805000c9
:103a7c00f000b200000006001170a6001a0037001a
:103a8c00e40140009309e800900190001001e80067
:103a9c00f200b2000310e1001000320010017800b7
:103aac006a11b800e8014000828141006e8150002b
:103abc009219780066014100b2197800b2197800a9
:103acc00b2197800b21978001001e800f200b200c7
:103adc0002087800e60140009309e900e601400085
:103aec009309e8001170a100000006001170a600f7
:103afc00090037006e8150001218780066014100f1
:103b0c0032187800321878003218780032187800a1
:103b1c001170a10008003700827f21000218780084
:103b2c0002002000021878000218780002187800b1
:103b3c00021878003100370000000600e401400054
:103b4c009309e800900190001001e800f200b20027
:103b5c000310e1000e003200100178006a11b80069
:103b6c00e801400082814100b1197800b119780058
:103b7c00b1197800b1197800b11978001001e8007a
:103b8c00f200b20002087800e60140009309e90057
:103b9c00e60140009309e8000000060010019000c7
:103bac00900178000310e10008003a00837f2100a7
:103bbc00831878000300200083187800831878009d
:103bcc0083187800831878000c0037006a11b8004d
:103bdc006801410000014100b2187800b218780069
:103bec00b2187800b2187800b21878001001900062
:103bfc000201e800f200b20012009800000006007a
:103c0c001130a700130037001001900090017800cc
:103c1c000310e1000f0032006a11b8006801410086
:103c2c0000014100ee815000b2097800e6814100ac
:103c3c00b2197800b2197800b2197800b21978006c
:103c4c001130a000100190000201e800f200b20057
:103c5c0012009800000006001130a1006e81500087
:103c6c00300978006601410030197800301978006d
:103c7c0030197800301978001130a00000000600cf
:103c8c000018eb000018eb000018eb000008eb002c
:103c9c00000006000200fa00000f78001e027800f7
:103cac00b4029000240290000400be0061000700e2
:103cbc001e0278001402be000400be005d00070066
:103ccc001e027800b4029000240290000400be0092
:103cdc008c0007001e0278001402be000400be0017
:103cec00880007001e027800240b9000b40b900093
:103cfc001e027800940a9000040a90001e007800be
:103d0c00f00190001e007800600190001e00780009
:103d1c00d00090001e00780000489000bcfa07000c
:103d2c000080fa00000006000c00fa003007980032
:103d3c004107980052079800de029000f4ff200023
:103d4c000482620054079800ce02900004002f00f9
:103d5c000482620044079800ce0290005e0290003c
:103d6c0005027200440798000042eb00044f7800f3
:103d7c003e0290001402be000400be003e0007008c
:103d8c003e029000044a9000844078004e0090005f
:103d9c006afb07000002be00140798002507980074
:103dac001e039000ae0390000400200015112100aa
:103dbc00840f5300858f5b0002003a0014c0b300df
:103dcc00044f78003e0290001402be000400be00b6
:103ddc00180007003e029000b402900024029000ec
:103dec000400be00240007000000000000000000da
:103dfc0000000000000000003e029000b4029000a1
:103e0c00240290000400be000a0007001e42780045
:103e1c00e04f520003003200245c80000402e800f2
:103e2c00245c88001e427800044078000080fa0070
:103e3c000000060001600100c422b700000006006b
:103e4c00ca22b70000000600d022b700000006000e
:103e5c00d622b7000000060000000000000006009b
:103e6c00e222b70000000600e822b70000000600be
:103e7c0000000000000006000080ea000160010064
:103e8c00c422b60000000600ca22b60000000600dc
:103e9c00d022b60000000600d622b60000000600b4
:103eac000000000000000600e222b6000000060040
:103ebc00e822b6000000060000000000000006002a
:103ecc0001600100c022b70000000600c622b70046
:103edc0000000600cc22b70000000600d222b7007a
:103eec00000006000000000000000600de22b70003
:103efc0000000600e422b7000000060000000000ed
:103f0c00000006000080ea0001600100c022b6003b
:103f1c0000000600c622b60000000600cc22b60047
:103f2c0000000600d222b6000000060000000000cf
:103f3c0000000600de22b60000000600e422b600f7
:103f4c000000060000000000000006000400fa005b
:103f5c00100798001e029000c4029000050f780014
:103f6c001e02780015202600850f52000b0032002f
:103f7c0025202600850f5200050032000520260062
:103f8c00850f520007003a00abfe0700090037000e
:103f9c00c42b2000445b8800060037009ffe0700fe
:103fac0004003700b44d80000402e800b44d8800d2
:103fbc00000000000080fa00000006000000fa007b
:103fcc005452800016508000355180008001eb0067
:103fdc000601780085007800c0062000cff30700aa
:103fec000080fa00000006000000fa000002eb005e
:103ffc008001eb000001eb008000eb00d0062000fc
:10400c00c6f307000080fa00000006000000fa006a
:10401c00d7568000f6578000b55580000002eb00a3
:10402c00870178000601780085007800e006200002
:10403c00baf307000080fa00000006000000fa0046
:10404c000080fa00000006000200e00005003b00c2
:10405c000200400008003100000020007c2bec0026
:10406c00050037000200400003003900f0ff2f006c
:10407c007c2bec00000037000101b8006218b8007e
:10408c000100e00002003200f0ff2f007c2bec005e
:10409c00cf10de0001007000000006000200e000fe
:1040ac0005003b0002004000080031000000200029
:1040bc007e2bec00050037000200400003003900a5
:1040cc00f0ff2f007e2bec00000037000101b80040
:1040dc007018b8000100e00002003200f0ff2f0061
:1040ec007e2bec00cc10de000100700000000600fe
:1040fc000e00fa00600798006e0290004822de0065
:10410c00040f78001e02780084024200e42028008c
:10411c000482420014007800100798001e02e80088
:10412c0084024200e42028000482420094007800bb
:10413c0021079800ee029000f40f20000482620028
:10414c00340798000410200044079800ae02900039
:10415c001e029000848252003e02900004aab90014
:10416c00840278004e029000110009008402d800ed
:10417c0000027800540798009e0290005e029000a6
:10418c0004824200040078000080fa00000006005f
:020000040000fa
:10419c00880b00000002000000000000cc090000a9
:1041ac00a001000000000000780b000004000000db
:1041bc00000000007c0b0000040000000000000068
:1041cc006c0b00000600000000000000840b0000d7
:1041dc000200000000000000860b0000020000003e
:1041ec000200000001000000720b0000060000003d
:1041fc000000000000080000cc01000000000000de
:04420c0000000000ae
:020000040000fa
:10421000f03fb1000180b10006003500ee03090057
:1042200000000000403fb1000180b100fbff3d00f5
:104230001000b000203fb0000200350000800900ef
:08424000000000000000060070
:020000040000fa
:0200000400fffb
:10e000000000000000000000000000000000000010
:10e010000000000000000000000000000000000000
:10e0200000000000000000000000000000000000f0
:10e0300000000000000000000000000000000000e0
:020000040000fa
:0200000401f009
:04000000ecbb000055
:020000040000fa
:0200000401f009
:04000400f7ff000002
:020000040000fa
:0200000401f009
:040008004cff0000a9
:020000040000fa
:0200000401f009
:04000c00ffff0000f2
:020000040000fa
:0200000401f009
:04001000ffff0000ee
:020000040000fa
:0200000401f009
:04001400ffff0000ea
:020000040000fa
:0200000401f009
:04001800ffff0000e6
:00000001FF
