:020000040000fa
:080000000001040000000000f3
:020000040000fa
:100008009a0100009a0100009a0100009a0100007c
:100018009a0100009a0100009a0100009a0100006c
:100028009a0100009a0100009a0100009a0100005c
:100038009a0100009a0100009a0100009a0100004c
:100048009a0100009a0100009a010000580f000070
:100058009a0100009a0100009a0100009a0100002c
:100068009a0100009a0100009a0100009a0100001c
:100078009a0100009a0100009a0100009a0100000c
:100088009a0100009a0100009a0100009a010000fc
:100098009a0100009a0100009a0100009a010000ec
:1000a8009a0100009a0100009a0100009a010000dc
:1000b8009a0100009a0100007a0a00009a010000e3
:1000c8009a0100009a0100009a0100009a010000bc
:1000d8009a0100009a0100009a0100009a010000ac
:1000e8009a0100009a0100009a0100009a0100009c
:0800f8009a0100009a010000ca
:020000040000fa
:100108009a0100009a0100009a0100009a0100007b
:100118009a0100009a0100009a0100009a0100006b
:100128009a0100009a0100009a0100009a0100005b
:100138009a0100009a0100009a0100009a0100004b
:100148009a0100009a0100009a010000580f00006f
:100158009a0100009a0100009a0100009a0100002b
:100168009a0100009a0100009a0100009a0100001b
:100178009a0100009a0100009a0100009a0100000b
:100188009a0100009a0100009a0100009a010000fb
:100198009a0100009a0100009a0100009a010000eb
:1001a8009a0100009a0100009a0100009a010000db
:1001b8009a0100009a0100007a0a00009a010000e2
:1001c8009a0100009a0100009a0100009a010000bb
:1001d8009a0100009a0100009a0100009a010000ab
:1001e8009a0100009a0100009a0100009a0100009b
:0801f8009a0100009a010000c9
:020000040000fa
:100200006fd820000e7f22000e0188000000000041
:10021000000020000000e000020032000001200089
:10022000200288000c000700a040220001002000ee
:1002300011000700000020000000e0000200320072
:100240000000020000000000340b0200000000006b
:100250000040da000000fe004440a9000020200019
:100260000000e0000300320000002000a001880030
:100270004440a8000000060091018800800078003a
:100280000000eb0015003700e280400032a0b4000f
:100290009101ba00e280400032a0b4009102ba009d
:1002a000e280400032a0b4000002eb00472bde00e9
:1002b000f507b200602ce10004003a000059eb00a1
:1002c0008301e900fdff3e00040037006128e100e2
:1002d000010032000082eb00040007001101ba00a7
:1002e0000200e000e8ff3a00000006003159ba00c1
:1002f0008301e9000c0032002159ba008301e900b2
:10030000080032000400e00003003a00e2804000f0
:1003100032a0b400f5ff370011d9ba008301e9001b
:10032000faff3a008100e800e180400032a0b4000a
:10033000000006000040da000000fe003200f80075
:10034000910188000008bb00410424006210e10014
:1003500004003200000220000010e1000a003a0010
:1003600051042400013b88000500fc0051052000d9
:10037000313b8800a10a2000313b880061e7a800da
:1003800000000000000000003200f900000006003c
:100390003200f80060042400003b8800f2ff3700c0
:1003a0003200f8009101880041002400013b8800e0
:1003b0000208bb00ecff37003200f8009101880012
:1003c00051002400013b8800030120003218bb00cb
:1003d0008301e900fdff3a00e3ff37003200f80037
:1003e000910188008002780062004000e0804800af
:1003f0003549ba003204e0000410a70010003200b2
:100400008301e9000e0032002549ba003204e00001
:100410000410a7000a0032008301e900080032003e
:100420000408a300eeff320015c9ba003204e00050
:100430000410a700020032008301e900e8ff3a003f
:100440003200f900000006006022b8000602200019
:100450000000d0008180d2000482d2008582d200c8
:100460000000a0000202520083825a000300310003
:100470000202420083824a000000a1000603e90054
:08048000f3ff3a000000060042
:020000040000fa
:10048800045b0000045b0000045b0000045b0000e8
:10049800045b0000045b0000da5b0000ad5c000058
:1004a800735d0000245e0000c45e0000585f000019
:1004b800e25f000066600000e0600000526100003a
:1004c800c36100002d62000096620000f86200001f
:1004d80054630000ad630000056400005964000027
:1004e800ae640000fd6400004965000095650000e9
:1004f800dd650000266600006e660000b06600003c
:10050800f26600003567000078670000b7670000f2
:10051800f3670000316800006e680000a9680000f9
:10052800e26800001b690000546900008d69000042
:10053800c4690000fa690000306a0000646a0000bb
:10054800976a0000cb6a0000fe6a0000316b000069
:10055800636b0000956b0000c76b0000f86b000030
:10056800286c0000586c0000896c0000b96c000011
:10057800e76c0000166d0000466d0000746d000009
:10058800a26d0000cf6d0000fb6d0000286e00001a
:10059800566e0000836e0000b16e0000dd6e000034
:1005a800086f0000336f00005f6f00008c6f000061
:1005b800b86f0000e46f00000f7000003a70000090
:1005c8006570000090700000bc700000e7700000cb
:1005d800117100003b71000065710000917100000d
:1005e800bc710000e8710000137200003d72000049
:1005f8006772000092720000bd720000e87200008d
:10060800127300003c7300006773000092730000cf
:10061800be730000e9730000147400003f7400000a
:100628006b74000097740000c4740000ef7400003d
:100638001a75000046750000737500009f7500006c
:10064800cb750000f8750000257600005376000091
:1006580081760000af760000dc7600000a770000a3
:10066800387700006777000097770000c6770000aa
:10067800f5770000247800005378000083780000a4
:10068800b4780000e6780000187900004a79000084
:100698007c790000ad790000e0790000157a00004f
:1006a8004b7a00007e7a0000b27a0000ea7a0000f5
:1006b800207b0000557b00008c7b0000c67b00007f
:1006c800ff7b0000387c0000717c0000ab7c0000e0
:1006d800e67c0000227d0000607d00009e7d000019
:1006e800dc7d00001c7e00005e7e0000a17e000014
:1006f800e37e0000267f0000697f0000af7f0000d6
:10070800f77f0000ff7f0000ff7f0000ff7f0000f1
:10071800ff7f0000ff7f0000ff7f0000ff7f0000d9
:10072800ff7f0000ff7f0000ff7f0000ff7f0000c9
:10073800ff7f0000ff7f0000ff7f0000ff7f0000b9
:10074800ff7f0000ff7f0000ff7f0000ff7f0000a9
:10075800ff7f0000ff7f0000ff7f0000ff7f000099
:10076800ff7f0000ff7f0000ff7f0000ff7f000089
:10077800ff7f0000ff7f0000ff7f0000ff7f000079
:10078800ff7f0000ff7f0000ff7f0000ff7f000069
:10079800ff7f0000ff7f0000ff7f0000ff7f000059
:1007a800ff7f0000ff7f0000ff7f0000ff7f000049
:1007b800ff7f0000ff7f0000ff7f0000ff7f000039
:1007c800ff7f0000ff7f0000ff7f0000ff7f000029
:1007d800ff7f0000ff7f0000ff7f0000ff7f000019
:1007e800ff7f0000ff7f0000ff7f0000ff7f000009
:1007f800ff7f0000ff7f0000ff7f0000ff7f0000f9
:10080800ff7f0000ff7f0000ff7f0000ff7f0000e8
:10081800ff7f0000ff7f0000ff7f0000ff7f0000d8
:10082800ff7f0000ff7f0000ff7f0000ff7f0000c8
:10083800ff7f0000ff7f0000ff7f0000ff7f0000b8
:10084800ff7f0000ff7f0000ff7f0000ff7f0000a8
:10085800ff7f0000ff7f0000ff7f0000ff7f000098
:10086800ff7f0000ff7f0000ff7f0000ff7f000088
:10087800ff7f0000ff7f0000ff7f0000ff7f000078
:020000040000fa
:100888000000fa0030000700c7010700be0007009b
:100898001c000700044e8000d44a8800d54a800016
:1008a800d44d800004824200d44a8800d54a800092
:1008b800e44d800004824200d44a8800d54a800072
:1008c800f44d800004824200d44a8800d54a800052
:1008d800b44d800004824200d44a8800d54a800082
:1008e800a44d800004824200d44a8800d54a800082
:1008f800944d800004824200d44a88000080fa00a7
:10090800000006000000fa0025048000040820000a
:1009180004826200e00f52000900320084e0a9005e
:10092800044e80000402e800044e8800044e800053
:10093800b45b880011002000809820003c0007006c
:100948000080fa00000006000a00fa002d003700b7
:100958008e00780000802000880d07009e02780035
:10096800840720008482620004032000848f5200e0
:1009780004003200b44d80000402e800b44d880041
:10098800200037009e027800044b2100848f52001b
:1009980003003a000e007800a6000700190037008f
:1009a8009e027800045b2100848f520003003a0005
:1009b8000e0078003f000700120037009e02780002
:1009c80004632100848f520003003a000e0078006f
:1009d800e50007000b0037009e027800c4c721001d
:1009e8008482620004032100848f520005003a00cb
:1009f8000e0078002f000700944d80000402e800e4
:100a0800944d8800008020000e0d07000002780039
:100a1800e00f5200ceff3a0074458000d44d8800a4
:100a280034408000e44d88000080fa000000060091
:100a38000400fa00000f7800110798001e027800e1
:100a4800940278001e0290000403780005037300e6
:100a5800860278001e027800050a78000080fa00f5
:100a6800000006000400fa00000f78001107980043
:100a78001e027800940278001e0290000482ea00a8
:100a8800848262001e027800050a78000080fa005d
:100a9800000006000400fa00000f78001107980013
:100aa8001e0290001e026200040078000080fa0016
:100ab800000006000400fa00100798001e029000cb
:100ac800c4029000050f780004002f009e02620007
:100ad80004002600848f520004003200a44d8000d8
:100ae8000402e800a44d880025003700f4ff200028
:100af8009e026200f40f2000848f520004003e0022
:100b0800a44d80000402e800a44d88001c003700b2
:100b1800f4ff20009e026200f42f2000848f520010
:100b280003003e001e009000470e07001400370027
:100b3800f4ff20009e026200f43f2000848f5200e0
:100b480004003e00a44d80000402e800a44d880083
:100b58000b003700f4ff20009e026200f44f2000d3
:100b6800848f520003003e001e009000b30007006f
:100b780003003700a44d80000402e800a44d88005b
:100b88000080fa00000006000200fa00344c8000e1
:100b9800630f62000a0007001e027800e00f52008f
:100ba80005003a00344c800063026200e00f5200f6
:100bb80001003200a90007000080fa0000000600ca
:100bc8000000fa00454c8000844c800004826200da
:100bd800e00f520004003200344c80000400a000f2
:100be800344c880004003700354c8000e4ff2f00a7
:100bf80004826200344c8800354c8000744c8000bc
:100c080004826200e00f520004003200344c80007d
:100c18000410a000344c880004003700354c8000d4
:100c2800d4ff2f0004826200344c88000080fa0050
:100c3800000006000400fa00100798001e02900049
:100c4800c4029000050f780004002f009e02620085
:100c580004002600848f520004003200a44d800056
:100c68000402e800a44d880013003700f4ff2000b8
:100c78009e026200f4072000848f520003003e00a9
:100c88001e0090000e0007000b003700f4ff200044
:100c98009e026200f40f2000848f520003003e0081
:100ca8001e009000f20d070003003700a44d8000dd
:100cb8000402e800a44d88000080fa000000060045
:100cc8000400fa00100798001e029000c402900069
:100cd800050f7800f4ff20001e0f62001e02780046
:100ce800050020005600200007002000860f520053
:100cf800878f5a0014003e00046001000500370089
:100d080006003700100037001400370005003700d0
:100d180009003700fd0d0700110037000000fe0034
:100d28000f003700354c8000f4fe2f00048262006b
:100d3800344c88000a003700344c80000440a0007e
:100d4800344c880006003700a44d80000402e800f7
:100d5800a44d8800000000000100370000000000da
:100d68000080fa00000006000400fa00100798004e
:100d78001e029000c4029000050f780004002f00a6
:100d88009e02620004002600848f52000400320094
:100d9800a44d80000402e800a44d88002500370017
:100da800f4ff20009e026200f40f2000848f52009e
:100db80004003e00a44d80000402e800a44d880011
:100dc8001c003700f4ff20009e026200f42f200070
:100dd800848f520003003e001e009000bf0d0700e4
:100de80014003700f4ff20009e026200f43f200048
:100df800848f520004003e00a44d80000402e800e5
:100e0800a44d88000b003700f4ff20009e0262000a
:100e1800f44f2000848f520003003e001e00900013
:100e28000a00070003003700a44d80000402e80010
:100e3800a44d88000080fa00000006000200fa00b5
:100e4800000f78000080fa00000006000200fa0097
:100e5800000f78000080fa00000006000a00fa007f
:100e680044832a00040f780055ff0700344c8000a3
:100e780014079800444c800024079800544c8000c4
:100e880034079800644c800044079800e141200032
:100e98000e007800680c0700344d80000402e8005a
:100ea800344d88000080fa00000006000200fa00b5
:100eb800000f78000060fe000002eb005408880074
:100ec8000080fa00000006001400fa00500798009d
:100ed8006107980072079800030f9800140f980094
:100ee8005e0290006f02620054079800de029000d4
:100ef8000406200005027200540798005e02900064
:100f08000402420054079800de02900004602000aa
:100f180005027200540798005e0290004222dd002c
:100f2800540798005e029000040f78009e02780033
:100f380004f02f0004826200040f78001e0278007b
:100f48004322dd00040f78009e0278005e039000c3
:100f5800f40f20000402630005027200040f7800f9
:100f68001e0a9000140798000e0a900024079800a3
:100f78007e029000340798006e02900044079800a3
:100f88008e007800808a2000e40b0700742180001e
:100f980068026200e00f520001003a0088c0a80011
:100fa8000080fa00000006000000fa002504800016
:100fb8000404200004826200e00f52009f00320007
:100fc80084c0a900144e80000402e800144e880072
:100fd800144e80006f026200144e88009fff0700c5
:100fe800144e800005002000f600200007002000b5
:100ff800860f5200878f5a0090003e00046001005f
:101008000f0037001800370020003700290037008c
:10101800320037003b003700440037004d003700ee
:10102800560037005f00370068003700710037004e
:101038007a0037007b0037007c0037007d003700de
:10104800e44a8000d74a8000c64a8000b54a80003a
:101058008701780006017800850078000000eb0021
:1010680099ff070075003700064b8000f54a80009d
:101078000002eb008001eb00060178008500780093
:101088001000200090ff07006c003700644b8000c0
:10109800574b8000464b8000354b80008701780015
:1010a80006017800850078002000200086ff0700f0
:1010b80062003700a44b8000974b8000864b80006d
:1010c800754b80008701780006017800850078005c
:1010d800300020007cff070058003700e44b8000f8
:1010e800d74b8000c64b8000b54b80008701780045
:1010f80006017800850078004000200072ff070094
:101108004e003700244c8000174c8000064c8000ad
:10111800f54b80008701780006017800850078008b
:101128005000200068ff070044003700444d80004d
:10113800374d8000264d8000154d800087017800ce
:101148000601780085007800800020005eff070017
:101158003a003700844d8000774d8000664d80004e
:10116800554d8000870178000601780085007800d9
:101178009000200054ff070030003700c44d800065
:10118800b74d8000a64d8000954d800087017800fe
:101198000601780085007800a00020004aff0700bb
:1011a80026003700044e8000f74d8000e64d800091
:1011b800d54d800087017800060178008500780009
:1011c800b000200040ff07001c003700c44c80001e
:1011d800b74c8000a64c8000954c800087017800b1
:1011e80006017800850078006000200036ff0700bf
:1011f80012003700044d8000f74c8000e64c800058
:10120800d54c8000870178000601780085007800b9
:10121800700020002cff070008003700c00c0700f2
:1012280006003700c90c070004003700d00c07007f
:1012380002003700da0c0700000000000080fa0006
:10124800000006000e00fa00500798006107980099
:101258000002eb00040f78006e029000240798004b
:101268005e02900014079800e14020000e0078000c
:10127800710b0700444d80000402e800444d8800cb
:101288000080fa00000006001000fa0050079800dd
:10129800610798007207980044032a00040f780039
:1012a8007e029000140798005e02900024079800c0
:1012b8006e029000e10f520003003a0004102e0065
:1012c800440798000200370014102e0044079800c5
:1012d800e14020000e007800570b0700444d8000c5
:1012e8000402e800444d88000080fa00000006006f
:1012f8000000fa00043a800061026200e00f520028
:1013080004003a00043a800062026200e00f5200d2
:10131800050032000002eb00a45b88000002eb002d
:10132800b45b880003003700a45b80000402e80077
:10133800a45b88004007a9004027a90040c7a9006e
:1013480040e7a90041e7a9004087a90041c7a900d3
:10135800a45b8000f44a8800b45b8000044e8800d7
:1013680090c0a90088c0a900340580000480a100ad
:101378000490a10004a0a000340588000002eb003e
:10138800b42288005804a8005824a8005844a8008b
:1013980058a4a80000802000310b0700808a200094
:1013a8002f0b070004402000842288000000000062
:1013b80085228000040e2000848262000408200038
:1013c800848f5200faff3a0014002000942288000b
:1013d80014392000a422880014802100841f88006a
:1013e800d4872100c41f88000002eb00041e880077
:1013f80004802000441e880004032100841e880005
:10140800c47f2100c41e8800c47f2100041f8800f7
:10141800c47f2100441f8800140020007421880024
:1014280024002000f4208800340020007420880064
:10143800040c200024218800040c2000a42088002b
:10144800040c2000242088000002eb00742288008d
:101458000002eb00f42188000002eb0084228800df
:101468000000000085228000040e20000482620033
:10147800e00f5200fbff3a0090c0a80054fb250083
:101488008408880024f42000640888000002eb0027
:101498003408880084c0a9008cc0a90011e1a80004
:1014a800d4fb250094088800546222007408880040
:1014b80084e0a9008ce0a90013e1a8000002eb0079
:1014c800944c880004d82800a44c88000002eb0043
:1014d800b44c880034042000c44c88004406200022
:1014e800d44c88000080fa00000006003600f8009e
:1014f800809fbe00829fbe00849fbe00869fbe0064
:101508000a00fa0088c0a900844d80000402e8009f
:10151800844d88007522800004082000048262003f
:10152800e00f52001800320074228000610262004d
:10153800e00f52000b003a00544d80000402e8000e
:10154800544d8800e14420000e0078005f0a07002f
:101558003e029000844a88004e029000944a880017
:1015680008003700644d80000402e800644d8800dc
:10157800e14420000e007800540a07000e007800ad
:101588004afe07005604a900f5218000040820003f
:1015980004826200e00f520007003200744d8000a0
:1015a8000402e800744d8800e14320000080200018
:1015b800290a07005624a9007421800068026200e5
:1015c800e00f52000c003a00808a20001d0a070034
:1015d80000027800e00f520007003200e1422000cc
:1015e800808a20007e0a07005644a900c44d800066
:1015f8000402e800c44d8800b522800004022000df
:1016080004826200e00f520005003200244d800081
:101618000402e800244d880056a4a90007003700fa
:101628008416800070026200e00f5200020032004f
:10163800d082a90001003700d082a800d4228000ff
:10164800144d88000080fa004f03be004f02be0010
:101658004f01be004f00be003600f90000400600f2
:101668000000fa0004002f00f5072000245b880022
:10167800355b880004012000145b88000100070026
:10168800feff37000000fa00145b8000f00f5200e4
:101698000400320005032000850f520005003200c7
:1016a80007003700bb00070004032000145b880014
:1016b800060037000700070071fc07000300370029
:1016c80004012000145b8800000000000080fa007c
:1016d800000006000400fa0035048000040420001d
:1016e80004826200e00f5200a800320086c0a90000
:1016f800409f2000ec05070080a12000ea050700b4
:10170800c0a32000e8050700845680000400780084
:10171800160c070000027800945688006455800073
:1017280004007800110c0700000278007455880046
:10173800b416800070026200e00f5200020032000e
:10174800d682a90001003700d682a80000af200089
:10175800d5050700045c8000e00f52000700320046
:10176800344b80000402e800344b88000002eb0090
:10177800444c88000002eb00045c8800344c800074
:101788006102620004427800e04f52000200320019
:10179800d062a90001003700d062a80000af200085
:1017a8000e06070000027800e00f52000300320026
:1017b80001802000809820009dfc0700444c800098
:1017c8000180200004007800b2fc070000027800c5
:1017d800e00f520007003200b557800004fa2000dd
:1017e800848f52000300360001802000809820007a
:1017f8009cfc0700409f2000f805070000027800c5
:10180800e00f5200030032002100200080982000e1
:1018180087fc070080a12000f0050700000278007f
:10182800e00f5200030032000101200080982000e0
:101838007ffc0700c0a32000e8050700000278002d
:10184800e00f520003003200810020008098200041
:1018580077fc0700c0ac2000d20507000002780022
:10186800e00f520003003200010820008098200099
:101878006ffc070080aa2000ca0507000002780054
:10188800e00f520003003200011020008098200071
:1018980067fc0700451680000400220004826200ed
:1018a800e00f52000300320001042000809820005d
:1018b8005ffc070000af2000c805070000027800a1
:1018c800e00f5200040032008100200080982000c0
:1018d80057fc070003003700810020008098200093
:1018e80060fc0700e3090700045b8000040378003c
:1018f800245b8000355b8000060178000400be0090
:10190800a5fa0700053b8000040028000482620055
:10191800e00f5200fbff3a00265b8000375b800037
:101928008e82e8000002eb00130020000501780019
:101938000600be00a7fa07000002be00040f7800e8
:10194800d44f8000b44b8800f4508000c44b88000a
:1019580014528000d44b880074558000e44b8800f2
:10196800b4578000f44b8800f45a8000044c880077
:10197800b416800004427800614262000482fb00d1
:10198800144c8800045b8000244c88000080fa0016
:10199800000006000000fa00a48a2000e44f880036
:1019a8000002eb00f44f880004002800045088006f
:1019b8000002eb001450880004002800245088001e
:1019c8000002eb0034508800a48a200004518800eb
:1019d8000002eb00145188000400280024518800fc
:1019e8000002eb00345188000400280044518800ac
:1019f8000002eb0054518800a48a20002452880079
:101a08000002eb0034528800040028004452880089
:101a18000002eb0054528800040028006452880039
:101a28000002eb0074528800a48a20004453880006
:101a38000002eb0054538800040028006453880017
:101a48000002eb00745388000400280084538800c7
:101a58000002eb009453880004002100845588009c
:101a68000002eb009455880004002800a455880063
:101a78000002eb00b455880004002800c455880013
:101a88000002eb00d455880004002100a456880009
:101a98000002eb00b456880004002800c4568800f1
:101aa8000002eb00d456880004002800e4568800a1
:101ab8000002eb00f4568800043d2000c45788005b
:101ac800a4702d00d457880004002800e45788002b
:101ad8000002eb00f457880004002800045888002e
:101ae8000002eb001458880004802000c4598800c4
:101af8000002eb00d459880004002800e45988004b
:101b08000002eb00f459880004002800045a8800f9
:101b18000002eb00145a8800040021006459880070
:101b2800140020008459880004802000045988008b
:101b38000002eb001459880004002800245988008a
:101b48000002eb003459880004002800445988003a
:101b58000002eb005459880004002100a4588800b2
:101b680014002000c458880004802000845a88008b
:101b78000002eb00945a880004002800a45a880048
:101b88000002eb00b45a880004002800c45a8800f8
:101b98000002eb00d45a880004002100245a88006f
:101ba80014002000445a88000002eb00f45a880010
:101bb80005808700c42b2000848f52000300360064
:101bc800c42b2000045b88000200370004808700d3
:101bd800045b88000002eb00344c88000002eb0034
:101be800444c88000002eb00544c88000002eb00d3
:101bf800644c880044102000744c8800f4ff2100d5
:101c0800844c880084c32700045788000485270073
:101c1800e4558800d42e21005450880054582200de
:101c28007451880084ed2000345888000400240092
:101c380065002000244e8800354e880004022000ec
:101c4800a5002000444e8800554e880024c0b300eb
:101c580004007800cce9b700f4532000744e8800e3
:101c68000002eb00844e880004002a00944e88008d
:101c780004242400f5002000a44e8800b54e8800f6
:101c88000468290085092000c44e8800d54e8800c4
:101c98000400280065002000e44e8800f54e880006
:101ca80004022000a5002000044f8800154f88007a
:101cb800c49c20001442780004007800e4e9b700ce
:101cc800744e8000344f8800844e8000444f880052
:101cd800944e8000544f8800a44e8000b54e80007a
:101ce800644f8800754f8800c44e8000d54e800030
:101cf800844f8800954f8800409c20006a0907009f
:101d0800c09d20006809070040b120003804070082
:101d1800b45880000401780001002100409c200094
:101d28008609070040b4200031040700345a8000b7
:101d38000401780001002900409c20007f09070069
:101d4800c0b220002a0407007459800004017800fa
:101d580001002100c09d200078090700340580009b
:101d68000400a0000410a0000420a000340588008e
:101d78008220a900c404800004c0a10004d0a000ef
:101d880004e0a000c404880004002f0004168800a2
:101d98000082eb00341688000002eb00641688000d
:101da80004002c009416880004022000f416880011
:101db8003416200024178800d4f92d00040988005f
:101dc8000002eb00c408880086c0a900440d230067
:101dd800e4088800f4cf270004158800e4fd2000fb
:101de8001415880084442e0024158800242e2e0003
:101df8003415880034002f0044158800c47720006b
:101e0800541588008560a9008d60a800a1e2a8008b
:101e180037fd070000242400f10020009b0a07007a
:101e28000060fe00d082a80000242400f1002000f9
:101e3800960a07000060fe00d062a8000024240073
:101e4800f1002000910a07000060fe00d042a800bf
:101e580000242400f10020008c0a07000060fe0026
:101e6800d022a80000242400f1002000870a0700df
:101e78000060fe00e9e2a80000242400f100200030
:101e8800820a07000060fe00e9a2a80000242400de
:101e9800f10020007d0a07000060fe00e982a8002a
:101ea8000080fa0000000600801f7800849fbe00b2
:101eb800869fbe000000fa008560a9001515800005
:101ec8000408200004826200e00f52003100320052
:101ed800a64f8000b74f8000041480000500200042
:101ee8000602420087824a00a44f8800b54f880046
:101ef800c6508000d75080001414800005002000d0
:101f08000602420087824a00c4508800d5508800e3
:101f1800e6518000f751800024148000050020005d
:101f28000602420087824a00e4518800f551880081
:101f38004655800057558000541480000500200045
:101f48000602420087824a00445588005555880099
:101f580066568000775680006414800005002000d3
:101f68000602420087824a00645688007556880037
:101f78008657800097578000741480000500200061
:101f88000602420087824a008457880095578800d5
:101f980030003700a64f8000b74f800084148000bf
:101fa800050020000602420087824a00a44f8800ec
:101fb800b54f8800c6508000d75080009414800028
:101fc800050020000602420087824a00c4508800ab
:101fd800d5508800e6518000f7518000a414800095
:101fe800050020000602420087824a00e45188006a
:101ff800f55188004655800057558000d41480005c
:10200800050020000602420087824a0044558800e5
:10201800555588006656800077568000e414800085
:10202800050020000602420087824a0064568800a4
:10203800755688008657800097578000f4148000f2
:10204800050020000602420087824a008457880063
:102058009557880014148000444b8800241480008d
:10206800544b880034148000644b8800441480006a
:10207800744b880054148000844b880064148000da
:10208800944b880074148000a44b8800e45a8000a4
:102098000402e800e45a8800e55a8000f4072000aa
:1020a800848f52007a003600a44f8000b54f80001c
:1020b8004d2bdd004322de0004027300c32ade003c
:1020c800a44f8800b54f8800a44f8000b54f80000a
:1020d80004027800c44f88006022b800a44f88002a
:1020e800b54f8800c4508000d55080004d2bdd00ce
:1020f8004322de0004027300c32ade00c4508800b5
:10210800d5508800c4508000d55080000402780063
:10211800e45088006022b800c4508800d550880078
:10212800e4518000f55180004d2bdd004322de0094
:1021380004027300c32ade00e4518800f5518800c8
:10214800e4518000f55180000402780004528800b0
:102158006022b800e4518800f551880004538000db
:10216800155380004d2bdd004322de00040273006e
:10217800c32ade00045388001553880004538000e6
:102188001553800004027800245388006022b800a8
:102198000453880015538800245480003554800067
:1021a8004d2bdd004322de0004027300c32ade004b
:1021b8002454880035548800245480003554800005
:1021c80004027800445488006022b800245488002f
:1021d8003554880044558000555580004d2bdd004e
:1021e8004322de0004027300c32ade00445588003f
:1021f80055558800445580005555800004027800e4
:10220800645588006022b8004455880055558800f8
:1022180064568000755680004d2bdd004322de0099
:1022280004027300c32ade006456880075568800cd
:102238006456800075568000040278008456880031
:102248006022b8006456880075568800845780005c
:10225800955780004d2bdd004322de0004027300f9
:10226800c32ade0084578800955788008457800069
:102278009557800004027800a45788006022b800af
:1022880084578800955788000002eb00e45a8800bc
:102298000080fa004f03be004f02be004f007800d6
:1022a800004006000e00fa00000f78002147980051
:1022b800324798002307980034079800450798008c
:1022c80056079800670798001e027800ae429000f3
:1022d800054a78001e027800be4290001542980018
:1022e8001e027800ae029000150298001e027800c7
:1022f800144090006033b8003e029000ce02900077
:102308005e019000ee01900001022b0051050700cc
:102318000080fa00000006000e00fa00400798004e
:1023280051079800620798004e029000140290002e
:102338008402d1005e029000848f52005300360060
:102348006e0290004822de00044f78006e02900072
:10235800144798005e029000040242001407980097
:102368001e0290004822de00444798001e0290009a
:10237800544798004e0290001442900004407800a0
:102388007205070000027800340798004e0290009a
:1023980014429000044078008d0507000002780080
:1023a800be02900005027200340798004e029000a9
:1023b800944290004e0290001442780085407800c4
:1023c80004407800c405070000027800be029000af
:1023d80005027200340798004e02900014429000e3
:1023e800844078004e409000bb050700000278004a
:1023f800be02900005027200340798004e02900059
:1024080014429000844078005e409000b2050700b6
:1024180000027800be02900005027200340798009e
:102428004e02900014429000844078001e409000b4
:10243800a905070000027800be029000050272009c
:10244800340798004e0290001442900084407800af
:102458001e407800a005070000027800be02900028
:1024680005027200340798004e0290001442900052
:10247800044078000806070000027800be029000b9
:102488000502720034079800020037000082eb0052
:10249800340798000080fa00000006000c00fa00db
:1024a80040079800510798004e02900014029000cf
:1024b8008402d1005e029000848f52006c003600c6
:1024c8005e02900004024200140798001e02900069
:1024d8004822de00444798001e02900054479800a6
:1024e8004e0290001442900004407800170507003f
:1024f80000027800340798004e02900014429000c1
:10250800044078003205070000027800be029000ff
:1025180005027200340798004e0290009442900021
:102528004e029000144278008540780004407800fc
:102538006905070000027800be02900005027200db
:10254800340798004e0290001442900084407800ae
:102558004e4090006005070000027800be0290001f
:1025680005027200340798004e0290001442900051
:10257800844078005e40900057050700000278000c
:10258800be02900005027200340798004e029000c7
:1025980014429000044078002e05070000027800dd
:1025a800be02900005027200340798004e029000a7
:1025b800944290004e029000144278000404a00057
:1025c8008540780004407800430507000002780041
:1025d800be02900005027200340798004e02900077
:1025e8001442900004407800720507000002780049
:1025f800044f78004e029000144290000440780086
:10260800c605070000027800be02900005027200ad
:10261800340798004e02900014429000044078005d
:102628006405070000027800144798004e029000e5
:102638001442900004407800da0507000002780090
:10264800be02900005027200340798004e02900006
:1026580014429000044078008f05070000027800bb
:10266800be02900005027200340798000600370089
:102678000082eb00340798000042eb00044f78001a
:102688000042eb00144798001e4290000482fb00b1
:10269800140798001e0290004822dd0014079800d5
:1026a8009e4278000582fb009e0290000482420050
:1026b800140798001e029000040078000080fa00b9
:1026c800000006001200fa00500798006107980001
:1026d80072079800030f98007e029000e00f5200e6
:1026e800640032007e029000f00f520002003600b3
:1026f80004012000740798005e0290001402900004
:10270800c522de006e029000848f5200570036000a
:102718006e0290004522dd00240798002e029000ea
:102728004822de00644798002e0290007447980003
:102738005e02900014429000044078008304070071
:1027480000027800040f78005e02900014429000a6
:10275800044078009e040700000278001e0f7200f3
:102768005e029000944290005e029000144278004d
:102778008540780004407800d704070000027800fc
:102788001e0f72005e029000144290008440780090
:102798006e409000d0040700000278001e0f7200ff
:1027a8005e02900014429000844078007e409000c1
:1027b800c9040700000278001e0f72000002eb0037
:1027c800140798001e0037001e0290000402420001
:1027d8008e0a900004824200140278004822de002b
:1027e800044f98001e029000040242008e0a9000d6
:1027f8000482420014027800144f98005e02900090
:1028080014429000844078001e489000b2040700eb
:10281800000278001e0f72005e02900014429000c1
:10282800844078000e489000ab040700000278004e
:102838001e0f72001e0290000402e80014079800a0
:102848009e0290007e029000848f5200deff3900c5
:102858005e02900014429000044078000e050700c4
:10286800000278001e0f7200020037000082eb00a1
:10287800040f78000080fa00000006001200fa0039
:10288800500798006107980072079800030f980096
:102898007e029000e00f5200cc0032007e029000d1
:1028a800f00f52000200360004012000740798005f
:1028b8005e02900014029000c522de006e029000b5
:1028c800848f5200bb0036006e0290004522dd0066
:1028d800240798002e0290004822de0064479800e2
:1028e8002e029000744798005e02900014429000f7
:1028f800044078001504070000027800040f7800ef
:102908005e029000144290000440780030040700f2
:10291800000278001e0f72005e0290009442900040
:102928005e029000144278008540780004407800e8
:1029380069040700000278001e0f72005e02900012
:1029480014429000844078006e40900062040700b2
:10295800000278001e0f72005e0290001442900080
:10296800844078007e4090005b04070000027800f5
:102978001e0f72005e02900014429000044078001e
:1029880034040700000278001e0f72005e029000f7
:10299800944290005e029000144278000404a00063
:1029a80085407800044078004b0407000002780056
:1029b8001e0f72000002eb00140798003a0037005f
:1029c8005e029000144290000440780079040700e9
:1029d80000027800044f98005e02900014429000b4
:1029e80004407800cd040700000278001e0f720032
:1029f8005e02900014429000044078006d040700c5
:102a080000027800144f98005e0290001442900073
:102a180004407800c1040700000278001e0f72000d
:102a28001e029000040242008e0a90008482420036
:102a38001e4a90000482fb00840a78001e0290005f
:102a4800040242008e0a9000848242001e02900016
:102a5800040242000e0b90000402430014027800a6
:102a68004822dd00840a78001e0290000402420019
:102a78008e0a9000848242001e02900004024200e6
:102a88000e0b900004024300140378000e4a9000d5
:102a98000482fb0004024300840a78001e029000ae
:102aa8000402e800140798007e0290008402e900fe
:102ab8001e029000848f5200c1ff3e005e0290000b
:102ac80014429000044078003a040700000278009d
:102ad800044f98005e029000144290000440780071
:102ae8008e040700000278001e0f72005e0290003c
:102af80014429000044078002e0407000002780079
:102b0800144f98005e029000144290000440780030
:102b1800a4040700000278001e0f72001e02900035
:102b2800040242008e0a9000848242001e4a9000ed
:102b38000482fb00840a78001e029000040242000e
:102b48008e0a9000848242001e0290000402420015
:102b58000e0b900004024300140278004822dd00a6
:102b6800840a78001e029000040242008e0a900037
:102b7800848242001e029000040242000e0b900064
:102b880004024300140378000e4a90000482fb00fc
:102b980004024300840a78005e0290001442900008
:102ba800044078003c040700000278001e0f720001
:102bb800060037000082eb00040f78000042eb00ab
:102bc800044f98000042eb00144f98000080fa0070
:102bd800000006001200fa0010079800210798006c
:102be80032079800034f980054079800650798002b
:102bf80076079800070f98000002eb00040f780092
:102c08001e0390006022b800048bbe001e029000d4
:102c18008002eb00250298001e0290008002eb0063
:102c2800350298001e029000ae02900045029800fe
:102c38001e029000be029000550298000e4a9000b5
:102c4800e14f42000d003a001e02900005002800e6
:102c5800650298001e0290008002eb007502980041
:102c68001e02900005002800050a98001e02900028
:102c78008002eb00150a98000c0037001e02900035
:102c880005002800650298001e0290008002eb00f3
:102c9800750298001e02900005002800050a980099
:102ca8001e0290008002eb00150a98001e02900098
:102cb800de029000250a98001e029000ee029000a5
:102cc800350a98001e029000fe029000550a9800ee
:102cd8001e0290008e0a9000650a98001e0290005d
:102ce8008002eb00750a98001e0290008002eb003b
:102cf800051298001e029000ceba9700151298008f
:102d08000080fa00000006001000fa001007980082
:102d18002107980032079800034f9800540798003d
:102d280065079800760798000002eb00040f78000a
:102d38001e0290008002eb00250298001e029000ff
:102d4800de029000350298001e029000ee0290000c
:102d5800450298001e029000fe029000550298005d
:102d68001e029000ae029000650298001e029000bc
:102d7800be029000750298000e4a9000e14f420092
:102d88000d003a001e02900005002800050a980070
:102d98001e0290008002eb00150a98001e029000a7
:102da80005002800250a98001e0290008002eb000a
:102db800350a98000c0037001e0290000500280014
:102dc800050a98001e0290008002eb00150a980080
:102dd8001e02900005002800250a98001e02900097
:102de8008002eb00350a98000080fa000000060017
:102df8000400fa00100798001e0290007403900067
:102e08001e029000e40290001e0290001402780056
:102e18000601780085007800040078003e06070067
:102e280000027800040f78001e029000940a9000b7
:102e38001e029000040a90000501780084007800c2
:102e48001e0078001f06070000027800040f7800b3
:102e58001e029000b40a90001e029000240a9000fe
:102e680005017800840078001e0078001506070028
:102e780000027800040f78001e02900024029000df
:102e8800e00f520003003a001e029000d4029000a6
:102e9800050f78001e0290009e0278001502980027
:102ea8000080fa00000006000400fa0010079800ed
:102eb8001e029000140b90001e029000840a9000dd
:102ec8001e02900024029000060178008500780018
:102ed80004007800fb05070000027800040f780062
:102ee8001e029000f40290001e02900064029000fe
:102ef80005017800840078001e007800f1050700bd
:102f080000027800040f78001e029000d40290009e
:102f18001e029000440290000501780084007800a9
:102f28001e007800fc05070000027800040f7800f6
:102f38001e0290009e027800350298000080fa0078
:102f4800000006000400fa00000f7800110798003e
:102f58001e027800b40290001e029000848f520076
:102f6800030031001e027800b40290001507980093
:102f78001e027800c40290001e029000848f520046
:102f8800030036001e027800c4029000150798005e
:102f98001e0278009e029000050a78000080fa0060
:102fa800000006000200fa00000f78001e027800f8
:102fb800b40290001e027800240a9000848f520008
:102fc8000200360014002000010037000002eb0068
:102fd800040078000080fa00000006000200fa00f1
:102fe800000f78001e027800b40290001e027800dc
:102ff800340a9000848f520002003100140020002f
:10300800010037000002eb00040078000080fa009d
:10301800000006000400fa00100798001e02900045
:10302800d40a90001e029000440a90000001eb00b0
:103038008500780004007800a205070000027800e7
:10304800040f78001e029000640a90009e0f520040
:10305800030036001e029000e40a9000050f780075
:1030680004f02f009e0252001e029000440a9000b5
:10307800848f5200040036001e029000440a90001b
:103088001e0f42000200370004f02f00040f7800e2
:103098001e029000340290009e0f52000600360077
:1030a8001e029000740a90008402e8001e0290003c
:1030b800750a9800090037001e029000740a9000f3
:1030c800e00f5200050032001e029000740a9000c2
:1030d8008402e9001e029000750a98001e02900002
:1030e800f40a90001e02900014129000848f52007f
:1030f8000f0039001e029000f40a90001e02900092
:103108001412900004024200848f52000600390015
:103118001e029000141290000402420084027800fb
:103128001e029000750a9800140020000100370064
:103138000002eb00040078000080fa00000006009e
:103148000400fa00100798001e029000d40a9000ac
:103158001e029000440a90000001eb0085007800f0
:10316800040078005705070000027800040f780073
:103178001e029000640a90009e0f52000300360061
:103188001e029000e40a9000050f78001e029000cd
:10319800440a90009e0f5200040036001e02900060
:1031a800440a90001e0f5200020037000002eb0094
:1031b800040f78001e029000340290009e0f520007
:1031c800060031001e029000041290008402e800fc
:1031d8001e02900005129800090037001e02900098
:1031e80004129000e00f5200050032001e02900009
:1031f800041290008402e9001e0290000512980053
:103208001e029000841290001e029000141290007a
:10321800848f52000f0039001e0290008412900023
:103228001e0290001412900004024200848f520083
:10323800060039001e029000141290000402420099
:10324800840278001e0290000512980014002000e5
:10325800010037000002eb00040078000080fa004b
:10326800000006001400fa00404798003107980053
:10327800420798005307980064079800750798005c
:10328800060f9800170f98003e029000f401b30053
:10329800340798000e0b90009e0b9000463add0014
:1032a800ca32de00850272004632dd006e019000ef
:1032b800fe0190000400be0061f407000002be0099
:1032c800048fbe0004202000050020001e03be005d
:1032d800840f5300858f5b0003003e00140020001c
:1032e800445b88003200370034802000050020004d
:1032f8001e03be00840f5300858f5b000d003e0047
:1033080044002000445b88001e02be004e2bdd00f6
:103318004222de0004027300c22ade00048fbe00cf
:10332800be029000e4ff2f00048262003407980078
:103338001f003700f4002200050020001e03be0015
:10334800840f5300858f5b000d003e0004012000b0
:10335800445b88001e02be004c2bdd004422de00c8
:1033680004027300c42ade00048fbe00be0290006f
:10337800d4ff2f0004826200340798000c00370045
:1033880004042000445b88001e02be004a2bdd00b6
:103398004622de0004027300c62ade00048fbe0047
:1033a800be029000c4ff2f00048262003407980018
:1033b800041c2000050020001e03be00840f5300db
:1033c800858f5b0008003600445b80004322dd00e7
:1033d800445b8800be02900034fe2f000482620025
:1033e8003407980057003700041820000500200013
:1033f8001e03be00840f5300858f5b000900360052
:10340800445b80006722b90004027800445b8800ae
:10341800be02900074fe2f000482620034079800f8
:103428004800370004142000050020001e03be00d9
:10343800840f5300858f5b0009003600445b8000d1
:103448006622b90004027800445b8800be0290003e
:10345800b4fe2f0004826200340798003900370058
:1034680004102000050020001e03be00840f530036
:10347800858f5b0009003600445b80006522b90037
:1034880004027800445b8800be029000f4fe2f001e
:1034980004826200340798002a003700040c2000d8
:1034a800050020001e03be00840f5300858f5b00bb
:1034b80008003600445b80004222dd00445b88003f
:1034c800be02900034ff2f00048262003407980087
:1034d8001c00370004082000050020001e03be0061
:1034e800840f5300858f5b0009003600445b800021
:1034f8006322b90004027800445b8800be02900091
:1035080074ff2f0004826200340798000d00370012
:1035180004042000050020001e03be00840f530091
:10352800858f5b0007003600445b80000402420080
:10353800445b8800be029000b4ff2f000482620042
:1035480034079800445b80004222dd00445b880019
:103558004e429000e14f520004003a003e029000b3
:10356800141188005e039000061188004e429000f6
:10357800e24f520004003a003e02900044118800d5
:103588005e039000361188000080fa0000000600f3
:103598000c00fa0040079800214f98000042eb0009
:1035a800044f78002e4a9000e14f520054003a0030
:1035b8008500a9004e029000241188000002eb004b
:1035c80034079800180037003e0290000402e80013
:1035d80034079800445b8000be029000848f52003c
:1035e8000300360034c0b300044f78000e003700e3
:1035f800051180000404200004826200e00f5200dc
:103608000300320044c0b300044f780006003700be
:103618000411800062026200e00f520002003a00ca
:1036280014c0b300044f78001e427800e04f5200e7
:10363800e5ff3200200037003e0290000402e80057
:1036480034079800445b8000be029000848f5200cb
:103658000300360034c0b300044f7800160037006a
:10366800051180000404200004826200e00f52006b
:103678000300320044c0b300044f78000e00370046
:10368800250480000410200004826200e00f52002c
:103698000300320024c0b300044f7800060037004e
:1036a8000411800061026200e00f52000200320043
:1036b80024c0b300044f78001e427800e14f520046
:1036c800ddff32001e427800e24f520005003a004a
:1036d8002411800005002000140798002507980091
:1036e8000700370004002000151121001407980076
:1036f80025079800545b80000402e800545b8800aa
:103708002e4a9000e24f52004d003a008740a9002f
:103718004e029000541188000002eb003407980014
:10372800180037003e0290000402e80034079800b1
:10373800445b8000be029000848f52000300360074
:1037480034c0b300044f78000e00370035118000f4
:103758000404200004826200e00f520003003200db
:1037680044c0b300044f78000600370034118000cd
:1037780062026200e00f520002003a0014c0b30077
:10378800044f78001e427800e04f5200e5ff3200f7
:10379800190037003e0290000402e8003407980040
:1037a800445b8000be029000848f52000300360004
:1037b80034c0b300044f78000f0037003511800083
:1037c8000404200004826200e00f5200030032006b
:1037d80044c0b300044f7800070037003504800068
:1037e8000440200004826200e00f52000200320010
:1037f80024c0b300044f78001e427800e14f520005
:10380800e4ff32001e427800e24f520005003a0001
:10381800541180000500200014079800250798001f
:103828000700370004002000151121001407980034
:1038380025079800645b80000402e800645b880048
:103848001e029000ae0290000400be000080fa0044
:10385800000006001400fa0040479800310798005d
:103868004207980053079800640798007507980066
:10387800060f9800170f98004e019000de01900087
:103888006e009000fe009000edf207000002be00fe
:10389800048fbe001e0278004422dd00d45b88003d
:1038a8006e029000fe02900052cd2d0023032000ee
:1038b8000400be00e2f207000002be001e1f120054
:1038c8001e971a000082eb008082eb001e0f420058
:1038d8005e974a001e03be00140020000500200069
:1038e800840f5300858f5b0003003e0024002000f6
:1038f80005002000048fbe00f4ff2f000500200003
:103908001e03be00840f5300858f5b000300360042
:103918002400200005002000048fbe004e429000c5
:10392800e04f5200030032004e429000e14f520037
:1039380004003a00be029000351088001e0278008c
:10394800241088000080fa00000006000600fa0033
:10395800404798000002eb00140798004e42900080
:10396800e04f5200030032004e429000e14f5200f7
:1039780013003a000002eb00040f78000b00370038
:103988001e0fe800d45b80009e027800848f5200ee
:103998000600360004a02f0014079800c45b8000be
:1039a8000402e800c45b8800050037004510800069
:1039b8000400240004826200e00f5200f0ff3a0085
:1039c8001e029000040078000080fa000000060043
:1039d8000600fa00404798000002eb001407980020
:1039e8004e429000e04f5200030032004e429000d9
:1039f800e14f520013003a000602a8000002eb0053
:103a0800040f78000b0037001e0fe800d45b80001d
:103a18009e027800848f52000600360004a02f0012
:103a280014079800c45b80000402e800c45b8800a7
:103a3800040037003410800061026200e00f520079
:103a4800f1ff3a001e029000040078000080fa009e
:103a5800000006000600fa00404798000002eb004c
:103a6800140798004e429000e04f520003003200c5
:103a78004e429000e14f520013003a000622a8007f
:103a88000002eb00040f78000b0037001e0fe8005f
:103a9800d45b80009e027800848f520006003600b6
:103aa80004a02f0014079800c45b80000402e800fb
:103ab800c45b880004003700341080006202620092
:103ac800e00f5200f1ff3a001e0290000400780057
:103ad8000080fa00000006000600fa00404798003f
:103ae800514798000002eb00140798005e429000ce
:103af800e04f5200030032005e429000e14f520056
:103b080028003a004e4290000482fb0014108800fe
:103b18000002eb00040f78000c0037001e0fe800cd
:103b2800d45b80009e027800848f52000700360024
:103b380004a02f0014079800c45b80000402e8006a
:103b4800c45b8800000000001100370045108000a9
:103b58000400240004826200e00f5200efff3200ec
:103b68000b0037001e0fe800d45b80009e0278002f
:103b7800848f52000600360004a02f001407980016
:103b8800c45b80000402e800c45b880005003700bd
:103b9800451080000400240004826200e00f5200f7
:103ba800f0ff3a001e029000040078000080fa003e
:103bb800000006000600fa00404798000002eb00eb
:103bc800140798004e429000e04f52000300320064
:103bd8004e429000e14f52002b003a000662a800c6
:103be8000002eb00040f78000c0037001e0fe800fd
:103bf800d45b80009e027800848f52000700360054
:103c080004a02f0014079800c45b80000402e80099
:103c1800c45b8800000000001000370034108000ea
:103c280068026200e00f5200f0ff3a000b00370014
:103c38001e0fe800d45b80009e027800848f52003b
:103c48000600360004a02f0014079800c45b80000b
:103c58000402e800c45b88000400370044108000b8
:103c680062026200e00f5200f1ff32001e02900073
:103c7800e00f520004003a0005108000f40f200005
:103c880004826200140798001e0290000400780065
:103c98000080fa00000006000600fa00404798007d
:103ca8000002eb00140798004e429000e04f5200cb
:103cb800030032004e429000e14f520013003a00d8
:103cc8000642a8000002eb00040f78000b00370042
:103cd8001e0fe800d45b80009e027800848f52009b
:103ce8000600360004a02f0014079800c45b80006b
:103cf8000402e800c45b8800040037003410800028
:103d080064026200e00f5200f1ff3a001e029000c8
:103d1800040078000080fa00000006000600fa009f
:103d2800404798000002eb00040f78000002eb0007
:103d3800140798004e429000e04f520003003200f2
:103d48004e429000e14f520012003a0006a2a9002c
:103d58000682a8000b0037001e0fe800d45b800025
:103d68009e027800848f52000600360004a02f00bf
:103d780014079800c45b80000402e800c45b880054
:103d8800040037003410800070026200e00f520017
:103d9800f1ff3a001e029000040078000080fa004b
:103da800000006000600fa00404798000002eb00f9
:103db800040f78000002eb00140798004e429000b0
:103dc800e04f5200030032004e429000e14f520093
:103dd80012003a0006a2a8000682a8000b003700cd
:103de8001e0fe800d45b80009e027800848f52008a
:103df8000600360004a02f0014079800c45b80005a
:103e08000402e800c45b8800040037003410800016
:103e180070026200e00f5200f1ff3a001e029000ab
:103e2800040078000080fa000000060010019000ed
:103e380090007800010051000000e900f000b20095
:103e480000000600100190009000780002805000e9
:103e5800f000b200000006001170a6001a0037003a
:103e6800e40140009309e800900190001001e80087
:103e7800f200b2000310e1001000320010017800d7
:103e88006a11b800e8014000828141006e8150004b
:103e98009219780066014100b2197800b2197800c9
:103ea800b2197800b21978001001e800f200b200e7
:103eb80002087800e60140009309e900e6014000a5
:103ec8009309e8001170a100000006001170a60017
:103ed800090037006e815000121878006601410011
:103ee80032187800321878003218780032187800c2
:103ef8001170a10008003700827f210002187800a5
:103f080002002000021878000218780002187800d1
:103f1800021878003100370000000600e401400074
:103f28009309e800900190001001e800f200b20047
:103f38000310e1000e003200100178006a11b80089
:103f4800e801400082814100b1197800b119780078
:103f5800b1197800b1197800b11978001001e8009a
:103f6800f200b20002087800e60140009309e90077
:103f7800e60140009309e8000000060010019000e7
:103f8800900178000310e10008003a00837f2100c7
:103f980083187800030020008318780083187800bd
:103fa80083187800831878000c0037006a11b8006d
:103fb8006801410000014100b2187800b218780089
:103fc800b2187800b2187800b21878001001900082
:103fd8000201e800f200b20012009800000006009a
:103fe8001130a700130037001001900090017800ed
:103ff8000310e1000f0032006a11b80068014100a7
:1040080000014100ee815000b2097800e6814100cc
:10401800b2197800b2197800b2197800b21978008c
:104028001130a000100190000201e800f200b20077
:1040380012009800000006001130a1006e815000a7
:10404800300978006601410030197800301978008d
:1040580030197800301978001130a00000000600ef
:104068000018eb000018eb000018eb000008eb004c
:10407800000006000000fa00245c80006123b800fc
:104088000082eb008082eb000602420087824a0031
:104098003600200007002000860f5200878f5a0044
:1040a80068003e0004600100030037001e0037006e
:1040b8003a00370058003700d602a900755580002d
:1040c80034272700848f520060003600b5578000df
:1040d800f4f92000848f520010003e00b55780008c
:1040e80084bb2000848f520003003e00845b800064
:1040f800e00f52000900320024002000245c8800f0
:10410800845b8000e00f520052003200845b800024
:104118000402e900845b8800550037000002eb00c8
:10412800745b880052003700d602a800745b8000d8
:104138000402e800745b8800b557800074bb200057
:10414800848f520006003e00845b8000e00f52001e
:1041580003003a0014002000245c88004400370063
:10416800755b8000341f2000848f52003b003600ae
:1041780034002000245c88000002eb00745b880097
:10418800f45a80000402e800f45a8800045b8000b6
:104198000402e900045b880035003700d602a90054
:1041a800745b80000402e800745b8800f45a8000a5
:1041b800f80f52000a003600b5578000f4f92000c5
:1041c800848f52000300360014002000245c88000d
:1041d8002700370044002000245c880024003700b2
:1041e800b557800074062100848f52000300360002
:1041f80014002000245c88001d003700755b8000d7
:10420800441f2000848f520016003600240020002e
:10421800245c880016003700d602a900945b800051
:10422800e00f52001100320014002000245c8800c6
:104238000002eb00f45a88000002eb00945b88004f
:104248000b003700000000000900370000000000e4
:1042580007003700000000000500370000000000dc
:1042680003003700000000000100370000000000d4
:104278000080fa00000006000000fa005400200048
:10428800845b88000002eb00f45a88000080fa0082
:10429800000006000000fa0014002000945b88006b
:1042a8000080fa00000006000200fa00000f780003
:1042b8001e027800b4029000240290000400be00a0
:1042c800ba0007001e0278001402be000400be00f7
:1042d800b60007001e027800b40290002402900085
:1042e8000400be00e50007001e0278001402be00ac
:1042f8000400be00e10007001e027800240b9000b5
:10430800b40b90001e027800940a9000040a9000f2
:104318001e007800f00190001e00780060019000f7
:104328001e007800d00090001e0078000048900021
:10433800ccfb07000080fa00000006000c00fa0021
:10434800300798004107980052079800de02900055
:10435800f4ff20000482620054079800ce02900007
:1043680004002f000482620044079800ce029000e7
:104378005e02900005027200440798000042eb00bc
:10438800044f78003e0290001402be000400be00f4
:10439800970007003e029000044a9000844078008d
:1043a8004e0090007afc07000002be001407980037
:1043b800250798001e039000ae039000040020001b
:1043c80015112100840f5300858f5b0002003a000d
:1043d80014c0b300044f78003e0290001402be00df
:1043e8000400be00710007003e029000b402900075
:1043f800240290000400be007d00070000000000b9
:104408000000000000000000000000003e029000d4
:10441800b4029000240290000400be00630007006c
:104428001e427800e04f520003003200145c800006
:104438000402e800145c88001e42780004407800fa
:104448000080fa00000006000400fa001007980037
:104458001e029000c4029000050f7800a44d800051
:104468000402e800a44d88000080fa00000006005d
:104478000400fa00100798001e029000c402900081
:10448800050f78001e02780005082600850f5200e7
:104498000400320015082600850f5200050032007e
:1044a8000800370001102000609820006df1070017
:1044b8000800370001102000609820005cf1070018
:1044c80004003700a44d80000402e800a44d8800d1
:1044d800000000000080fa00000006000400fa0056
:1044e800100798001e029000c4029000050f780083
:1044f800f4ff20001e0f6200a44d80000402e800b3
:10450800a44d88000080fa00000006000000fa00b0
:1045180014002000045c88000080fa0000000600f7
:104528000000fa0014528000d64f8000f550800039
:104538008001eb000601780085007800c0062000a5
:1045480061f207000080fa00000006000000fa008f
:104558000002eb008001eb000001eb008000eb00a3
:10456800d006200058f207000080fa00000006007c
:104578000000fa0097568000b657800075558000f5
:104588000002eb00870178000601780085007800ba
:10459800e00620004cf207000080fa000000060048
:1045a8000000fa000080fa00000006000160010027
:1045b800c422b70000000600ca22b70000000600a7
:1045c800d022b70000000600d622b700000006007f
:1045d8000000000000000600e222b700000006000c
:1045e800e822b700000006000000000000000600f6
:1045f8000080ea0001600100c422b6000000060045
:10460800ca22b60000000600d022b600000006004c
:10461800d622b600000006000000000000000600d8
:10462800e222b60000000600e822b60000000600fc
:10463800000000000000060001600100c022b70071
:1046480000000600c622b70000000600cc22b70012
:1046580000000600d222b70000000600000000009b
:1046680000000600de22b70000000600e422b700c2
:104678000000060000000000000006000080ea00bc
:1046880001600100c022b60000000600c622b60084
:1046980000000600cc22b60000000600d222b600b8
:1046a800000006000000000000000600de22b60040
:1046b80000000600e422b60000000600000000002a
:1046c800000006000200e00005003b000200400078
:1046d80008003100000020007c2bec0005003700aa
:1046e8000200400003003900f0ff2f007c2bec0093
:1046f800000037000101b8006218b8000100e000ae
:1047080002003200f0ff2f007c2bec00cf10de00ff
:1047180001007000000006000200e00005003b00f8
:104728000200400008003100000020007e2bec0051
:10473800050037000200400003003900f0ff2f0099
:104748007e2bec00000037000101b8007018b8009b
:104758000100e00002003200f0ff2f007e2bec0089
:10476800cc10de0001007000000006000e00fa0008
:10477800600798006e0290004822de00040f78005f
:104788001e02780084024200442428000482420069
:1047980014007800100798001e02e8008402420006
:1047a80044242800048242009400780021079800dd
:1047b800ee029000f40f2000048262003407980093
:1047c8000410200044079800ae0290001e029000da
:1047d800848252003e02900004aab9008402780044
:1047e8004e029000110009008402d80000027800ef
:1047f800540798009e0290005e02900004824200d6
:0c480800040078000080fa0000000600a8
:020000040000fa
:10481400860b00000002000000000000c409000034
:10482400a40100000000000000080000c401000012
:1048340000000000800b00000200000000000000e7
:10484400780b000004000000000000007c0b000056
:104854000400000000000000680b000006000000d7
:1048640000000000820b00000200000000000000b5
:10487400840b0000020000000200000001000000a0
:104884006e0b0000060000000000000000000000a5
:020000040000fa
:10489400f03fb1000180b10006003500ee030900cd
:1048a40000000000403fb1000180b100fbff3d006b
:1048b4001000b000203fb000020035000080090065
:0848c4000000000000000600e6
:020000040000fa
:0200000400fffb
:04e00000000000001c
:020000040000fa
:0200000401f009
:04000000ecbb000055
:020000040000fa
:0200000401f009
:04000400e7ff000012
:020000040000fa
:0200000401f009
:040008004cff0000a9
:020000040000fa
:0200000401f009
:04000c00ffff0000f2
:020000040000fa
:0200000401f009
:04001000ffff0000ee
:020000040000fa
:0200000401f009
:04001400ffff0000ea
:020000040000fa
:0200000401f009
:04001800ffff0000e6
:00000001FF
