:020000040000fa
:080000000001040000000000f3
:020000040000fa
:100008009a0100009a0100009a0100009a0100007c
:100018009a0100009a0100009a0100009a0100006c
:100028009a0100009a0100009a0100009a0100005c
:100038009a0100009a0100009a0100009a0100004c
:100048009a0100009a0100009a0100007a0a000053
:100058009a0100009a0100009a0100009a0100002c
:100068009a0100009a0100009a0100009a0100001c
:100078009a0100009a0100009a0100009a0100000c
:100088009a0100009a0100009a0100009a010000fc
:100098009a0100009a0100009a0100009a010000ec
:1000a8009a0100009a0100009a0100009a010000dc
:1000b8009a0100009a010000940700009a010000cc
:1000c8009a0100009a0100009a0100009a010000bc
:1000d8009a0100009a0100009a0100009a010000ac
:1000e8009a0100009a0100009a0100009a0100009c
:0800f8009a0100009a010000ca
:020000040000fa
:100108009a0100009a0100009a0100009a0100007b
:100118009a0100009a0100009a0100009a0100006b
:100128009a0100009a0100009a0100009a0100005b
:100138009a0100009a0100009a0100009a0100004b
:100148009a0100009a0100009a0100007a0a000052
:100158009a0100009a0100009a0100009a0100002b
:100168009a0100009a0100009a0100009a0100001b
:100178009a0100009a0100009a0100009a0100000b
:100188009a0100009a0100009a0100009a010000fb
:100198009a0100009a0100009a0100009a010000eb
:1001a8009a0100009a0100009a0100009a010000db
:1001b8009a0100009a010000940700009a010000cb
:1001c8009a0100009a0100009a0100009a010000bb
:1001d8009a0100009a0100009a0100009a010000ab
:1001e8009a0100009a0100009a0100009a0100009b
:0801f8009a0100009a010000c9
:020000040000fa
:100200004fb220000e7f22000e0188000000000087
:10021000000020000000e000020032000001200089
:10022000200288000c000700c04d210001002000c2
:1002300011000700000020000000e0000200320072
:1002400000000200000000004e0802000000000054
:100250000040da000000fe004440a9000000200039
:100260000000e0000300320000002000a001880030
:100270004440a8000000060091018800800078003a
:100280000000eb0015003700e280400032a0b4000f
:100290009101ba00e280400032a0b4009102ba009d
:1002a000e280400032a0b4000002eb00472bde00e9
:1002b000f507b200602ce10004003a000059eb00a1
:1002c0008301e900fdff3e00040037006128e100e2
:1002d000010032000082eb00040007001101ba00a7
:1002e0000200e000e8ff3a00000006003159ba00c1
:1002f0008301e9000c0032002159ba008301e900b2
:10030000080032000400e00003003a00e2804000f0
:1003100032a0b400f5ff370011d9ba008301e9001b
:10032000faff3a008100e800e180400032a0b4000a
:10033000000006000040da000000fe006022b80065
:10034000060220000000d0008180d2000482d2008a
:100350008582d2000000a0000202520083825a006f
:10036000030031000202420083824a000000a10023
:0c0370000603e900f3ff3a00000006005d
:020000040000fa
:10037c000000fa0014000700ac010700a3000700fe
:10038c00020007000080fa00000006000000fa00de
:10039c00250480000408200004826200e00f520053
:1003ac000700320084e0a900044e80000402e8003b
:1003bc00044e8800444c80000400a000444c88008b
:1003cc000080fa00000006000a00fa002e00370038
:1003dc008e007800008020002f0807009e02780015
:1003ec00840720008482620084032000848f5200e2
:1003fc0004003200b44d80000402e800b44d8800c3
:10040c00210037009e027800844b2100848f52001b
:10041c0003003a000e007800a70007001a0037000e
:10042c009e027800845b2100848f520003003a0006
:10043c000e00780040000700130037009e02780081
:10044c0084632100848f520003003a000e00780070
:10045c00e60007000c0037009e027800c4c721009c
:10046c008482620084032100848f520003003a00ce
:10047c000e0078003000070003003700944d800018
:10048c000402e800944d880000802000b4070700a7
:10049c0000027800e00f5200cdff3a007445800056
:1004ac00d44d880034408000e44d88000080fa0070
:1004bc00000006000400fa00000f780011079800f5
:1004cc001e027800940278001e029000040378004b
:1004dc0005037300860278001e027800050a780076
:1004ec000080fa00000006000400fa00000f7800fb
:1004fc00110798001e027800940278001e029000ea
:10050c000482ea00848262001e027800050a7800e8
:10051c000080fa00000006000400fa00000f7800ca
:10052c00110798001e0290001e0262000400780061
:10053c000080fa00000006000400fa001007980082
:10054c001e029000c4029000050f780004002f00da
:10055c009e02620004002700848f520004003200c7
:10056c00a44d80000402e800a44d8800250037004b
:10057c00f4ff20009e026200f40f2000848f5200d2
:10058c0004003e00a44d80000402e800a44d880045
:10059c001c003700f4ff20009e026200f42f2000a4
:1005ac00848f520003003e001e009000a608070036
:1005bc0014003700f4ff20009e026200f43f20007c
:1005cc00848f520004003e00a44d80000402e80019
:1005dc00a44d88000b003700f4ff20009e0262003f
:1005ec00f44f2000848f520003003e001e00900048
:1005fc00b300070003003700a44d80000402e8009c
:10060c00a44d88000080fa00000006000200fa00e9
:10061c00344c8000630f62000a0007001e02780051
:10062c00e00f520005003a00344c80006302620077
:10063c00e00f520001003200a90007000080fa0010
:10064c00000006000000fa00454c8000844c80003d
:10065c0004826200e00f520004003200344c80002f
:10066c000400a000344c880004003700354c800096
:10067c00e4ff2f0004826200344c8800354c80006b
:10068c00744c800004826200e00f520004003200bf
:10069c00344c80000410a000344c88000400370057
:1006ac00354c8000d4ff2f0004826200344c88004b
:1006bc000080fa00000006000400fa001007980001
:1006cc001e029000c4029000050f780004002f0059
:1006dc009e02620004002700848f52000400320046
:1006ec00a44d80000402e800a44d880013003700dc
:1006fc00f4ff20009e026200f4072000848f520059
:10070c0003003e001e0090000e0007000b00370097
:10071c00f4ff20009e026200f40f2000848f520030
:10072c0003003e001e009000510807000300370034
:10073c00a44d80000402e800a44d88000080fa005b
:10074c00000006000400fa00100798001e0290003a
:10075c00c4029000050f7800f4ff20001e0f620009
:10076c001e02780005002000560020000700200023
:10077c00860f5200878f5a0014003e00046001005f
:10078c000500370006003700100037001400370052
:10079c0005003700090037004b080700110037002f
:1007ac000000fe000f003700354c8000f4fe2f00d7
:1007bc0004826200344c88000a003700344c8000fc
:1007cc000440a000344c880006003700a44d800083
:1007dc000402e800a44d880000000000010037006e
:1007ec00000000000080fa00000006000400fa007f
:1007fc00100798001e029000c4029000050f7800ac
:10080c0004002f009e02620004002700848f520017
:10081c0004003200a44d80000402e800a44d8800be
:10082c0025003700f4ff20009e026200f40f200028
:10083c00848f520004003e00a44d80000402e800a6
:10084c00a44d88001c003700f4ff20009e026200bb
:10085c00f42f2000848f520003003e001e009000f5
:10086c000d08070014003700f4ff20009e02620000
:10087c00f43f2000848f520004003e00a44d800001
:10088c000402e800a44d88000b003700f4ff2000a0
:10089c009e026200f44f2000848f520003003e0041
:1008ac001e0090000a00070003003700a44d8000d2
:1008bc000402e800a44d88000080fa000000060045
:1008cc000200fa00000f78000080fa000000060019
:1008dc000200fa00000f78000080fa000000060009
:1008ec000a00fa00c4832a00040f780055ff0700a1
:1008fc00344c800014079800444c80002407980066
:10090c00544c800034079800644c800044079800d5
:10091c00e14120000e0078000e070700344d8000e6
:10092c000402e800344d88000080fa000000060044
:10093c000200fa00000f78000060fe000002eb00dd
:10094c00540888000080fa00000006001400fa0029
:10095c00500798006107980072079800030f9800e1
:10096c00140f98005e0290006f026200540798000a
:10097c00de02900004072000050272005407980064
:10098c005e0290000402420054079800de029000c0
:10099c000460200005027200540798005e0290006b
:1009ac004222dd00540798005e029000040f78008c
:1009bc009e02780004f02f0004826200040f78007d
:1009cc001e0278004322dd00040f78009e0278009e
:1009dc005e039000f40f2000040263000502720015
:1009ec00040f78001e0a9000140798000e0a90005d
:1009fc00240798007e029000340798006e02900045
:100a0c00440798008e007800808a20008a06070030
:100a1c007421800068026200e00f520001003a006d
:100a2c0088c0a8000080fa00000006000000fa0050
:100a3c00250480000404200004826200e00f5200b0
:100a4c009f00320084c0a900144e80000402e8000c
:100a5c00144e8800144e80006f026200144e880001
:100a6c009fff0700144e800005002000f6002000b8
:100a7c0007002000860f5200878f5a0090003e001e
:100a8c00046001000f003700180037002000370009
:100a9c0029003700320037003b0037004400370094
:100aac004d003700560037005f00370068003700f4
:100abc00710037007a0037007b0037007c0037006c
:100acc007d003700e44a8000d74a8000c64a800087
:100adc00b54a80008701780006017800850078000f
:100aec000000eb0099ff070075003700064b8000f3
:100afc00f54a80000002eb008001eb000601780053
:100b0c00850078001000200090ff07006c00370073
:100b1c00644b8000574b8000464b8000354b800067
:100b2c0087017800060178008500780020002000fd
:100b3c0086ff070062003700a44b8000974b8000b3
:100b4c00864b8000754b8000870178000601780089
:100b5c0085007800300020007cff0700580037002b
:100b6c00e44b8000d74b8000c64b8000b54b800017
:100b7c00870178000601780085007800400020008d
:100b8c0072ff07004e003700244c8000174c800089
:100b9c00064c8000f54b8000870178000601780038
:100bac00850078005000200068ff070044003700e3
:100bbc00444d8000374d8000264d8000154d80003f
:100bcc0087017800060178008500780080002000fd
:100bdc005eff07003a003700844d8000774d80009f
:100bec00664d8000554d8000870178000601780025
:100bfc00850078009000200054ff0700300037007b
:100c0c00c44d8000b74d8000a64d8000954d8000ee
:100c1c00870178000601780085007800a00020008c
:100c2c004aff070026003700044e8000f74d800075
:100c3c00e64d8000d54d80008701780006017800d4
:100c4c0085007800b000200040ff07001c00370032
:100c5c00c44c8000b74c8000a64c8000954c8000a2
:100c6c00870178000601780085007800600020007c
:100c7c0036ff070012003700044d8000f74c80004f
:100c8c00e64c8000d54c8000870178000601780086
:100c9c0085007800700020002cff0700080037004a
:100cac000c070700060037000d070700040037008b
:100cbc000e070700020037000f07070000000000b6
:100ccc000080fa00000006000e00fa0050079800a1
:100cdc00610798000002eb00040f78006e02900090
:100cec00240798005e02900014079800e140200051
:100cfc000e00780017060700444d80000402e8003f
:100d0c00444d88000080fa00000006001000fa0034
:100d1c00500798006107980072079800c4032a00d6
:100d2c00040f78007e029000140798005e02900079
:100d3c00240798006e029000e10f520003003a0065
:100d4c0004102e00440798000200370014102e00e7
:100d5c0044079800e14020000e007800fd050700d4
:100d6c00444d80000402e800444d88000080fa00e5
:100d7c00000006000000fa0090c0a90088c0a9007d
:100d8c00340580000480a1000490a10004a0a00000
:100d9c00340588000002eb00b42288005804a80037
:100dac005824a8005844a80058a4a800008020008b
:100dbc00f2050700808a2000f0050700044020009f
:100dcc00842288000000000085228000040e200090
:100ddc008482620004082000848f5200faff3a00db
:100dec00140020009422880014392000a4228800ca
:100dfc0014802100841f8800d4872100c41f880020
:100e0c000002eb00041e880004802000441e8800b1
:100e1c0084032100841e8800c47f2100c41e880026
:100e2c00c47f2100041f8800c47f2100441f880058
:100e3c00140020007421880024002000f420880075
:100e4c003400200074208800040c20002421880029
:100e5c00040c2000a4208800040c2000242088000e
:100e6c000002eb00742288000002eb00f4218800e1
:100e7c000002eb0084228800000000008522800024
:100e8c00040e200004826200e00f5200fbff3a00c7
:100e9c0090c0a80054fb25008408880024f420008e
:100eac00640888000002eb003408880084c0a900a4
:100ebc008cc0a90011e1a800d4fb2500940888007f
:100ecc00546222007408880084e0a9008ce0a90018
:100edc0013e1a8000002eb00944c880004d8280011
:100eec00a44c8800441f2000b44c8800140420003b
:100efc00c44c8800940c2000d44c88000002eb00f9
:100f0c00f44c88000002eb00e44c88004400200004
:100f1c00044d88000080fa00000006003600f8003e
:100f2c00809fbe00829fbe00849fbe00869fbe0035
:100f3c000a00fa0088c0a900844d80000402e80071
:100f4c00844d880075228000040820000482620011
:100f5c00e00f52001800320074228000610262001f
:100f6c00e00f52000b003a00544d80000402e800e0
:100f7c00544d8800e14420000e0078001a0507004b
:100f8c003e029000844a88004e029000944a8800e9
:100f9c0008003700644d80000402e800644d8800ae
:100fac00e14420000e0078000f0507000e007800c9
:100fbc005ffe07005604a900f521800004082000fc
:100fcc0004826200e00f520007003200744d800072
:100fdc000402e800744d8800e143200000802000ea
:100fec00e40407005624a900742180006802620002
:100ffc00e00f52000c003a00808a2000d804070051
:10100c0000027800e00f520007003200e14220009d
:10101c00808a2000390507005644a900c44d800081
:10102c000402e800c44d8800b522800004022000b0
:10103c0004826200e00f520005003200244d800053
:10104c000402e800244d880056a4a90007003700cc
:10105c008416800070026200e00f52000200320021
:10106c00d082a90001003700d082a800d4228000d1
:10107c00144d88000080fa004f03be004f02be00e2
:10108c004f01be004f00be003600f90000400600c4
:10109c000000fa0004012000b45888000100070089
:1010ac00feff37000000fa00b4588000f00f520029
:1010bc000400320005022000850f520005003200aa
:1010cc00210037002900070004022000b4588800d2
:1010dc00200037004100200060982000f5fc07003c
:1010ec00140037001d000700a1fc0700344c8000e1
:1010fc00410020000400780007fd07000002780082
:10110c00e00f520002003a0004032000b45888009b
:10111c00344c80001100200004007800fefc070015
:10112c0000027800e00f520002003200040120009f
:10113c00b4588800b558800004022000848f5200f7
:10114c00e8ff32000300370004012000b458880087
:10115c00000000000080fa00000006000000fa0009
:10116c0083fc07000080fa00000006000000fa0073
:10117c0004602900e44f88000002eb00f44f880063
:10118c0004002800045088000002eb001450880072
:10119c0004002800245088000002eb003450880022
:1011ac0004602900045188000002eb0014518800ef
:1011bc0004002800245188000002eb003451880000
:1011cc0004002800445188000002eb0054518800b0
:1011dc0004602900245288000002eb00345288007d
:1011ec0004002800445288000002eb00545288008e
:1011fc0004002800645288000002eb00745288003e
:10120c0004602900445388000002eb00545388000a
:10121c0004002800645388000002eb00745388001b
:10122c0004002800845388000002eb0094538800cb
:10123c00c48c2500845588000002eb00945588006e
:10124c0004002800a45588000002eb00b455880067
:10125c0004002800c45588000002eb00d455880017
:10126c00c48c2500a45688000002eb00b4568800fc
:10127c0004002800c45688000002eb00d4568800f5
:10128c0004002800e45688000002eb00f4568800a5
:10129c00c48c2500c45788000002eb00d45788008a
:1012ac0004002800e45788000002eb00f457880083
:1012bc0004002800045888000002eb001458880031
:1012cc00340580000400a0000410a0000420a0003d
:1012dc00340588008220a900c404800004c0a10049
:1012ec0004d0a00004e0a000c404880004002f0077
:1012fc00041688000082eb00341688000002eb0014
:10130c006416880004002c00941688000402200047
:10131c00f41688003416200024178800d4f92d0008
:10132c00040988000002eb00c408880086c0a900ec
:10133c00440d2300e4088800f4cf2700041588002e
:10134c00e4fd20001415880084442e002415880028
:10135c00242e2e003415880034002f0044158800ec
:10136c00f4772f00541588008560a9008d60a800c3
:10137c00a1e2a8000400240065002000244e88008f
:10138c00354e880004022000a5002000444e880041
:10139c00554e880024c0b30004007800cce9b70097
:1013ac00f4532000744e88000002eb00844e880039
:1013bc0004002a00944e880004242400f500200028
:1013cc00a44e8800b54e88000468290085092000c9
:1013dc00c44e8800d54e880004002800650020000b
:1013ec00e44e8800f54e880004022000a500200081
:1013fc00044f8800154f8800c49c200014427800cc
:10140c0004007800e4e9b700744e8000344f880083
:10141c00844e8000444f8800944e8000544f8800c6
:10142c00a44e8000b54e8000644f8800754f880034
:10143c00c44e8000d54e8000844f8800954f8800a4
:10144c00409c200052040700c09d2000500407005f
:10145c0048fe070000242400f1002000630507006b
:10146c000060fe00d082a80000242400f1002000bf
:10147c005e0507000060fe00d062a8000024240076
:10148c00f1002000590507000060fe00d042a800c2
:10149c0000242400f1002000540507000060fe0029
:1014ac00d022a80000242400f10020004f050700e2
:1014bc000060fe00e9e2a80000242400f1002000f6
:1014cc004a0507000060fe00e9a2a80000242400e1
:1014dc00f1002000450507000060fe00e982a8002d
:1014ec000080fa0000000600801f7800849fbe0078
:1014fc00869fbe000000fa008560a90015158000cb
:10150c000408200004826200e00f52004100320007
:10151c00a64f8000b74f8000041480000500200007
:10152c000602420087824a00a44f8800b54f88000b
:10153c00c6508000d7508000141480000500200095
:10154c000602420087824a00c4508800d5508800a9
:10155c00e6518000f7518000241480000500200023
:10156c000602420087824a00e4518800f551880047
:10157c0006538000175380003414800005002000af
:10158c000602420087824a000453880015538800e3
:10159c00265480003754800044148000050020003d
:1015ac000602420087824a00245488003554880081
:1015bc0046558000575580005414800005002000cb
:1015cc000602420087824a0044558800555588001f
:1015dc006656800077568000641480000500200059
:1015ec000602420087824a006456880075568800bd
:1015fc0086578000975780007414800005002000e7
:10160c000602420087824a0084578800955788005a
:10161c0040003700a64f8000b74f80008414800034
:10162c00050020000602420087824a00a44f880071
:10163c00b54f8800c6508000d750800094148000ad
:10164c00050020000602420087824a00c450880030
:10165c00d5508800e6518000f7518000a41480001a
:10166c00050020000602420087824a00e4518800ef
:10167c00f55188000653800017538000b414800085
:10168c00050020000602420087824a0004538800ad
:10169c00155388002654800037548000c4148000f1
:1016ac00050020000602420087824a00245488006c
:1016bc00355488004655800057558000d41480005e
:1016cc00050020000602420087824a00445588002b
:1016dc00555588006656800077568000e4148000cb
:1016ec00050020000602420087824a0064568800ea
:1016fc00755688008657800097578000f414800038
:10170c00050020000602420087824a0084578800a8
:10171c0095578800a45880000402e800a45888005b
:10172c00a5588000f4072000848f52007a00360000
:10173c00a44f8000b54f80004d2bdd004322de000e
:10174c0004027300c32ade00a44f8800b54f880042
:10175c00a44f8000b54f800004027800c44f88006d
:10176c006022b800a44f8800b54f8800c450800098
:10177c00d55080004d2bdd004322de0004027300a7
:10178c00c32ade00c4508800d5508800c4508000a5
:10179c00d550800004027800e45088006022b80024
:1017ac00c4508800d5508800e4518000f551800069
:1017bc004d2bdd004322de0004027300c32ade0041
:1017cc00e4518800f5518800e4518000f551800007
:1017dc0004027800045288006022b800e4518800aa
:1017ec00f551880004538000155380004d2bdd000b
:1017fc004322de0004027300c32ade000453880077
:10180c00155388000453800015538000040278009f
:10181c00245388006022b8000453880015538800b4
:10182c0024548000355480004d2bdd004322de0013
:10183c0004027300c32ade00245488003554880047
:10184c0024548000355480000402780044548800ed
:10185c006022b80024548800355488004455800018
:10186c00555580004d2bdd004322de000402730031
:10187c00c32ade0044558800555588004455800025
:10188c005555800004027800645588006022b80029
:10189c004455880055558800645680007556800064
:1018ac004d2bdd004322de0004027300c32ade0050
:1018bc006456880075568800645680007556800002
:1018cc0004027800845688006022b80064568800b0
:1018dc007556880084578000955780004d2bdd008d
:1018ec004322de0004027300c32ade008457880002
:1018fc009557880084578000955780000402780023
:10190c00a45788006022b800845788009557880037
:10191c000002eb00a45888000080fa004f03be00c0
:10192c004f02be004f007800004006001400fa0081
:10193c0040479800310798004207980053079800d9
:10194c006407980075079800060f9800170f980009
:10195c003e029000f401b300340798000e0b900087
:10196c009e0b9000463add00ca32de008502720002
:10197c004632dd006e019000fe0190000400be00b6
:10198c006bfa07000002be00048fbe00042020008a
:10199c00050020001e03be00840f5300858f5b00e2
:1019ac0003003e0014002000c458880032003700a9
:1019bc0034802000050020001e03be00840f53005d
:1019cc00858f5b000d003e0044002000c458880049
:1019dc001e02be004e2bdd004222de00040273000c
:1019ec00c22ade00048fbe00be029000e4ff2f006e
:1019fc0004826200340798001f003700f4002200b4
:101a0c00050020001e03be00840f5300858f5b0071
:101a1c000d003e0004012000c45888001e02be00c8
:101a2c004c2bdd004422de0004027300c42ade00cd
:101a3c00048fbe00be029000d4ff2f00048262000f
:101a4c00340798000c00370004042000c4588800a8
:101a5c001e02be004a2bdd004622de00040273008b
:101a6c00c62ade00048fbe00be029000c4ff2f0009
:101a7c000482620034079800041c2000050020003a
:101a8c001e03be00840f5300858f5b0008003600d8
:101a9c00c45880004322dd00c4588800be02900068
:101aac0034fe2f0004826200340798005700370080
:101abc0004182000050020001e03be00840f5300f4
:101acc00858f5b0009003600c45880006722b9007e
:101adc0004027800c4588800be02900074fe2f00e7
:101aec000482620034079800480037000414200078
:101afc00050020001e03be00840f5300858f5b0081
:101b0c0009003600c45880006622b900040278002f
:101b1c00c4588800be029000b4fe2f0004826200fc
:101b2c00340798003900370004102000050020000d
:101b3c001e03be00840f5300858f5b000900360026
:101b4c00c45880006522b90004027800c45888008b
:101b5c00be029000f4fe2f0004826200340798004d
:101b6c002a003700040c2000050020001e03be00d4
:101b7c00840f5300858f5b0008003600c45880002a
:101b8c004222dd00c4588800be02900034ff2f00b2
:101b9c0004826200340798001c00370004082000ff
:101bac00050020001e03be00840f5300858f5b00d0
:101bbc0009003600c45880006322b9000402780082
:101bcc00c4588800be02900074ff2f00048262008b
:101bdc00340798000d003700040420000500200095
:101bec001e03be00840f5300858f5b000700360078
:101bfc00c458800004024200c4588800be02900001
:101c0c00b4ff2f000482620034079800c45880008f
:101c1c004222dd00c45888004e429000e14f520031
:101c2c0004003a003e029000141188005e039000fc
:101c3c00061188004e429000e24f520004003a0018
:101c4c003e029000441188005e039000361188001b
:101c5c000080fa00000006000c00fa004007980013
:101c6c00214f98000042eb00044f78002e4a900060
:101c7c00e14f520054003a008500a9004e0290003a
:101c8c00241188000002eb0034079800180037007c
:101c9c003e0290000402e80034079800c45880000b
:101cac00be029000848f52000300360034c0b30093
:101cbc00044f78000e00370005118000040420004a
:101ccc0004826200e00f52000300320044c0b300f3
:101cdc00044f780006003700041180006202620095
:101cec00e00f520002003a0014c0b300044f780019
:101cfc001e427800e04f5200e5ff32002000370012
:101d0c003e0290000402e80034079800c45880009a
:101d1c00be029000848f52000300360034c0b30022
:101d2c00044f7800160037000511800004042000d1
:101d3c0004826200e00f52000300320044c0b30082
:101d4c00044f78000e00370025048000041020009a
:101d5c0004826200e00f52000300320024c0b30082
:101d6c00044f780006003700041180006102620005
:101d7c00e00f52000200320024c0b300044f780080
:101d8c001e427800e14f5200ddff32001e42780007
:101d9c00e24f520005003a0024118000050020009b
:101dac00140798002507980007003700040020004e
:101dbc00151121001407980025079800d4588000ad
:101dcc000402e800d45888002e4a9000e24f5200da
:101ddc004d003a008740a9004e0290005411880033
:101dec000002eb0034079800180037003e02900008
:101dfc000402e80034079800c4588000be0290002a
:101e0c00848f52000300360034c0b300044f7800b6
:101e1c000e0037003511800004042000048262009b
:101e2c00e00f52000300320044c0b300044f7800ae
:101e3c00060037003411800062026200e00f52008d
:101e4c0002003a0014c0b300044f78001e42780020
:101e5c00e04f5200e5ff3200190037003e029000bf
:101e6c000402e80034079800c4588000be029000b9
:101e7c00848f52000300360034c0b300044f780046
:101e8c000f0037003511800004042000048262002a
:101e9c00e00f52000300320044c0b300044f78003e
:101eac0007003700350480000440200004826200e3
:101ebc00e00f52000200320024c0b300044f78003f
:101ecc001e427800e14f5200e4ff32001e427800bf
:101edc00e24f520005003a0054118000050020002a
:101eec00140798002507980007003700040020000d
:101efc00151121001407980025079800e45880005c
:101f0c000402e800e45888001e029000ae02900023
:101f1c000400be000080fa00000006000400fa0075
:101f2c00100798001e029000740390001e0290008f
:101f3c00e40290001e029000140278000601780062
:101f4c008500780004007800830207000002780006
:101f5c00040f78001e029000940a90001e0290005c
:101f6c00040a900005017800840078001e007800b7
:101f7c006402070000027800040f78001e02900033
:101f8c00b40a90001e029000240a9000050178000b
:101f9c00840078001e0078005a02070000027800c6
:101fac00040f78001e02900024029000e00f5200f3
:101fbc0003003a001e029000d4029000050f780036
:101fcc001e0290009e027800150298000080fa0014
:101fdc00000006000400fa00100798001e02900092
:101fec00140b90001e029000840a90001e029000b8
:101ffc002402900006017800850078000400780027
:10200c005502070000027800040f78001e029000b1
:10201c00f40290001e02900064029000050178000a
:10202c00840078001e007800360207000002780059
:10203c00040f78001e029000d40290001e02900043
:10204c004402900005017800840078001e0078009e
:10205c004102070000027800040f78001e02900075
:10206c009e027800350298000080fa0000000600fd
:10207c000400fa00000f7800110798001e02780087
:10208c00b40290001e029000848f520003003100b5
:10209c001e027800b4029000150798001e0278000a
:1020ac00c40290001e029000848f52000300360080
:1020bc001e027800c4029000150798001e027800da
:1020cc009e029000050a78000080fa0000000600cd
:1020dc000200fa00000f78001e027800b402900093
:1020ec001e027800240a9000848f520002003600f1
:1020fc0014002000010037000002eb0004007800ff
:10210c000080fa00000006000200fa00000f7800c0
:10211c001e027800b40290001e027800340a90006f
:10212c00848f52000200310014002000010037009f
:10213c000002eb00040078000080fa0000000600aa
:10214c000400fa00100798001e029000d40a9000b8
:10215c001e029000440a90000001eb0085007800fc
:10216c0004007800e701070000027800040f7800f3
:10217c001e029000640a90009e0f5200030036006d
:10218c001e029000e40a9000050f780004f02f0066
:10219c009e0252001e029000440a9000848f52004e
:1021ac00040036001e029000440a90001e0f4200ec
:1021bc000200370004f02f00040f78001e0290007c
:1021cc00340290009e0f5200060036001e02900052
:1021dc00740a90008402e8001e029000750a9800b0
:1021ec00090037001e029000740a9000e00f5200a4
:1021fc00050032001e029000740a90008402e9006f
:10220c001e029000750a98001e029000f40a9000bd
:10221c001e02900014129000848f520006003900a8
:10222c001e029000941290001e029000750a9800f5
:10223c0014002000010037000002eb0004007800bd
:10224c000080fa00000006000400fa001007980055
:10225c001e029000d40a90001e029000440a9000c6
:10226c000001eb008500780004007800a501070050
:10227c0000027800040f78001e029000640a90009f
:10228c009e0f5200030036001e029000e40a9000dc
:10229c00050f78001e029000440a90009e0f520019
:1022ac00040031001e029000440a90001e0f5200e0
:1022bc00020037000002eb00040f78001e029000b1
:1022cc00340290009e0f5200060031001e02900056
:1022dc00041290008402e8001e029000051298007f
:1022ec00090037001e02900004129000e00f52000b
:1022fc00050032001e029000041290008402e900d6
:10230c001e029000051298001e029000841290008c
:10231c001e02900014129000848f520006003900a7
:10232c001e029000941290001e029000051298005c
:10233c0014002000010037000002eb0004007800bc
:10234c000080fa0000000600100190009000780058
:10235c00010051000000e900f000b200000006008e
:10236c00100190009000780002805000f000b20044
:10237c00000006001170a6001a003700e4014000ae
:10238c009309e800900190001001e800f200b200ff
:10239c000310e10010003200100178006a11b8003f
:1023ac00e8014000828141006e8150009219780052
:1023bc0066014100b2197800b2197800b2197800a0
:1023cc00b21978001001e800f200b200020878009f
:1023dc00e60140009309e900e60140009309e8009a
:1023ec001170a100000006001170a6000900370052
:1023fc006e81500012187800660141003218780086
:10240c003218780032187800321878001170a10058
:10241c0008003700827f210002187800020020009b
:10242c000218780002187800021878000218780058
:10243c003100370000000600e40140009309e80079
:10244c00900190001001e800f200b2000310e100ce
:10245c000e003200100178006a11b800e80140004b
:10246c0082814100b1197800b1197800b119780056
:10247c00b1197800b11978001001e800f200b2002f
:10248c0002087800e60140009309e900e6014000eb
:10249c009309e800000006001001900090017800fc
:1024ac000310e10008003a00837f210083187800b4
:1024bc0003002000831878008318780083187800b4
:1024cc00831878000c0037006a11b80068014100cd
:1024dc0000014100b2187800b2187800b2187800e8
:1024ec00b2187800b2187800100190000201e800d0
:1024fc00f200b20012009800000006001130a70094
:10250c001300370010019000900178000310e100d7
:10251c000f0032006a11b80068014100000141004f
:10252c00ee815000b2097800e6814100b2197800c2
:10253c00b2197800b2197800b21978001130a000e5
:10254c00100190000201e800f200b20012009800a5
:10255c00000006001130a1006e8150003009780097
:10256c006601410030197800301978003019780074
:10257c00301978001130a000000006000018eb00a4
:10258c000018eb000018eb000008eb000000060040
:10259c000200fa00000f78001e027800b4029000ce
:1025ac00240290000400be00610007001e027800a7
:1025bc001402be000400be005d0007001e0278007d
:1025cc00b4029000240290000400be008c000700ae
:1025dc001e0278001402be000400be008800070032
:1025ec001e027800240b9000b40b90001e027800a1
:1025fc00940a9000040a90001e007800f0019000ec
:10260c001e007800600190001e007800d000900041
:10261c001e00780000489000c4fc07000080fa00ff
:10262c00000006000c00fa003007980041079800e3
:10263c0052079800de029000f4ff20000482620032
:10264c0054079800ce02900004002f000482620010
:10265c0044079800ce0290005e02900005027200c2
:10266c00440798000042eb00044f78003e029000b3
:10267c001402be000400be003e0007003e029000a3
:10268c00044a9000844078004e00900072fd0700d0
:10269c000002be0014079800250798001e03900046
:1026ac00ae0390000400200015112100840f53008c
:1026bc00858f5b0002003a0014c0b300044f780011
:1026cc003e0290001402be000400be001800070079
:1026dc003e029000b4029000240290000400be0060
:1026ec0024000700000000000000000000000000b3
:1026fc00000000003e029000b40290002402900002
:10270c000400be000a0007001e427800e04f520091
:10271c0003003200145980000402e80014598800a8
:10272c001e427800044078000080fa000000060089
:10273c0001600100c422b70000000600ca22b700e5
:10274c0000000600d022b70000000600d622b70019
:10275c00000006000000000000000600e222b700a6
:10276c0000000600e822b700000006000000000090
:10277c00000006000080ea0001600100c422b600df
:10278c0000000600ca22b60000000600d022b600e7
:10279c0000000600d622b600000006000000000073
:1027ac0000000600e222b60000000600e822b60097
:1027bc00000006000000000000000600016001009f
:1027cc00c022b70000000600c622b70000000600b9
:1027dc00cc22b70000000600d222b7000000060091
:1027ec000000000000000600de22b700000006001a
:1027fc00e422b70000000600000000000000060004
:10280c000080ea0001600100c022b6000000060052
:10281c00c622b60000000600cc22b600000006005e
:10282c00d222b600000006000000000000000600e6
:10283c00de22b60000000600e422b600000006000e
:10284c0000000000000006000400fa0010079800c9
:10285c001e029000c4029000050f7800a44d800069
:10286c000402e800a44d88000080fa000000060075
:10287c000400fa00100798001e029000c402900099
:10288c00050f7800a44d80000402e800a44d8800d8
:10289c000080fa00000006000400fa0010079800ff
:1028ac001e029000c4029000050f7800f4ff200077
:1028bc001e0f6200a44d80000402e800a44d8800a5
:1028cc000080fa00000006000000fa000080fa0008
:1028dc00000006000000fa000080fa00000006006c
:1028ec000000fa000080fa00000006000000fa0068
:1028fc000080fa00000006000000fa000080fa00d8
:10290c00000006000200e00005003b000200400051
:10291c0008003100000020001e2bec0005003700e1
:10292c000200400003003900f0ff2f001e2bec00ca
:10293c00000037000101b8006218b8000100e00087
:10294c0002003200f0ff2f001e2bec00cf10de0037
:10295c0001007000000006000200e00005003b00d2
:10296c00020040000800310000002000202bec0089
:10297c00050037000200400003003900f0ff2f0073
:10298c00202bec00000037000101b8007018b800d3
:10299c000100e00002003200f0ff2f00202bec00c1
:0c29ac00cc10de000100700000000600ee
:020000040000fa
:1029b800c4090000540100000000000000080000e5
:1029c800c401000000000000180b00000600000011
:1029d80000000000220b00000200000000000000c0
:1029e8001e0b0000040000000000000000000000b2
:020000040000fa
:1029f800f03fb1000180b10006003500ee03090088
:102a080000000000403fb1000180b100fbff3d0025
:102a18001000b000203fb00002003500008009001f
:082a28000000000000000600a0
:020000040000fa
:0200000401f009
:04000000ecbb000055
:020000040000fa
:0200000401f009
:04000400e7ff000012
:020000040000fa
:0200000401f009
:040008004cff0000a9
:020000040000fa
:0200000401f009
:04000c00ffff0000f2
:020000040000fa
:0200000401f009
:04001000ffff0000ee
:020000040000fa
:0200000401f009
:04001400ffff0000ea
:020000040000fa
:0200000401f009
:04001800ffff0000e6
:00000001FF
