:020000040000fa
:080000000001040000000000f3
:020000040000fa
:100008009a0100009a0100009a0100009a0100007c
:100018009a0100009a0100009a0100009a0100006c
:100028009a0100009a0100009a0100009a0100005c
:100038009a0100009a0100009a0100009a0100004c
:100048009a0100009a0100009a0100000a0f0000be
:100058009a0100009a0100009a0100009a0100002c
:100068009a0100009a0100009a0100009a0100001c
:100078009a0100009a0100009a0100009a0100000c
:100088009a0100009a0100009a0100009a010000fc
:100098009a0100009a0100009a0100009a010000ec
:1000a8009a0100009a0100009a0100009a010000dc
:1000b8009a0100009a010000540a00009a01000009
:1000c8009a0100009a0100009a0100009a010000bc
:1000d8009a0100009a0100009a0100009a010000ac
:1000e8009a0100009a0100009a0100009a0100009c
:0800f8009a0100009a010000ca
:020000040000fa
:100108009a0100009a0100009a0100009a0100007b
:100118009a0100009a0100009a0100009a0100006b
:100128009a0100009a0100009a0100009a0100005b
:100138009a0100009a0100009a0100009a0100004b
:100148009a0100009a0100009a0100000a0f0000bd
:100158009a0100009a0100009a0100009a0100002b
:100168009a0100009a0100009a0100009a0100001b
:100178009a0100009a0100009a0100009a0100000b
:100188009a0100009a0100009a0100009a010000fb
:100198009a0100009a0100009a0100009a010000eb
:1001a8009a0100009a0100009a0100009a010000db
:1001b8009a0100009a010000540a00009a01000008
:1001c8009a0100009a0100009a0100009a010000bb
:1001d8009a0100009a0100009a0100009a010000ab
:1001e8009a0100009a0100009a0100009a0100009b
:0801f8009a0100009a010000c9
:020000040000fa
:100200000fd920000e7f22000e01880000000000a0
:10021000000020000000e000020032000001200089
:10022000200288000c000700603f2200010020002f
:1002300011000700000020000000e0000200320072
:1002400000000200000000000e0b02000000000091
:100250000040da000000fe004440a9000020200019
:100260000000e0000300320000002000a001880030
:100270004440a8000000060091018800800078003a
:100280000000eb0015003700e280400032a0b4000f
:100290009101ba00e280400032a0b4009102ba009d
:1002a000e280400032a0b4000002eb00472bde00e9
:1002b000f507b200602ce10004003a000059eb00a1
:1002c0008301e900fdff3e00040037006128e100e2
:1002d000010032000082eb00040007001101ba00a7
:1002e0000200e000e8ff3a00000006003159ba00c1
:1002f0008301e9000c0032002159ba008301e900b2
:10030000080032000400e00003003a00e2804000f0
:1003100032a0b400f5ff370011d9ba008301e9001b
:10032000faff3a008100e800e180400032a0b4000a
:10033000000006000040da000000fe003200f80075
:10034000910188000008bb00410424006210e10014
:1003500004003200000220000010e1000a003a0010
:1003600051042400013b88000500fc0051052000d9
:10037000313b8800a10a2000313b880061e7a800da
:1003800000000000000000003200f900000006003c
:100390003200f80060042400003b8800f2ff3700c0
:1003a0003200f8009101880041002400013b8800e0
:1003b0000208bb00ecff37003200f8009101880012
:1003c00051002400013b8800030120003218bb00cb
:1003d0008301e900fdff3a00e3ff37003200f80037
:1003e000910188008002780062004000e0804800af
:1003f0003549ba003204e0000410a70010003200b2
:100400008301e9000e0032002549ba003204e00001
:100410000410a7000a0032008301e900080032003e
:100420000408a300eeff320015c9ba003204e00050
:100430000410a700020032008301e900e8ff3a003f
:100440003200f900000006006022b8000602200019
:100450000000d0008180d2000482d2008582d200c8
:100460000000a0000202520083825a000300310003
:100470000202420083824a000000a1000603e90054
:08048000f3ff3a000000060042
:020000040000fa
:10048800045b0000045b0000045b0000045b0000e8
:10049800045b0000045b0000da5b0000ad5c000058
:1004a800735d0000245e0000c45e0000585f000019
:1004b800e25f000066600000e0600000526100003a
:1004c800c36100002d62000096620000f86200001f
:1004d80054630000ad630000056400005964000027
:1004e800ae640000fd6400004965000095650000e9
:1004f800dd650000266600006e660000b06600003c
:10050800f26600003567000078670000b7670000f2
:10051800f3670000316800006e680000a9680000f9
:10052800e26800001b690000546900008d69000042
:10053800c4690000fa690000306a0000646a0000bb
:10054800976a0000cb6a0000fe6a0000316b000069
:10055800636b0000956b0000c76b0000f86b000030
:10056800286c0000586c0000896c0000b96c000011
:10057800e76c0000166d0000466d0000746d000009
:10058800a26d0000cf6d0000fb6d0000286e00001a
:10059800566e0000836e0000b16e0000dd6e000034
:1005a800086f0000336f00005f6f00008c6f000061
:1005b800b86f0000e46f00000f7000003a70000090
:1005c8006570000090700000bc700000e7700000cb
:1005d800117100003b71000065710000917100000d
:1005e800bc710000e8710000137200003d72000049
:1005f8006772000092720000bd720000e87200008d
:10060800127300003c7300006773000092730000cf
:10061800be730000e9730000147400003f7400000a
:100628006b74000097740000c4740000ef7400003d
:100638001a75000046750000737500009f7500006c
:10064800cb750000f8750000257600005376000091
:1006580081760000af760000dc7600000a770000a3
:10066800387700006777000097770000c6770000aa
:10067800f5770000247800005378000083780000a4
:10068800b4780000e6780000187900004a79000084
:100698007c790000ad790000e0790000157a00004f
:1006a8004b7a00007e7a0000b27a0000ea7a0000f5
:1006b800207b0000557b00008c7b0000c67b00007f
:1006c800ff7b0000387c0000717c0000ab7c0000e0
:1006d800e67c0000227d0000607d00009e7d000019
:1006e800dc7d00001c7e00005e7e0000a17e000014
:1006f800e37e0000267f0000697f0000af7f0000d6
:10070800f77f0000ff7f0000ff7f0000ff7f0000f1
:10071800ff7f0000ff7f0000ff7f0000ff7f0000d9
:10072800ff7f0000ff7f0000ff7f0000ff7f0000c9
:10073800ff7f0000ff7f0000ff7f0000ff7f0000b9
:10074800ff7f0000ff7f0000ff7f0000ff7f0000a9
:10075800ff7f0000ff7f0000ff7f0000ff7f000099
:10076800ff7f0000ff7f0000ff7f0000ff7f000089
:10077800ff7f0000ff7f0000ff7f0000ff7f000079
:10078800ff7f0000ff7f0000ff7f0000ff7f000069
:10079800ff7f0000ff7f0000ff7f0000ff7f000059
:1007a800ff7f0000ff7f0000ff7f0000ff7f000049
:1007b800ff7f0000ff7f0000ff7f0000ff7f000039
:1007c800ff7f0000ff7f0000ff7f0000ff7f000029
:1007d800ff7f0000ff7f0000ff7f0000ff7f000019
:1007e800ff7f0000ff7f0000ff7f0000ff7f000009
:1007f800ff7f0000ff7f0000ff7f0000ff7f0000f9
:10080800ff7f0000ff7f0000ff7f0000ff7f0000e8
:10081800ff7f0000ff7f0000ff7f0000ff7f0000d8
:10082800ff7f0000ff7f0000ff7f0000ff7f0000c8
:10083800ff7f0000ff7f0000ff7f0000ff7f0000b8
:10084800ff7f0000ff7f0000ff7f0000ff7f0000a8
:10085800ff7f0000ff7f0000ff7f0000ff7f000098
:10086800ff7f0000ff7f0000ff7f0000ff7f000088
:10087800ff7f0000ff7f0000ff7f0000ff7f000078
:020000040000fa
:100888000000fa002e000700a8010700bc000700be
:100898001c000700044e8000d44a8800d54a800016
:1008a800d44d800004824200d44a8800d54a800092
:1008b800e44d800004824200d44a8800d54a800072
:1008c800f44d800004824200d44a8800d54a800052
:1008d800b44d800004824200d44a8800d54a800082
:1008e800a44d800004824200d44a8800d54a800082
:1008f800944d800004824200d44a88000080fa00a7
:10090800000006000000fa0025048000040820000a
:1009180004826200e00f52000700320084e0a90060
:10092800044e80000402e800044e8800044e800053
:10093800045c88008629a8000080fa0000000600f0
:100948000a00fa002d0037008e0078000080200091
:10095800010e07009e02780084072000848262004e
:1009680004032000848f520004003200b44d80003c
:100978000402e800b44d8800200037009e02780089
:10098800044b2100848f520003003a000e007800c7
:100998008a000700190037009e027800045b2100d6
:1009a800848f520003003a000e0078003f000700d1
:1009b800120037009e02780004632100848f5200e1
:1009c80003003a000e007800b60007000b0037005d
:1009d8009e027800c4c721008482620004032100bb
:1009e800848f520005003a000e0078002f0007009f
:1009f800944d80000402e800944d88000080200097
:100a0800870d070000027800e00f5200ceff3a0081
:100a180074458000d44d880034408000e44d88003f
:100a28000080fa00000006000400fa00000f7800b9
:100a3800110798001e027800940278001e029000a8
:100a48000403780005037300860278001e0278000c
:100a5800050a78000080fa00000006000400fa0089
:100a6800000f7800110798001e02780094027800a1
:100a78001e0290000482ea00848262001e0278004e
:100a8800050a78000080fa00000006000400fa0059
:100a9800000f7800110798001e0290001e026200e5
:100aa800040078000080fa00000006000400fa0044
:100ab800100798001e029000c4029000050f7800ed
:100ac80004002f009e02620004002600848f52005a
:100ad80004003200a44d80000402e800a44d880000
:100ae80025003700f4ff20009e026200f40f20006a
:100af800848f520004003e00a44d80000402e800e8
:100b0800a44d88001c003700f4ff20009e026200fc
:100b1800f42f2000848f520003003e001e00900036
:100b2800330e070014003700f4ff20009e02620015
:100b3800f43f2000848f520004003e00a44d800042
:100b48000402e800a44d88000b003700f4ff2000e1
:100b58009e026200f44f2000848f520003003e0082
:100b68001e0090008400070003003700a44d800099
:100b78000402e800a44d88000080fa000000060086
:100b88000000fa00544e8000e00f520005003a00c1
:100b9800344c800061026200e00f52000100320014
:100ba8007d000700344c8000614262000482fb0033
:100bb800544e88000080fa00000006000400fa0085
:100bc800100798001e029000c4029000050f7800dc
:100bd80004002f009e02620004002600848f520049
:100be80004003200a44d80000402e800a44d8800ef
:100bf80013003700f4ff20009e026200f407200073
:100c0800848f520003003e001e0090000e00070073
:100c18000b003700f4ff20009e026200f40f200052
:100c2800848f520003003e001e009000fa0d07005a
:100c380003003700a44d80000402e800a44d88009a
:100c48000080fa00000006000400fa00100798006f
:100c58001e029000c4029000050f7800f4ff2000e7
:100c68001e0f62001e027800e10f520003003200de
:100c7800e30f520008003200020037000000fe00b7
:100c880006003700a44d80000402e800a44d880047
:100c98000000000001003700000000000080fa009a
:100ca800000006000400fa00100798001e029000d9
:100cb800c4029000050f780004002f009e02620015
:100cc80004002600848f520004003200a44d8000e6
:100cd8000402e800a44d880025003700f4ff200036
:100ce8009e026200f40f2000848f520004003e0030
:100cf800a44d80000402e800a44d88001c003700c1
:100d0800f4ff20009e026200f42f2000848f52001e
:100d180003003e001e009000e60d07001400370097
:100d2800f4ff20009e026200f43f2000848f5200ee
:100d380004003e00a44d80000402e800a44d880091
:100d48000b003700f4ff20009e026200f44f2000e1
:100d5800848f520003003e001e0090000a00070026
:100d680003003700a44d80000402e800a44d880069
:100d78000080fa00000006000200fa00000f780068
:100d88000080fa00000006000200fa00000f780058
:100d98000080fa00000006000a00fa0044832a00d6
:100da800040f780064982000140278001407980053
:100db800849820001402780024079800040a2a0066
:100dc80034079800040b2b0044079800e1412000e9
:100dd8000e0078000f0d0700344d80000402e80073
:100de800344d88000080fa00000006000200fa0076
:100df800000f7800249c20009e0278009502900045
:100e0800050a78001e027800a4029000249c2000a5
:100e1800150298001e027800b4029000249c20005d
:100e2800250298001e027800c4029000249c20002d
:100e3800350298000060fe008629a9000002eb0038
:100e4800540888000080fa00000006001400fa0028
:100e5800500798006107980072079800030f9800e0
:100e6800140f98005e0290006f0262005407980009
:100e7800de02900004062000050272005407980064
:100e88005e0290000402420054079800de029000bf
:100e98000460200005027200540798005e0290006a
:100ea8004222dd00540798005e029000040f78008b
:100eb8009e02780004f02f0004826200040f78007c
:100ec8001e0278004322dd00040f78009e0278009d
:100ed8005e039000f40f2000040263000502720014
:100ee800040f78001e0a9000140798000e0a90005c
:100ef800240798007e029000340798006e02900044
:100f0800440798008e007800808a20007a0c070039
:100f18007421800068026200e00f520001003a006c
:100f280088c0a8000080fa00000006000000fa004f
:100f3800250480000404200004826200e00f5200af
:100f48009f00320084c0a900644e80000402e800bb
:100f5800644e8800644e80006f026200644e880010
:100f68008dff0700644e800005002000f600200079
:100f780007002000860f5200878f5a0090003e001d
:100f8800046001000f003700180037002000370008
:100f980029003700320037003b0037004400370093
:100fa8004d003700560037005f00370068003700f3
:100fb800710037007a0037007b0037007c0037006b
:100fc8007d003700e44a8000d74a8000c64a800086
:100fd800b54a80008701780006017800850078000e
:100fe8000000eb0099ff070075003700064b8000f2
:100ff800f54a80000002eb008001eb000601780052
:10100800850078001000200090ff07006c00370072
:10101800644b8000574b8000464b8000354b800066
:1010280087017800060178008500780020002000fc
:1010380086ff070062003700a44b8000974b8000b2
:10104800864b8000754b8000870178000601780088
:1010580085007800300020007cff0700580037002a
:10106800e44b8000d74b8000c64b8000b54b800016
:10107800870178000601780085007800400020008c
:1010880072ff07004e003700244c8000174c800088
:10109800064c8000f54b8000870178000601780037
:1010a800850078005000200068ff070044003700e2
:1010b800444d8000374d8000264d8000154d80003e
:1010c80087017800060178008500780080002000fc
:1010d8005eff07003a003700844d8000774d80009e
:1010e800664d8000554d8000870178000601780024
:1010f800850078009000200054ff0700300037007a
:10110800c44d8000b74d8000a64d8000954d8000ed
:10111800870178000601780085007800a00020008b
:101128004aff070026003700044e8000f74d800074
:10113800e64d8000d54d80008701780006017800d3
:1011480085007800b000200040ff07001c00370031
:10115800c44c8000b74c8000a64c8000954c8000a1
:10116800870178000601780085007800600020007b
:1011780036ff070012003700044d8000f74c80004e
:10118800e64c8000d54c8000870178000601780085
:1011980085007800700020002cff07000800370049
:1011a800d50c070006003700de0c070004003700e6
:1011b800e50c070002003700ef0c070000000000f4
:1011c8000080fa00000006000e00fa0050079800a0
:1011d800610798000002eb00040f78006e0290008f
:1011e800240798005e02900014079800e140200050
:1011f8000e007800070c0700444d80000402e80048
:10120800444d88000080fa00000006001000fa0033
:1012180050079800610798007207980044032a0055
:10122800040f78007e029000140798005e02900078
:10123800240798006e029000e10f520003003a0064
:1012480004102e00440798000200370014102e00e6
:1012580044079800e14020000e007800ed0b0700dd
:10126800444d80000402e800444d88000080fa00e4
:10127800000006000000fa00043a800061026200e3
:10128800e00f520004003a00043a80006202620053
:10129800e00f5200050032000002eb00f45b88000a
:1012a8000002eb00045c880003003700f45b800058
:1012b8000402e800f45b8800249c20008002eb0014
:1012c800050a7800249c20001500200015029800cb
:1012d800249c20002500200025029800249c200042
:1012e80035002000350298004007a9004027a900d2
:1012f80040c7a90040e7a90041e7a9004087a90025
:1013080041c7a900f45b8000f44a8800045c8000af
:10131800044e880090c0a90088c0a9003405800048
:101328000480a1000490a10004a0a0003405880056
:101338000002eb00b42288005804a8005824a80032
:101348005844a80058a4a80000802000bb0b070040
:10135800808a2000b90b07000440200084228800fe
:101368000000000085228000040e200084826200b4
:1013780004082000848f5200faff3a00140020006d
:101388009422880014392000a422880014802100a7
:10139800841f8800d4872100c41f88000002eb0046
:1013a800041e880004802000441e880004032100d5
:1013b800841e8800c47f2100c41e8800c47f2100c9
:1013c800041f8800c47f2100441f880014002000e7
:1013d8007421880024002000f420880034002000b4
:1013e80074208800040c200024218800040c2000ac
:1013f800a4208800040c2000242088000002eb00b0
:10140800742288000002eb00f42188000002eb003f
:10141800842288000000000085228000040e20003d
:1014280004826200e00f5200fbff3a0090c0a8005f
:1014380054fb25008408880024f4200064088800f0
:101448000002eb003408880084c0a9008cc0a90001
:1014580011e1a800d4fb25009408880054622200fa
:101468007408880084e0a9008ce0a90013e1a800b2
:101478000002eb00944c880004d82800a44c880093
:101488000002eb00b44c880034042000c44c8800ef
:1014980044062000d44c88000080fa0000000600b2
:1014a8003600f800809fbe00829fbe00849fbe0069
:1014b800869fbe000a00fa0088c0a900844d8000fb
:1014c8000402e800844d880075228000040820008a
:1014d80004826200e00f520018003200742280007b
:1014e80061026200e00f52000b003a00544d800088
:1014f8000402e800544d8800e14420000e00780002
:10150800e90a07003e029000844a88004e029000d3
:10151800944a880008003700644d80000402e800ff
:10152800644d8800e14420000e007800de0a0700c0
:101538000e0078002dfe07005604a900f521800052
:101548000408200004826200e00f52000700320005
:10155800744d80000402e800744d8800e1432000c7
:1015680000802000b30a07005624a90074218000d7
:1015780068026200e00f52000c003a00808a2000e6
:10158800a70a070000027800e00f520007003200a7
:10159800e1422000808a2000080b07005644a90079
:1015a800c44d80000402e800c44d8800b5228000c4
:1015b8000402200004826200e00f5200050032009d
:1015c800244d80000402e800244d880056a4a90098
:1015d800070037008416800070026200e00f520096
:1015e80002003200d082a90001003700d082a80092
:1015f800d4228000144d88000080fa004f03be00fa
:101608004f02be004f01be004f00be003600f90079
:10161800004006000000fa0004002f00f507200033
:10162800745b8800855b880004012000645b880087
:1016380001000700feff37000000fa00645b80002d
:10164800f00f52000400320005032000850f5200fd
:101658000500320007003700ab0007000403200034
:10166800645b8800060037000700070084fc070059
:101678000300370004012000645b880000000000bc
:101688000080fa00000006000200fa00350480001d
:101698000404200004826200e00f52009800320027
:1016a80086c0a900e09f2000d805070020a22000de
:1016b800d605070060a42000d4050700d456800092
:1016c800040078001f0c070000027800e456880028
:1016d800b4558000040078001a0c07000002780056
:1016e800c4558800b416800070026200e00f5200f2
:1016f80002003200d682a90001003700d682a80075
:10170800a0af2000c1050700545c8000e00f520024
:1017180008003200344b80000402e800344b880093
:10172800849820008002eb00050a78000002eb0094
:10173800545c8800344c800061026200e00f520063
:1017480002003200d062a90001003700d062a80070
:10175800441680004d22de00614262000482fb00d4
:10176800040f78001e027800e10f520001003a00d1
:1017780088c9a800c555800034272700848f5200e7
:1017880006003600a0af2000ed0507000002780033
:10179800e00f5200010032008989a800454c800002
:1017a8000400210004826200e00f520005003200ac
:1017b8000558800004fa2000848f5200010036008a
:1017c8008989a900e09f2000dd0507000002780054
:1017d800e00f5200010032008829a80020a2200052
:1017e800d705070000027800e00f52000100320020
:1017f8008889a80060a42000d105070000027800ad
:10180800e00f5200010032008869a80060ad200096
:10181800bd05070000027800e00f52000100320009
:1018280088e9a80020ab2000b7050700000278006f
:10183800e00f5200010032008909a80020ab200007
:10184800bf05070000027800e00f520001003200d7
:101858008929a8004516800004002200048262003d
:10186800e00f52000100320088c9a80048090700ab
:10187800745b8000855b8000220020000400be00ad
:10188800acfa0700053b80000400280004826200cf
:10189800e00f5200fbff3a00545b8000040378001d
:1018a800745b8000855b8000060178000400be0040
:1018b800b9fa0700053b8000040028000482620092
:1018c800e00f5200fbff3a0024508000b44b880020
:1018d80044518000c44b880064528000d44b880077
:1018e800c4558000e44b880004588000f44b8800fd
:1018f800445b8000044c8800545b8000244c8800c2
:101908000080fa00000006000200fa00a48a200005
:10191800345088000002eb0044508800040028007e
:10192800545088000002eb0064508800040028002e
:10193800745088000002eb0084508800a48a2000bc
:10194800545188000002eb0064518800040028000c
:10195800745188000002eb008451880004002800bc
:10196800945188000002eb00a4518800a48a20004a
:10197800745288000002eb0084528800040028009a
:10198800945288000002eb00a4528800040028004a
:10199800b45288000002eb00c4528800a48a2000d8
:1019a800945388000002eb00a45388000400280028
:1019b800b45388000002eb00c453880004002800d8
:1019c800d45388000002eb00e4538800040021008f
:1019d800d45588000002eb00e45588000400280074
:1019e800f45588000002eb00045688000400280023
:1019f800145688000002eb002456880004002100d9
:101a0800f45688000002eb00045788000400280000
:101a1800145788000002eb002457880004002800af
:101a2800345788000002eb0044578800043d20002a
:101a380014588800a4702d00245888000400280039
:101a4800345888000002eb0044588800040028003d
:101a5800545888000002eb00645888000480200075
:101a6800145a88000002eb00245a88000400280059
:101a7800345a88000002eb00445a88000400280009
:101a8800545a88000002eb00645a880004002100c0
:101a9800b459880014002000d4598800048020001c
:101aa800545988000002eb0064598800040028009b
:101ab800745988000002eb0084598800040028004b
:101ac800945988000002eb00a459880004f421000e
:101ad800f45888001400200014598800048020005d
:101ae800d45a88000002eb00e45a88000400280059
:101af800f45a88000002eb00045b88000400280008
:101b0800145b88000002eb00245b880004002100bd
:101b1800745a880014002000945a8800765b80006c
:101b2800875b80000002eb00230020000e01780094
:101b38000600be0027fa07001e027800545b8800e2
:101b4800849820008002eb00050a78006498200041
:101b58008002eb00050a78000002eb00544c880074
:101b68000002eb00644c880084c3270054578800a7
:101b78000485270034568800d42e2100a4508800fc
:101b880054582200c451880084ed200084588800ed
:101b98000400240065002000744e8800854e8800eb
:101ba80004022000a5002000944e8800a54e88005d
:101bb80024c0b30004007800d6e9b700f45320002d
:101bc800c44e88000002eb00d44e880004002a00ae
:101bd800e44e880004242400f5002000f44e880018
:101be800054f88000468290085092000144f8800e3
:101bf800254f88000400280065002000344f880025
:101c0800454f880004022000a5002000544f88009a
:101c1800654f8800649d2000144278000400780015
:101c2800eee9b700c44e8000844f8800d44e80008f
:101c3800944f8800e44e8000a44f8800f44e800042
:101c4800054f8000b44f8800c54f8800144f8000ae
:101c5800254f8000d44f8800e54f8800e09c200085
:101c68007b090700609e200079090700e0b1200089
:101c7800380407000459800004017800010021009d
:101c8800e09c200097090700e0b420003104070019
:101c9800845a80000401780001002900e09c20009b
:101ca8009009070060b320002a040700c459800087
:101cb8000401780001002100609e200089090700c6
:101cc800340580000400a0000410a0000420a00037
:101cd800340588008220a900c404800004c0a10043
:101ce80004d0a00004e0a000c404880004002f0071
:101cf800041688000082eb00341688000002eb000e
:101d08006416880004002c00941688000402200041
:101d1800f41688003416200024178800d4f92d0002
:101d2800040988000002eb00c408880086c0a900e6
:101d3800440d2300e4088800f4cf27000415880028
:101d4800e4fd20001415880084442e002415880022
:101d5800242e2e003415880034002f0044158800e6
:101d6800c4772000541588008560a9008d60a800fc
:101d7800a1e2a8003ffd070000242400f100200094
:101d8800b80a07000060fe00d082a80000242400e2
:101d9800f1002000b30a07000060fe00d062a8002e
:101da80000242400f1002000ae0a07000060fe00b5
:101db800d042a80000242400f1002000a90a07004e
:101dc8000060fe00d022a80000242400f1002000ba
:101dd800a40a07000060fe00e9e2a800002424002d
:101de800f10020009f0a07000060fe00e9a2a80099
:101df80000242400f10020009a0a07000060fe0079
:101e0800e982a8000080fa0000000600801f780020
:101e1800849fbe00869fbe000000fa008560a9006e
:101e2800151580000408200004826200e00f5200ab
:101e380031003200f64f8000075080000414800003
:101e4800050020000602420087824a00f44f8800fd
:101e58000550880016518000275180001414800016
:101e6800050020000602420087824a0014518800bb
:101e78002551880036528000475280002414800083
:101e8800050020000602420087824a00345288007a
:101e98004552880096558000a7558000541480004c
:101ea800050020000602420087824a0094558800f7
:101eb800a5558800b6568000c75680006414800077
:101ec800050020000602420087824a00b4568800b6
:101ed800c5568800d6578000e757800074148000e4
:101ee800050020000602420087824a00d457880075
:101ef800e557880030003700f64f80000750800013
:101f080084148000050020000602420087824a00ef
:101f1800f44f880005508800165180002751800032
:101f280094148000050020000602420087824a00bf
:101f3800145188002551880036528000475280008d
:101f4800a4148000050020000602420087824a008f
:101f5800345288004552880096558000a755800065
:101f6800d4148000050020000602420087824a003f
:101f780094558800a5558800b6568000c75680003d
:101f8800e4148000050020000602420087824a000f
:101f9800b4568800c5568800d6578000e757800099
:101fa800f4148000050020000602420087824a00df
:101fb800d4578800e557880014148000444b8800e3
:101fc80024148000544b880034148000644b88002b
:101fd80044148000744b880054148000844b88009b
:101fe80064148000944b880074148000a44b88000b
:101ff800345b80000402e800345b8800355b8000b5
:10200800f4072000848f52007a003600f44f8000d5
:10201800055080004d2bdd004322de0004027300d2
:10202800c32ade00f44f880005508800f44f800072
:102038000550800004027800145088006022b8001f
:10204800f44f880005508800145180002551800005
:102058004d2bdd004322de0004027300c32ade009c
:1020680014518800255188001451800025518000a2
:1020780004027800345188006022b80014518800a6
:102088002551880034528000455280004d2bdd00d8
:102098004322de0004027300c32ade0034528800a3
:1020a800455288003452800045528000040278006e
:1020b800545288006022b800345288004552880083
:1020c80054538000655380004d2bdd004322de0011
:1020d80004027300c32ade00545388006553880045
:1020e80054538000655380000402780074538800bc
:1020f8006022b800545388006553880074548000e7
:10210800855480004d2bdd004322de00040273005d
:10211800c32ade00745488008554880074548000f3
:102128008554800004027800945488006022b80026
:10213800745488008554880094558000a555800003
:102148004d2bdd004322de0004027300c32ade00ab
:1021580094558800a555880094558000a5558000a1
:1021680004027800b45588006022b80094558800ad
:10217800a5558800b4568000c55680004d2bdd005b
:102188004322de0004027300c32ade00b45688002e
:10219800c5568800b4568000c556800004027800f1
:1021a800d45688006022b800b4568800c556880006
:1021b800d4578000e55780004d2bdd004322de0018
:1021c80004027300c32ade00d4578800e55788004c
:1021d800d4578000e557800004027800f45788003f
:1021e8006022b800d4578800e55788000002eb0049
:1021f800345b88000080fa004f03be004f02be0027
:102208004f007800004006000e00fa00000f78002a
:102218002147980032479800230798003407980010
:102228004507980056079800670798001e0278002f
:10223800ae429000054a78001e027800be42900027
:10224800154298001e027800ae0290001502980010
:102258001e027800144090006033b8003e029000df
:10226800ce0290005e019000ee01900001022b006a
:10227800510507000080fa00000006000e00fa0071
:102288004007980051079800620798004e02900096
:10229800140290008402d1005e029000848f5200e4
:1022a800530036006e0290004822de00044f78008a
:1022b8006e029000144798005e02900004024200eb
:1022c800140798001e0290004822de004447980038
:1022d8001e029000544798004e029000144290004d
:1022e800044078007205070000027800340798005f
:1022f8004e02900014429000044078008d050700bb
:1023080000027800be0290000502720034079800af
:102318004e029000944290004e02900014427800c1
:102328008540780004407800c40507000002780062
:10233800be02900005027200340798004e02900019
:1023480014429000844078004e409000bb0507007e
:1023580000027800be02900005027200340798005f
:102368004e02900014429000844078005e40900035
:10237800b205070000027800be0290000502720054
:10238800340798004e029000144290008440780070
:102398001e409000a905070000027800be029000c8
:1023a80005027200340798004e0290001442900013
:1023b800844078001e407800a005070000027800dd
:1023c800be02900005027200340798004e02900089
:1023d80014429000044078000806070000027800c4
:1023e800be02900005027200340798000200370010
:1023f8000082eb00340798000080fa000000060015
:102408000c00fa0040079800510798004e0290000f
:10241800140290008402d1005e029000848f520062
:102428006c0036005e029000040242001407980017
:102438001e0290004822de00444798001e029000c9
:10244800544798004e0290001442900004407800cf
:102458001705070000027800340798004e02900024
:10246800144290000440780032050700000278000a
:10247800be02900005027200340798004e029000d8
:10248800944290004e0290001442780085407800f3
:10249800044078006905070000027800be02900039
:1024a80005027200340798004e0290001442900012
:1024b800844078004e4090006005070000027800d4
:1024c800be02900005027200340798004e02900088
:1024d80014429000844078005e4090005705070041
:1024e80000027800be0290000502720034079800ce
:1024f8004e02900014429000044078002e05070018
:1025080000027800be0290000502720034079800ad
:102518004e029000944290004e02900014427800bf
:102528000404a000854078000440780043050700b3
:1025380000027800be02900005027200340798007d
:102548004e02900014429000044078007205070083
:1025580000027800044f78004e0290001442900068
:1025680004407800c605070000027800be0290000b
:1025780005027200340798004e0290001442900041
:1025880004407800640507000002780014479800aa
:102598004e0290001442900004407800da050700cb
:1025a80000027800be02900005027200340798000d
:1025b8004e02900014429000044078008f050700f6
:1025c80000027800be0290000502720034079800ed
:1025d800060037000082eb00340798000042eb0049
:1025e800044f78000042eb00144798001e42900008
:1025f8000482fb00140798001e0290004822dd00a8
:10260800140798009e4278000582fb009e02900005
:1026180004824200140798001e029000040078000b
:102628000080fa00000006001200fa005007980027
:102638006107980072079800030f98007e029000c7
:10264800e00f5200640032007e029000f00f52004a
:102658000200360004012000740798005e02900012
:1026680014029000c522de006e029000848f520092
:10267800570036006e0290004522dd0024079800be
:102688002e0290004822de00644798002e02900037
:10269800744798005e02900014429000044078004d
:1026a8008304070000027800040f78005e0290009f
:1026b80014429000044078009e040700000278004d
:1026c8001e0f72005e029000944290005e0290001d
:1026d800144278008540780004407800d704070049
:1026e800000278001e0f72005e02900014429000f3
:1026f800844078006e409000d00407000002780003
:102708001e0f72005e029000144290008440780010
:102718007e409000c9040700000278001e0f720076
:102728000002eb00140798001e0037001e029000fc
:10273800040242008e0a90000482420014027800cb
:102748004822de00044f98001e0290000402420056
:102758008e0a90000482420014027800144f9800f8
:102768005e02900014429000844078001e48900059
:10277800b2040700000278001e0f72005e0290008b
:1027880014429000844078000e489000ab04070083
:10279800000278001e0f72001e0290000402e8007a
:1027a800140798009e0290007e029000848f5200c9
:1027b800deff39005e029000144290000440780069
:1027c8000e050700000278001e0f72000200370095
:1027d8000082eb00040f78000080fa000000060079
:1027e8001200fa00500798006107980072079800d5
:1027f800030f98007e029000e00f5200cc003200d8
:102808007e029000f00f5200020036000401200002
:10281800740798005e02900014029000c522de0042
:102828006e029000848f5200bb0036006e0290004a
:102838004522dd00240798002e0290004822de0081
:10284800644798002e029000744798005e0290003a
:102858001442900004407800150407000002780034
:10286800040f78005e029000144290000440780043
:1028780030040700000278001e0f72005e0290000c
:10288800944290005e0290001442780085407800df
:102898000440780069040700000278001e0f7200e7
:1028a8005e02900014429000844078006e409000d0
:1028b80062040700000278001e0f72005e0290009a
:1028c80014429000844078007e4090005b0407002a
:1028d800000278001e0f72005e0290001442900001
:1028e8000440780034040700000278001e0f7200cc
:1028f8005e029000944290005e02900014427800bc
:102908000404a00085407800044078004b040700c8
:10291800000278001e0f72000002eb0014079800f6
:102928003a0037005e02900014429000044078009c
:102938007904070000027800044f98005e029000b6
:102948001442900004407800cd040700000278008b
:102958001e0f72005e02900014429000044078003e
:102968006d04070000027800144f98005e02900082
:102978001442900004407800c10407000002780067
:102988001e0f72001e029000040242008e0a900080
:10299800848242001e4a90000482fb00840a780068
:1029a8001e029000040242008e0a900084824200b7
:1029b8001e029000040242000e0b90000402430025
:1029c800140278004822dd00840a78001e02900074
:1029d800040242008e0a9000848242001e02900087
:1029e800040242000e0b9000040243001403780016
:1029f8000e4a90000482fb0004024300840a780017
:102a08001e0290000402e800140798007e0290005d
:102a18008402e9001e029000848f5200c1ff3e002c
:102a28005e02900014429000044078003a040700c7
:102a380000027800044f98005e0290001442900053
:102a4800044078008e040700000278001e0f720010
:102a58005e02900014429000044078002e040700a3
:102a680000027800144f98005e0290001442900013
:102a780004407800a4040700000278001e0f7200ca
:102a88001e029000040242008e0a900084824200d6
:102a98001e4a90000482fb00840a78001e029000ff
:102aa800040242008e0a9000848242001e029000b6
:102ab800040242000e0b9000040243001402780046
:102ac8004822dd00840a78001e02900004024200b9
:102ad8008e0a9000848242001e0290000402420086
:102ae8000e0b900004024300140378000e4a900075
:102af8000482fb0004024300840a78005e0290000e
:102b080014429000044078003c040700000278005a
:102b18001e0f7200060037000082eb00040f7800d9
:102b28000042eb00044f98000042eb00144f98005d
:102b38000080fa00000006001200fa001007980052
:102b48002107980032079800034f9800540798000f
:102b58006507980076079800070f98000002eb00b9
:102b6800040f78001e0390006022b800048bbe009a
:102b78001e0290008002eb00250298001e029000c1
:102b88008002eb00350298001e029000ae02900011
:102b9800450298001e029000be029000550298005f
:102ba8000e4a9000e14f42000d003a001e029000cc
:102bb80005002800650298001e0290008002eb00c4
:102bc800750298001e02900005002800050a98006a
:102bd8001e0290008002eb00150a98000c003700d6
:102be8001e02900005002800650298001e02900051
:102bf8008002eb00750298001e0290000500280074
:102c0800050a98001e0290008002eb00150a980041
:102c18001e029000de029000250a98001e02900015
:102c2800ee029000350a98001e029000fe02900005
:102c3800550a98001e0290008e0a9000650a9800b6
:102c48001e0290008002eb00750a98001e02900098
:102c58008002eb00051298001e029000ceba970081
:102c6800151298000080fa00000006001000fa0013
:102c7800100798002107980032079800034f980022
:102c88005407980065079800760798000002eb0043
:102c9800040f78001e0290008002eb0025029800c5
:102ca8001e029000de029000350298001e0290007d
:102cb800ee029000450298001e029000fe0290006d
:102cc800550298001e029000ae029000650298001e
:102cd8001e029000be029000750298000e4a9000f5
:102ce800e14f42000d003a001e0290000500280046
:102cf800050a98001e0290008002eb00150a980051
:102d08001e02900005002800250a98001e02900067
:102d18008002eb00350a98000c0037001e02900074
:102d280005002800050a98001e0290008002eb00aa
:102d3800150a98001e02900005002800250a980030
:102d48001e0290008002eb00350a98000080fa000d
:102d5800000006000400fa00100798001e02900008
:102d6800740390001e029000e40290001e0290007e
:102d780014027800060178008500780004007800c5
:102d88005b06070000027800040f78001e0290001e
:102d9800940a90001e029000040a90000501780031
:102da800840078001e0078003c06070000027800c6
:102db800040f78001e029000b40a90001e029000d2
:102dc800240a900005017800840078001e0078002d
:102dd8003206070000027800040f78001e029000f7
:102de80024029000e00f520003003a001e029000f7
:102df800d4029000050f78001e0290009e02780011
:102e0800150298000080fa00000006000400fa008d
:102e1800100798001e029000140b90001e029000ec
:102e2800840a90001e029000240290000601780097
:102e38008500780004007800180607000002780072
:102e4800040f78001e029000f40290001e02900009
:102e58006402900005017800840078001e00780064
:102e68000e06070000027800040f78001e0290008a
:102e7800d40290001e0290004402900005017800e0
:102e8800840078001e007800190607000002780008
:102e9800040f78001e0290009e0278003502980008
:102ea8000080fa00000006000400fa00000f780015
:102eb800110798001e027800b40290001e029000cc
:102ec800848f5200030031001e027800b402900083
:102ed800150798001e027800c40290001e02900098
:102ee800848f5200030036001e027800c40290004e
:102ef800150798001e0278009e029000050a7800c7
:102f08000080fa00000006000200fa00000f7800b6
:102f18001e027800b40290001e027800240a900075
:102f2800848f520002003600140020000100370090
:102f38000002eb00040078000080fa0000000600a0
:102f48000200fa00000f78001e027800b402900018
:102f58001e027800340a9000848f5200020031006b
:102f680014002000010037000002eb000400780084
:102f78000080fa00000006000400fa00100798001c
:102f88001e029000d40a90001e029000440a90008d
:102f98000001eb008500780004007800bf050700f9
:102fa80000027800040f78001e029000640a900066
:102fb8009e0f5200030036001e029000e40a9000a3
:102fc800050f780004f02f009e0252001e029000a8
:102fd800440a9000848f5200040036001e029000bc
:102fe800440a90001e0f42000200370004f02f0030
:102ff800040f78001e029000340290009e0f5200c9
:10300800060036001e029000740a90008402e80050
:103018001e029000750a9800090037001e029000f1
:10302800740a9000e00f5200050032001e02900062
:10303800740a90008402e9001e029000750a980044
:103048001e029000f40a90001e02900014129000d4
:10305800848f52000f0039001e029000f40a90007d
:103068001e0290001412900004024200848f520045
:10307800060039001e02900014129000040242005b
:10308800840278001e029000750a9800140020003f
:10309800010037000002eb00040078000080fa000d
:1030a800000006000400fa00100798001e029000b5
:1030b800d40a90001e029000440a90000001eb0020
:1030c8008500780004007800740507000002780085
:1030d800040f78001e029000640a90009e0f5200b0
:1030e800030036001e029000e40a9000050f7800e5
:1030f8001e029000440a90009e0f52000400360001
:103108001e029000440a90001e0f52000200370071
:103118000002eb00040f78001e02900034029000b9
:103128009e0f5200060031001e029000041290000b
:103138008402e8001e02900005129800090037007a
:103148001e02900004129000e00f520005003200a9
:103158001e029000041290008402e9001e029000f2
:10316800051298001e029000841290001e02900022
:1031780014129000848f52000f0039001e02900034
:10318800841290001e029000141290000402420063
:10319800848f5200060039001e029000141290001d
:1031a80004024200840278001e0290000512980072
:1031b80014002000010037000002eb000400780032
:1031c8000080fa00000006001400fa00404798004a
:1031d8003107980042079800530798006407980041
:1031e80075079800060f9800170f98003e02900088
:1031f800f401b300340798000e0b90009e0b90006a
:10320800463add00ca32de00850272004632dd0031
:103218006e019000fe0190000400be0088f40700d3
:103228000002be00048fbe0004202000050020001c
:103238001e03be00840f5300858f5b0003003e0011
:1032480014002000945b880032003700348020008e
:10325800050020001e03be00840f5300858f5b000d
:103268000d003e0044002000945b88001e02be0052
:103278004e2bdd004222de0004027300c22ade006b
:10328800048fbe00be029000e4ff2f00048262009b
:10329800340798001f003700f400220005002000c2
:1032a8001e03be00840f5300858f5b000d003e0097
:1032b80004012000945b88001e02be004c2bdd0038
:1032c8004422de0004027300c42ade00048fbe001c
:1032d800be029000d4ff2f000482620034079800d9
:1032e8000c00370004042000945b88001e02be0016
:1032f8004a2bdd004622de0004027300c62ade00e7
:10330800048fbe00be029000c4ff2f00048262003a
:1033180034079800041c2000050020001e03be008e
:10332800840f5300858f5b0008003600945b800093
:103338004322dd00945b8800be02900034fe2f001b
:1033480004826200340798005700370004182000f0
:10335800050020001e03be00840f5300858f5b000c
:1033680009003600945b80006722b90004027800e7
:10337800945b8800be02900074fe2f0004826200f5
:103388003407980048003700041420000500200086
:103398001e03be00840f5300858f5b0009003600b2
:1033a800945b80006622b90004027800945b880070
:1033b800be029000b4fe2f00048262003407980019
:1033c8003900370004102000050020001e03be004d
:1033d800840f5300858f5b0009003600945b8000e2
:1033e8006522b90004027800945b8800be02900050
:1033f800f4fe2f0004826200340798002a00370088
:10340800040c2000050020001e03be00840f53009a
:10341800858f5b0008003600945b80004222dd0047
:10342800945b8800be02900034ff2f000482620083
:10343800340798001c00370004082000050020000d
:103448001e03be00840f5300858f5b000900360001
:10345800945b80006322b90004027800945b8800c2
:10346800be02900074ff2f000482620034079800a7
:103478000d00370004042000050020001e03be00d4
:10348800840f5300858f5b0007003600945b800033
:1034980004024200945b8800be029000b4ff2f0033
:1034a8000482620034079800945b80004222dd00a9
:1034b800945b88004e429000e14f520004003a00ad
:1034c8003e029000141188005e03900006118800e7
:1034d8004e429000e24f520004003a003e02900033
:1034e800441188005e039000361188000080fa00bd
:1034f800000006000c00fa0040079800214f9800d1
:103508000042eb00044f78002e4a9000e14f520031
:1035180054003a008500a9004e029000241188004a
:103528000002eb0034079800180037003e029000b4
:103538000402e80034079800945b8000be02900003
:10354800848f52000300360034c0b300044f780063
:103558000e00370005118000040420000482620078
:10356800e00f52000300320044c0b300044f78005b
:10357800060037000411800062026200e00f52006a
:1035880002003a0014c0b300044f78001e427800cd
:10359800e04f5200e5ff3200200037003e02900065
:1035a8000402e80034079800945b8000be02900093
:1035b800848f52000300360034c0b300044f7800f3
:1035c8001600370005118000040420000482620000
:1035d800e00f52000300320044c0b300044f7800eb
:1035e8000e003700250480000410200004826200c9
:1035f800e00f52000300320024c0b300044f7800eb
:10360800060037000411800061026200e00f5200da
:103618000200320024c0b300044f78001e42780034
:10362800e14f5200ddff32001e427800e24f5200a7
:1036380005003a00241180000500200014079800b6
:103648002507980007003700040020001511210005
:103658001407980025079800a45b80000402e8007e
:10366800a45b88002e4a9000e24f52004d003a00b9
:103678008740a9004e029000541188000002eb0018
:1036880034079800180037003e0290000402e80052
:1036980034079800945b8000be029000848f52002b
:1036a8000300360034c0b300044f78000e00370022
:1036b800351180000404200004826200e00f5200eb
:1036c8000300320044c0b300044f780006003700fe
:1036d8003411800062026200e00f520002003a00da
:1036e80014c0b300044f78001e427800e04f520027
:1036f800e5ff3200190037003e0290000402e8009e
:1037080034079800945b8000be029000848f5200ba
:103718000300360034c0b300044f78000f003700b0
:10372800351180000404200004826200e00f52007a
:103738000300320044c0b300044f7800070037008c
:10374800350480000440200004826200e00f52002b
:103758000200320024c0b300044f78001e427800f3
:10376800e14f5200e4ff32001e427800e24f52005f
:1037780005003a0054118000050020001407980045
:1037880025079800070037000400200015112100c4
:103798001407980025079800b45b80000402e8002d
:1037a800b45b88001e029000ae0290000400be00c8
:1037b8000080fa00000006001400fa004047980054
:1037c800310798004207980053079800640798004b
:1037d80075079800060f9800170f98004e01900083
:1037e800de0190006e009000fe00900014f30700c8
:1037f8000002be00048fbe001e0278004422dd00d5
:10380800245c88006e029000fe02900052cd2d00cc
:10381800230320000400be0009f307000002be00d5
:103828001e1f12001e971a000082eb008082eb0018
:103838001e0f42005e974a001e03be0014002000bf
:1038480005002000840f5300858f5b0003003e00b5
:103858002400200005002000048fbe00f4ff2f0084
:10386800050020001e03be00840f5300858f5b00f7
:10387800030036002400200005002000048fbe004d
:103888004e429000e04f5200030032004e4290003a
:10389800e14f520004003a00be0290003510880043
:1038a8001e027800241088000080fa00000006003c
:1038b8000600fa00404798000002eb001407980041
:1038c8004e429000e04f5200030032004e429000fa
:1038d800e14f520013003a000002eb00040f780099
:1038e8000b0037001e0fe800245c80009e02780061
:1038f800848f52000600360004a02f001407980099
:10390800145c80000402e800145c8800050037009d
:10391800451080000400240004826200e00f520079
:10392800f0ff3a001e029000040078000080fa00c0
:10393800000006000600fa00404798000002eb006d
:10394800140798004e429000e04f520003003200e6
:103958004e429000e14f520013003a000602a800c0
:103968000002eb00040f78000b0037001e0fe80080
:10397800245c80009e027800848f52000600360086
:1039880004a02f0014079800145c80000402e800cb
:10399800145c880004003700341080006102620063
:1039a800e00f5200f1ff3a001e0290000400780078
:1039b8000080fa00000006000600fa004047980060
:1039c8000002eb00140798004e429000e04f5200ae
:1039d800030032004e429000e14f520013003a00bb
:1039e8000622a8000002eb00040f78000b00370045
:1039f8001e0fe800245c80009e027800848f52002d
:103a08000600360004a02f0014079800145c8000fc
:103a18000402e800145c88000400370034108000b9
:103a280062026200e00f5200f1ff3a001e029000ad
:103a3800040078000080fa00000006000600fa0082
:103a480040479800514798000002eb00140798007f
:103a58005e429000e04f5200030032005e42900048
:103a6800e14f520028003a004e4290000482fb00c9
:103a7800141088000002eb00040f78000c003700d7
:103a88001e0fe800245c80009e027800848f52009c
:103a98000700360004a02f0014079800145c80006b
:103aa8000402e800145c88000000000011003700e0
:103ab800451080000400240004826200e00f5200d8
:103ac800efff32000b0037001e0fe800245c800077
:103ad8009e027800848f52000600360004a02f0052
:103ae80014079800145c80000402e800145c880045
:103af800050037004510800004002400048262009d
:103b0800e00f5200f0ff3a001e0290000400780017
:103b18000080fa00000006000600fa0040479800fe
:103b28000002eb00140798004e429000e04f52004c
:103b3800030032004e429000e14f52002b003a0041
:103b48000662a8000002eb00040f78000c003700a2
:103b58001e0fe800245c80009e027800848f5200cb
:103b68000700360004a02f0014079800145c80009a
:103b78000402e800145c8800000000001000370010
:103b88003410800068026200e00f5200f0ff3a0033
:103b98000b0037001e0fe800245c80009e027800ae
:103ba800848f52000600360004a02f0014079800e6
:103bb800145c80000402e800145c880004003700ec
:103bc8004410800062026200e00f5200f1ff3200f0
:103bd8001e029000e00f520004003a000510800019
:103be800f40f200004826200140798001e0290005f
:103bf800040078000080fa00000006000600fa00c1
:103c0800404798000002eb00140798004e429000cd
:103c1800e04f5200030032004e429000e14f520044
:103c280013003a000642a8000002eb00040f7800d7
:103c38000b0037001e0fe800245c80009e0278000d
:103c4800848f52000600360004a02f001407980045
:103c5800145c80000402e800145c8800040037004b
:103c68003410800064026200e00f5200f1ff3a0055
:103c78001e029000040078000080fa000000060090
:103c88000600fa00404798000002eb00040f780095
:103c98000002eb00140798004e429000e04f5200db
:103ca800030032004e429000e14f520012003a00e9
:103cb80006a2a9000682a8000b0037001e0fe80024
:103cc800245c80009e027800848f52000600360033
:103cd80004a02f0014079800145c80000402e80078
:103ce800145c880004003700341080007002620001
:103cf800e00f5200f1ff3a001e0290000400780025
:103d08000080fa00000006000600fa00404798000c
:103d18000002eb00040f78000002eb001407980083
:103d28004e429000e04f5200030032004e42900095
:103d3800e14f520012003a0006a2a8000682a8002d
:103d48000b0037001e0fe800245c80009e027800fc
:103d5800848f52000600360004a02f001407980034
:103d6800145c80000402e800145c8800040037003a
:103d78003410800070026200e00f5200f1ff3a0038
:103d88001e029000040078000080fa00000006007f
:103d98000000fa00d45b8000144c8800c5558000f0
:103da80034272700848f52000c0036008929a90087
:103db80005588000f4f92000848f520002003e006c
:103dc8008989a8000500370005588000f4f920000b
:103dd800848f5200010036008989a900745c800034
:103de8006123b8000082eb008082eb0006024200eb
:103df80087824a003600200007002000860f520004
:103e0800878f5a0067003e000460010003003700f6
:103e1800180037003000370057003700d602a900d5
:103e2800c555800034272700848f52005f00360074
:103e380005588000f4f92000848f52000a003e00e3
:103e48000558800084bb2000848f520003003e0088
:103e5800d45b8000e00f52000300320024002000f1
:103e6800745c88005a0037000002eb00c45b8800cd
:103e780057003700d602a800c45b80000402e8009f
:103e8800c45b8800c55b8000341f2000848f52000b
:103e98004800360034002000745c88000002eb0003
:103ea800c45b8800445b80000402e800445b88002f
:103eb800545b80000402e900545b8800d45b8000f6
:103ec800e00f52003d003200d45b80000402e9009c
:103ed800d45b88003e003700d602a900c45b80008e
:103ee8000402e800c45b8800445b8000f80f5200bd
:103ef8000a00360005588000f4f92000848f52002b
:103f08000300360014002000745c8800300037007d
:103f180044002000745c88002d003700055880009c
:103f280074062100848f520003003600140020001c
:103f3800745c880026003700c55b8000441f2000a1
:103f4800848f52001f0036000002eb00c45b88001b
:103f58000558800074bb2000848f520003003e0087
:103f680014002000745c8800190037002400200029
:103f7800745c880016003700d602a900e45b800054
:103f8800e00f52001100320014002000745c880019
:103f98000002eb00445b88000002eb00e45b880051
:103fa8000b00370000000000090037000000000087
:103fb800070037000000000005003700000000007f
:103fc8000300370000000000010037000000000077
:103fd8000080fa00000006000000fa0094012000aa
:103fe800d45b88000002eb00445b88000080fa0084
:103ff800000006000000fa0014002000e45b8800be
:104008000080fa000000060010019000900078007f
:10401800010051000000e900f000b20000000600b5
:10402800100190009000780002805000f000b2006b
:10403800000006001170a6001a003700e4014000d5
:104048009309e800900190001001e800f200b20026
:104058000310e10010003200100178006a11b80066
:10406800e8014000828141006e8150009219780079
:1040780066014100b2197800b2197800b2197800c7
:10408800b21978001001e800f200b20002087800c6
:10409800e60140009309e900e60140009309e800c1
:1040a8001170a100000006001170a6000900370079
:1040b8006e815000121878006601410032187800ad
:1040c8003218780032187800321878001170a10080
:1040d80008003700827f21000218780002002000c3
:1040e8000218780002187800021878000218780080
:1040f8003100370000000600e40140009309e800a1
:10410800900190001001e800f200b2000310e100f5
:104118000e003200100178006a11b800e801400072
:1041280082814100b1197800b1197800b11978007d
:10413800b1197800b11978001001e800f200b20056
:1041480002087800e60140009309e900e601400012
:104158009309e80000000600100190009001780023
:104168000310e10008003a00837f210083187800db
:1041780003002000831878008318780083187800db
:10418800831878000c0037006a11b80068014100f4
:1041980000014100b2187800b2187800b21878000f
:1041a800b2187800b2187800100190000201e800f7
:1041b800f200b20012009800000006001130a700bb
:1041c8001300370010019000900178000310e100ff
:1041d8000f0032006a11b800680141000001410077
:1041e800ee815000b2097800e6814100b2197800ea
:1041f800b2197800b2197800b21978001130a0000d
:10420800100190000201e800f200b20012009800cc
:10421800000006001130a1006e81500030097800be
:10422800660141003019780030197800301978009b
:10423800301978001130a000000006000018eb00cb
:104248000018eb000018eb000008eb000000060067
:104258000200fa00000f78001e027800b4029000f5
:10426800240290000400be00c60007001e02780069
:104278001402be000400be00c20007001e0278003f
:10428800b4029000240290000400be00f100070070
:104298001e0278001402be000400be00ed000700f4
:1042a8001e027800240b9000b40b90001e027800c8
:1042b800940a9000040a90001e007800f001900013
:1042c8001e007800600190001e007800d000900069
:1042d8001e00780000489000bbfb07000080fa0031
:1042e800000006000c00fa0030079800410798000b
:1042f80052079800de029000f4ff2000048262005a
:1043080054079800ce02900004002f000482620037
:1043180044079800ce0290005e02900005027200e9
:10432800440798000042eb00044f78003e029000da
:104338001402be000400be00a30007003e02900065
:10434800044a9000844078004e00900069fc070001
:104358000002be0014079800250798001e0390006d
:10436800ae0390000400200015112100840f5300b3
:10437800858f5b0002003a0014c0b300044f780038
:104388003e0290001402be000400be007d0007003b
:104398003e029000b4029000240290000400be0087
:1043a8008900070000000000000000000000000075
:1043b800000000003e029000b40290002402900029
:1043c8000400be006f0007001e427800e04f520054
:1043d80003003200645c80000402e800645c88002a
:1043e8001e427800044078000080fa0000000600b1
:1043f8000400fa00100798001e029000c402900002
:10440800050f7800a44d80000402e800a44d880040
:104418000080fa00000006000400fa001007980067
:104428001e029000c4029000050f78001e0278005a
:104438006123b80004f82900f5ff2f0006024200a6
:1044480087824a004600200007002000860f52009d
:10445800878f5a0011003e000460010004003700f5
:1044680005003700060037000a003700060037004d
:104478008709a9000d0037008709a8000b0037003d
:10448800dcfe070009003700c42b2000545b8800bd
:1044980006003700d0fe070004003700a44d800056
:1044a8000402e800a44d8800000000000080fa0023
:1044b800000006000400fa00100798001e02900091
:1044c800c4029000050f7800f4ff20001e0f620060
:1044d800a44d80000402e800a44d88000080fa0082
:1044e800000006000000fa0014002000545c880058
:1044f8000080fa00000006000000fa006452800004
:1045080026508000455180008001eb0006017800ac
:1045180085007800c00620004cf207000080fa00f1
:10452800000006000000fa000002eb008001eb002a
:104538000001eb008000eb00d006200043f20700ea
:104548000080fa00000006000000fa00e75680002c
:1045580006588000c55580000002eb0087017800ee
:104568000601780085007800e006200037f2070091
:104578000080fa00000006000000fa000080fa003f
:104588000000060001600100c422b7000000060018
:10459800ca22b70000000600d022b70000000600bb
:1045a800d622b70000000600000000000000060048
:1045b800e222b70000000600e822b700000006006b
:1045c80000000000000006000080ea000160010011
:1045d800c422b60000000600ca22b6000000060089
:1045e800d022b60000000600d622b6000000060061
:1045f8000000000000000600e222b60000000600ed
:10460800e822b600000006000000000000000600d6
:1046180001600100c022b70000000600c622b700f2
:1046280000000600cc22b70000000600d222b70026
:10463800000006000000000000000600de22b700af
:1046480000000600e422b700000006000000000099
:10465800000006000080ea0001600100c022b600e8
:1046680000000600c622b60000000600cc22b600f4
:1046780000000600d222b60000000600000000007c
:1046880000000600de22b60000000600e422b600a4
:104698000000060000000000000006000200e00024
:1046a80005003b0002004000080031000000200027
:1046b800862bec000500370002004000030039009b
:1046c800f0ff2f00862bec00000037000101b80036
:1046d8006218b8000100e00002003200f0ff2f006d
:1046e800862bec00cf10de000100700000000600f1
:1046f8000200e00005003b00020040000800310015
:1047080000002000882bec00050037000200400064
:1047180003003900f0ff2f00882bec000000370061
:104728000101b8007018b8000100e0000200320072
:10473800f0ff2f00882bec00cc10de000100700089
:10474800000006000e00fa00600798006e02900054
:104758004822de00040f78001e027800840242001e
:1047680044242800048242001400780010079800ae
:104778001e02e80084024200442428000482420009
:104788009400780021079800ee029000f40f2000b2
:10479800048262003407980004102000440798003f
:1047a800ae0290001e029000848252003e029000e9
:1047b80004aab900840278004e0290001100090092
:1047c8008402d80000027800540798009e029000e6
:1047d8005e02900004824200040078000080fa0023
:0447e80000000600c7
:020000040000fa
:1047ec00900b00000002000000000000ce09000049
:1047fc00a40100000000000000080000ce01000031
:10480c00000000008a0b0000020000000000000005
:10481c00820b00000400000000000000860b00006a
:10482c000400000000000000720b000006000000f5
:10483c00000000008c0b00000200000000000000d3
:10484c008e0b0000020000000200000001000000be
:10485c00780b0000060000000000000000000000c3
:020000040000fa
:10486c00f03fb1000180b10006003500ee030900f5
:10487c0000000000403fb1000180b100fbff3d0093
:10488c001000b000203fb00002003500008009008d
:08489c0000000000000006000e
:020000040000fa
:0200000400fffb
:04e00000000000001c
:020000040000fa
:0200000401f009
:04000000ecbb000055
:020000040000fa
:0200000401f009
:04000400e7ff000012
:020000040000fa
:0200000401f009
:040008004cff0000a9
:020000040000fa
:0200000401f009
:04000c00ffff0000f2
:020000040000fa
:0200000401f009
:04001000ffff0000ee
:020000040000fa
:0200000401f009
:04001400ffff0000ea
:020000040000fa
:0200000401f009
:04001800ffff0000e6
:00000001FF
